:1000000000000120910100007F0300008103000037
:100010008303000085030000870300000000000048
:100020000000000000000000000000008903000044
:100030008B030000000000008D0300009D6800009D
:100040009103000093030000E51100000912000075
:10005000752900009B0300009D0300009929000002
:10006000A1030000A3030000411400006514000078
:10007000A903000051200000AD030000AF03000001
:10008000B1030000B3030000B50300009D1A000097
:10009000B9030000BB030000BD030000BF03000064
:1000A000C1030000C3030000C5030000112B0000C2
:1000B000092C0000CB030000CD030000CF0300009B
:1000C000D1030000D3030000D5680000E9680000F8
:1000D000FD68000011690000DD030000DF0300007F
:1000E000E1030000E3030000E5030000E703000074
:1000F000E9030000EB030000ED030000EF03000044
:10010000F1030000F3030000F5030000F703000013
:10011000F9030000FB030000FD030000FF030000E3
:1001200001040000030400000504000007040000AF
:10013000090400000B0400000D0400000F0400007F
:10014000110400001304000015040000170400004F
:10015000190400001B0400001D0400001F0400001F
:1001600021040000230400002504000027040000EF
:10017000290400002B0400002D0400002F040000BF
:100180003104000033040000000000000000000003
:100190004FF0000BDFF8BE020068DFF8B612096806
:1001A00001F0030100F01C00142801D14BF0020BF8
:1001B000002901D04BF0010BBBF1000F05D0A7487F
:1001C000A749DFF8722200F09FF8A64880470BF09D
:1001D000020ABAF1000F0CD0DFF86E02DFF86E12DF
:1001E00002680B680FB44FF000024FF0FF0302608B
:1001F0000B609D484FF000024FF00103022808D128
:10020000DFF83A120A60DFF83E120A60DFF83212B5
:100210000B60012808D1DFF82A120A60DFF82612E5
:100220000A60DFF81A120B609048002809D1904844
:100230009049914A00F030F890489149914A00F075
:100240002BF891489149924A00F026F8914892493A
:10025000DFF8E22100F058F8BBF1000F10D08F4812
:100260008F49DFF8D62100F04FF80BF0020ABAF1FF
:10027000000F05D00FBC02600B6000BFAFF3008021
:10028000DFF820020FF2030E00474FF000004FF09E
:100290000001DFF814F2FEE72DE9F841884225D08D
:1002A000B2EB010200D5FEE740EA010313F00303BD
:1002B00002D000F01DF819E04FF000039046121133
:1002C000F7D09A421CBFF0C8F0C103F10103F8D186
:1002D00008F00F08B8F1000F08D004780C7000F196
:1002E000010001F10101B8F10108F6D1BDE8F88182
:1002F00008B54FF0000303780B7000F1010001F125
:100300000101013AF7D108BD884237D000F0030659
:10031000002E14D04FF00405A5EB06044FF008079B
:1003200007FB06F8914669FA08F9002C07D080F817
:10033000009069FA07F900F10100013CF5E74FF080
:1003400000060F46091A88460911914614461546BB
:10035000B14206D018BFA0E8340206F10106B1424E
:10036000F8D108F00F08B8F1000F07D002704FEA7B
:10037000322200F10100B8F10108F4E77047FEE70E
:10038000FEE7FEE7FEE7FEE7FEE7FEE7FEE7FEE745
:10039000FEE7FEE7FEE7FEE7FEE7FEE7FEE7FEE735
:1003A000FEE7FEE7FEE7FEE7FEE7FEE7FEE7FEE725
:1003B000FEE7FEE7FEE7FEE7FEE7FEE7FEE7FEE715
:1003C000FEE7FEE7FEE7FEE7FEE7FEE7FEE7FEE705
:1003D000FEE7FEE7FEE7FEE7FEE7FEE7FEE7FEE7F5
:1003E000FEE7FEE7FEE7FEE7FEE7FEE7FEE7FEE7E5
:1003F000FEE7FEE7FEE7FEE7FEE7FEE7FEE7FEE7D5
:10040000FEE7FEE7FEE7FEE7FEE7FEE7FEE7FEE7C4
:10041000FEE7FEE7FEE7FEE7FEE7FEE7FEE7FEE7B4
:10042000FEE7FEE7FEE7FEE7FEE7FEE7FEE7FEE7A4
:10043000FEE7FEE7704700000000A2A2A2A2008033
:100440000340088003401080034030800340348024
:1004500003403880034018080240000000F00020EC
:1004600000000120297300000000000000000000CF
:10047000000000000000000090010000B004000037
:10048000B0040000587A0000607A000000000020EC
:100490002000002020000020300F0020300F00201E
:1004A00000F0002079780000373E000000000000D6
:1004B0000348044B834202D0034B03B118477047F3
:1004C0002000002020000020000000000548064910
:1004D000091A891001EBD171491002D0034B03B105
:1004E0001847704720000020200000200000000076
:1004F00010B5064C237843B9FFF7DAFF044B13B16C
:100500000448AFF300800123237010BD20000020B9
:1005100000000000287A000008B5054B1BB1054912
:100520000548AFF30080BDE80840FFF7CFBF00BF2C
:100530000000000024000020287A0000EFF3108063
:1005400072B6704780F3108870470160704700688A
:1005500070470EB503FA01F303EA020301686FEA7C
:10056000020201EA020141EA030101600EBD0068D6
:1005700000EA020020FA01F070470180704700880D
:1005800070470EB503FA01F303EA020301886FEA2C
:10059000020201EA020141EA030101800EBD008866
:1005A00000EA020020FA01F07047017070470078FD
:1005B00070470EB503FA01F303EA020301786FEA0C
:1005C000020201EA020141EA030101700EBD007856
:1005D00000EA020020FA01F07047000080B483B006
:1005E00000AF0346FB71FB7903F01F02064997F940
:1005F00007305B09012000FA02F241F8232000BF16
:100600000C37BD4680BC704700E100E080B483B089
:1006100000AF0346FB71FB7903F01F02074997F90E
:1006200007305B09012000FA02F2203341F8232051
:1006300000BF0C37BD4680BC704700BF00E100E042
:1006400080B483B000AF0346FB71FB7903F01F0257
:10065000074997F907305B09012000FA02F260337D
:1006600041F8232000BF0C37BD4680BC704700BF57
:1006700000E100E080B584B000AF78607B68314A6B
:10068000934204D07B68304A934200D000BE7B681E
:1006900093F904301846FFF7B9FF842200217868E7
:1006A00007F019F97B6801225A620023FB810AE0F6
:1006B000FB897A680633DB0013444FF0FF325A603F
:1006C000FB890133FB81FB89072BF1D97B681D4A2C
:1006D000934215D17B681D4A1A607B6802221A7109
:1006E0001B4B9B6C1A4A43F4007393640220FFF780
:1006F000A7FF174B9B6C164A23F40073936414E016
:100700007B68144A1A607B6803221A71104B9B6C39
:100710000F4A43F4806393640320FFF791FF0C4B6F
:100720009B6C0B4A23F4806393647B681B681A6894
:100730007B681B6822F000421A6000BF1037BD467C
:1007400080BD00BF3C010020B80000200010004028
:10075000008003400010014080B58AB000AF78608F
:100760007B681B681B687B627B681B689B693B62BC
:100770007B681B685B68FB617B681B689B6ABB616D
:100780007B681B681B6B7B617B681B685B6B3B61D9
:100790007B681B68DB69FB607B68354A93421DD12F
:1007A0007B68344A1A607B6802221A71324B9B6C58
:1007B000314A43F4007393640220FFF741FF2E4B4C
:1007C0009B6C2D4A23F4007393647B681B681A6842
:1007D0007B681B6822F000421A601CE07B68274A95
:1007E0001A607B6803221A71234B9B6C224A43F4E4
:1007F000806393640320FFF723FF1F4B9B6C1E4A0B
:1008000023F4806393647B681B681A687B681B68A9
:1008100022F000421A607B6A23F001037B627B684E
:100820001B687A6A1A607B681B683A6A9A617B68FF
:100830001B68FA695A607B681B681A687B681B68CA
:1008400042F001021A607B681B68BA699A627B6891
:100850001B687A691A637B681B683A695A637B680C
:100860001B68FA68DA6100BF2837BD4680BD00BF4B
:100870003C010020001000400080034000100140B7
:1008800080B586B000AFF8607A603B600B46FB72C3
:10089000FB68454A934204D0FB68444A934200D027
:1008A00000BEFB7A072B00D900BE97F82030202B22
:1008B00000D900BE3B68012B00D800BE3B68B3F5F1
:1008C000007F00D900BE3B6803F00103002B00D07D
:1008D00000BEFB6893F904301846FFF797FEFB68EB
:1008E000002283F88020FB681B681A68FB681B687D
:1008F00022F001021A60FB681B681A68FB681B681B
:1009000042F002021A60FB681B681A68FB681B68E9
:1009100042F001021A60FB7A072B3AD87B68002B61
:100920000BD07B68B3F1007F07D07B68B3F1807F89
:1009300003D07B68B3F1407F0BD1FB7A7A6842F039
:10094000505242F48172F9680633DB000B445A605E
:100950000AE0FB7A7A6842F0405242F48172F96808
:100960000633DB000B445A60FB7AFA680633DB007F
:10097000134497F820201A723B685B08013B7B61A7
:10098000FB7A7A69D1B2FA680633DB0013440A466F
:100990005A72FB6893F904301846FFF71FFE00BF38
:1009A0001837BD4680BD00BF3C010020B8000020C4
:1009B00080B584B000AF78600B46FB707B68354A29
:1009C000934204D07B68344A934200D000BE7B68D7
:1009D0001B681B6803F00203022B00D000BEFB78EB
:1009E0007A680633DB0013445B68B3F1FF3F00D144
:1009F00000BE7B6893F904301846FFF707FE7B685A
:100A00001B689B6803F00403FB60FB68002B02D0AB
:100A10007868FFF7A1FE7B681B681A687B681B6813
:100A200022F001021A60FB787A681268796806334E
:100A3000DB000B445B681360FB787A680633DB00ED
:100A400013445A7A7B681B689A61FB787A6806338C
:100A5000DB0013441A7A7B681B685A607B681B684A
:100A60001A687B681B6842F001021A607B681B6889
:100A7000D969FB7801229A407B681B680A43DA61D6
:100A80007B6893F904301846FFF7A8FD00BF1037C4
:100A9000BD4680BD3C010020B800002080B584B078
:100AA00000AF78600B46FB707B681C4A934204D011
:100AB0007B681B4A934200D000BE7B681B681B68A2
:100AC00003F00203022B00D000BE7B6893F90430D0
:100AD0001846FFF79BFD7B681B689B6803F00403C7
:100AE000FB60FB68002B02D07868FFF735FE7B685F
:100AF0001B68D969FB78012202FA03F3DA437B68A9
:100B00001B680A40DA617B6893F904301846FFF7E6
:100B100065FD00BF1037BD4680BD00BF3C01002011
:100B2000B800002080B485B000AF786039607B6881
:100B3000274A934204D07B68264A934200D000BEE5
:100B40007B681B681B6803F00203022B00D000BE09
:100B50007B681B681B6823F47F0323F47F437A6858
:100B6000126843F4807313607B681B68DA6A7B68E1
:100B70001B6842F00C02DA627B681B683A685A61B3
:100B80007B681B689B6803F00103BB6005E07B6822
:100B90001B689B6803F00103BB60BB68002BF6D0A9
:100BA0007B681B689B6803F00203FB6005E07B68C1
:100BB0001B689B6803F00203FB60FB68002BF6D008
:100BC0007B681B681B6918461437BD4680BC70479C
:100BD0003C010020B800002080B58EB000AFF86066
:100BE000B9603B601346FB800023FB8600237B85B6
:100BF000FB68744A934204D0FB68734A934200D066
:100C000000BEFB681B681B6803F00203022B00D0C8
:100C100000BEFA88B7F8403013447B847B8C002BED
:100C200002D10123FB6201E07B8CFB62FB681B6845
:100C3000DA6AFB681B6842F00C02DA62FB681B6828
:100C40009B6803F00403FB61FB69002B02D0F8688A
:100C5000FFF782FDFB681B681A68FB681B6822F0BF
:100C600001021A60FB681B681B6823F47F0222F4F0
:100C70007F42FB6A1B0223F07F4323F0FF03F968E6
:100C8000096813430B60FB681B6808225A60FB6805
:100C90001B681A68FB681B6842F001021A60FB6857
:100CA0001B689B6803F040037B6209E0FB681B68DC
:100CB0001B697B61FB681B689B6803F040037B62D8
:100CC0007B6A002BF2D00023BB8600237B86BA8E82
:100CD000FB889A420DD2BB8EBA6813441A78FB681F
:100CE0001B685A61BB8E0133BB867B8D01337B85CC
:100CF0005FE0BA8E7B8C9A425BD2FB681B68FF2256
:100D00005A61BB8E0133BB867B8D01337B8550E0FE
:100D1000FB681B689B6803F040037B627B6A002BC7
:100D20001BD1FB681B681B697B61FA8EFB889A42AA
:100D30000DD37A8EB7F840309A4205D279697B8E0E
:100D40003A681344CAB21A707B8E01337B86FB8EDD
:100D50000133FB867B8D013B7B85FB681B689B68B1
:100D600003F48073BB61BB69002B22D17B8D032B05
:100D70001FD8BA8EFB889A420DD2BB8EBA68134434
:100D80001A78FB681B685A61BB8E0133BB867B8D6A
:100D900001337B850DE0BA8E7B8C9A4209D2FB68C9
:100DA0001B68FF225A61BB8E0133BB867B8D0133EA
:100DB0007B85FA8E7B8C9A42AAD300BF3837BD461A
:100DC00080BD00BF3C010020B800002080B485B089
:100DD00000AF78607B681B689B6803F00103FB60D1
:100DE000FB6818461437BD4680BC704780B485B098
:100DF00000AF78600023FB600DE07B689A687B6839
:100E00001B6913441A787B681B685A617B681B69ED
:100E10005A1C7B681A617B681B689B6803F48073AB
:100E2000002B05D17B681A697B68DB689A42E4D3A2
:100E30007B681A697B68DB689A421BD30DE07B688C
:100E40005A697B68DB6913441A787B681B685A61AE
:100E50007B68DB695A1C7B68DA617B681B689B686E
:100E600003F48073002B05D17B68DA697B689B698A
:100E70009A42E4D37B685B6A002B1DD07B681A69B9
:100E80007B68DB689A4217D37B68DA697B689B6969
:100E90009A4211D306E07B681B6800225A61FB6806
:100EA0000133FB607B681B689B6803F48073002B35
:100EB00002D1FB681F2BEED900BF1437BD4680BCA2
:100EC000704780B584B000AF78607B6893F880305D
:100ED000022B15D10CE07B681B681B69FB607B68EB
:100EE0005B6F002B04D07B685B6FFA6810469847F5
:100EF0007B681B689B6803F04003002BEBD02FE05E
:100F00007B6893F88030012B23D116E07B681B6847
:100F10001B69FB607B681A6B7B68DB6A9A4207D2AD
:100F2000F9687B689A6A7B681B6B1344CAB21A70B3
:100F30007B681B6B5A1C7B681A637B681B689B6809
:100F400003F04003002BE1D00AE07B681B681B69BB
:100F5000FB607B681B689B6803F04003002BF4D0A8
:100F600000BF1037BD4680BD80B586B000AF786049
:100F70007B681B6820337B617B68984A934204D06E
:100F80007B68974A934200D000BE7B691B6803F0E0
:100F90000203002B4ED07B6893F88030022B15D1D2
:100FA0000CE07B681B681B69FB607B685B6F002B38
:100FB00004D07B685B6FFA68104698477B681B68B3
:100FC0009B6803F04003002BEBD02FE07B6893F885
:100FD0008030012B23D116E07B681B681B69FB6006
:100FE0007B681A6B7B68DB6A9A4207D2F9687B6878
:100FF0009A6A7B681B6B1344CAB21A707B681B6BBE
:101000005A1C7B681A637B681B689B6803F040036B
:10101000002BE1D00AE07B681B681B69FB607B68E2
:101020001B689B6803F04003002BF4D07B681B68AF
:101030000222DA607B691B6803F00103002B11D0E8
:101040007B6893F88030022B05D17B681B687A6837
:10105000926F5A6102E07868FFF7C8FE7B681B68F0
:101060000122DA607B691B6803F01003002B20D09B
:101070007868FFF726FF7B681B6A002B0AD07B6825
:101080001B6A7A68906A7A68126B1146984778688A
:10109000FFF7ACFE7B6801225A627B681B689A6A84
:1010A0007B681B6822F010029A627B681B68102222
:1010B000DA607B691B6803F00403002B0ED07B68A9
:1010C0001B68DA6A7B681B6842F00402DA6278689F
:1010D000FFF742FB7B681B680422DA607B691B68B0
:1010E00003F00803002B2DD07B681B68DA6A7B684D
:1010F0001B6842F00802DA627B6893F88030022BAA
:1011000011D17B681B681B6823F47F0323F47F43A2
:101110007A68126843F4807313607B681B687A688E
:10112000926F5A610AE07B6893F88030012B05D1F9
:101130007B6800221A617868FFF758FE7B681B689D
:101140000822DA607B691B6803F02003002B41D082
:101150007868FFF7B6FE7B681B6B3B617B681B6A98
:10116000002B17D07B6800225A627B6800225A61EC
:101170007B6800229A617B680022DA617B681B68C9
:101180001022DA607B681B689A6A7B681B6842F0F1
:1011900010029A627B6800221A617B681B68DA6A17
:1011A0007B681B6842F00C02DA627868FFF71EFE6B
:1011B0007B6800221A637B68DB6F002B06D07B689C
:1011C000DB6F7A68926A3969104698477B681B68BA
:1011D0002022DA6000BF1837BD4680BD3C010020E8
:1011E000B8000020684620F007018D4689B500AFA1
:1011F0000448FFF7B9FE00BFBD46BDE889408546FB
:10120000704700BF3C010020684620F007018D4672
:1012100089B500AF0448FFF7A7FE00BFBD46BDE893
:1012200089408546704700BFB800002080B483B075
:1012300000AF0346FB71FB7903F01F02074997F9E2
:1012400007305B09012000FA02F2603341F82320E5
:1012500000BF0C37BD4680BC704700BF00E100E016
:1012600080B483B000AF78600B46FB707B6803F0FE
:1012700070427B685B0123F07E4323F01F0313431E
:10128000FA789200134403F100731A4601231360A5
:1012900000BF0C37BD4680BC704780B483B000AF40
:1012A00078600B46FB707B6803F070427B685B01E3
:1012B00023F07E4323F01F031343FA789200134474
:1012C00003F100731A460023136000BF0C37BD46BC
:1012D00080BC704780B483B000AF78600B46FB7071
:1012E0007B6803F070427B685B0123F07E4323F050
:1012F0001F031343FA789200134403F100731B6831
:10130000DBB218460C37BD4680BC704780B584B050
:1013100000AFF860B9601346FB71FB68144A934252
:1013200004D0FB68134A934200D000BEFB791A46F2
:10133000B968F86800F04EF9FB681B683033032188
:101340001846FFF7AAFFFB681B68343302211846D2
:10135000FFF7A3FFFB681B68383300211846FFF72F
:101360009CFFFB68044A5A6200BF1037BD4680BD2F
:1013700000020020C0010020B519000080B489B02F
:1013800000AFF860B9607A600023FB61FB682A4A0D
:10139000934204D0FB68294A934200D000BEBB6848
:1013A000002B00D100BE7B68002B00D100BEFB6883
:1013B000214A934203D0FB68204A934237D1BB684D
:1013C000002B34D07B68002B31D0FB681B681B7D61
:1013D000FB74FB685A7BFB7C1343DAB2FB685A73DD
:1013E000FB7C03F02003002B1ED010237B617B6865
:1013F0000F2B01D87B687B610023BB610CE0BA68CE
:10140000FB691A44FB681B6812781A70FB69013388
:10141000FB61BB690133BB61BA697B699A42EED358
:101420007A68BB69D31A7B607B68002BCDD100BF83
:101430002437BD4680BC704700020020C001002058
:10144000684620F007018D4689B500AF044800F0DA
:10145000ADF900BFBD46BDE889408546704700BF75
:1014600000020020684620F007018D4689B500AFD4
:10147000044800F09BF900BFBD46BDE889408546A1
:10148000704700BFC001002080B588B000AF786011
:1014900039607B684B4A934204D07B684A4A934246
:1014A00000D000BE7B68474A934204D07B68464A1E
:1014B000934240F082807B683A689A6005F044FF6E
:1014C0007B68404A934203D1404B1B68FB6102E0BA
:1014D0003F4B1B68FB61FB69DA003B68B2FBF3F32F
:1014E000BB61BB695B087B617B699B093B613B69B5
:1014F0009B017A69D31AFB603B69DB01BA69D21A96
:10150000FB685B00D31AFA681344FB603B69B3F5D0
:10151000803F00D300BE3B69B3F5803F4DD23B69AD
:10152000012B2AD97B681B680C3307211846FFF76B
:1015300097FE3B691A0A7B681B68D2B21A717B68F6
:101540001B683A69D2B21A707B681B680C3307219A
:101550001846FFF7A2FE7B681B6830330721184648
:10156000FFF77EFEFB68FF2B00D900BE7B681B687F
:10157000FA68D2B283F83C201FE07B681B680C330A
:1015800007211846FFF76CFE3B691A0A7B681B6847
:10159000D2B21A717B681B683A69D2B21A707B6842
:1015A0001B680C3307211846FFF777FE7B681B6822
:1015B000303307211846FFF770FE00BF2037BD46C5
:1015C00080BD00BF00020020C001002008000020F4
:1015D0000C00002080B584B000AFF860B9601346FD
:1015E000FB71FB686D4A934204D0FB686C4A9342DE
:1015F00000D000BEFB68694A934216D1FB684FF0E9
:1016000080421A60FB680A221A71664B9B6C654A1D
:1016100043F0800393640A20FFF708FE614B9B6C44
:10162000604A23F08003936414E0FB685E4A1A600A
:10163000FB680B221A715B4B9B6C5A4A43F4807314
:1016400093640B20FFF7F2FD564B9B6C554A23F435
:1016500080739364FB681B6800221A71FB681B6827
:1016600000221A72FB681B68083301211846FFF735
:10167000F7FDFB681B68083302211846FFF7F0FDF1
:10168000FB681B68083300211846FFF7E9FDFB687B
:101690001B68103304211846FFF7FFFDFB681B6829
:1016A000103305211846FFF7F8FDFB681B6834333B
:1016B00001211846FFF7F1FDFB681B683433002158
:1016C0001846FFF7EAFDFB681B683833012118460E
:1016D000FFF7E3FDFB681B68303305211846FFF771
:1016E000DCFDFB681B68303306211846FFF7D5FD8B
:1016F000FB681B68303307211846FFF7CEFDFB68F7
:101700001B68383303211846FFF7C7FDFB681B68C9
:10171000002283F84420FB681B68002283F84820DD
:10172000FB681B68002283F84C20B968F868FFF753
:10173000ABFEFB681B68FA791A73FB68BA689A609B
:10174000FB68FA791A73FB6800225A61FB68002271
:101750001A61FB6800229A61FB6800221A62FB682A
:1017600000225A62FB680022DA61FB6800229A625A
:10177000FB680022DA62FB6800221A63FB68002221
:101780005A63FB6800229A63FB680022DA63FB68F5
:1017900000225A7300BF1037BD4680BD00020020F2
:1017A000C0010020008003400000014080B584B0EB
:1017B00000AF78607B687D4A934204D07B687C4AA6
:1017C000934200D000BE7B68784A934204D07B6885
:1017D000774A934240F0DA807B681B681B7ADBB261
:1017E00003F00F03FB73FB7B0C2B00F2CD8001A2F7
:1017F00052F823F02918000089190000471800004A
:10180000A118000065180000891900008318000065
:101810008919000089190000891900008919000040
:1018200089190000651800007B689B6A002B00D1B5
:1018300000BE7B689B6A002B00F0AA807B689B6AD5
:1018400078689847A4E07B685B6A002B00D100BEF3
:101850007B685B6A002B00F09D807B685B6A786820
:10186000984797E07B681B6A002B00D100BE7B681D
:101870001B6A002B00F090807B681B6A7868984791
:101880008AE07B68DB69002B00D100BE7B68DB69E6
:10189000002B00F083807B68DB69786898477DE0E7
:1018A0007B681B68283300211846FFF713FD0346A9
:1018B000002B0CD07B68DB6A002B00D100BE7B685C
:1018C000DB6A002B03D07B68DB6A786898477B680B
:1018D0001B68283301211846FFF7FCFC0346002B48
:1018E0000CD07B681B6B002B00D100BE7B681B6B90
:1018F000002B03D07B681B6B786898477B681B685C
:10190000283302211846FFF7E5FC0346002B0CD0D4
:101910007B685B6B002B00D100BE7B685B6B002B90
:1019200003D07B685B6B786898477B681B682833BB
:1019300003211846FFF7CEFC0346002B0CD07B6832
:101940009B6B002B00D100BE7B689B6B002B03D0F0
:101950007B689B6B786898477B681B6828330421F9
:101960001846FFF7B7FC0346002B19D07B68DB6BEA
:10197000002B00D100BE7B68DB6B002B10D07B6896
:10198000DB6B786898470BE000BE0AE000BF08E018
:1019900000BF06E000BF04E000BF02E000BF00E0BF
:1019A00000BF00BF1037BD4680BD00BF0002002051
:1019B000C001002080B586B000AF78607B68354AF2
:1019C000934204D07B68344A934200D000BE7B68C7
:1019D0001B69002B00D100BE7B685B69002B00D126
:1019E00000BE7B682B4A934203D07B682A4A93420D
:1019F0004CD17B681B69002B48D07B685B69002B4E
:101A000044D07B681B681B7DFB737B685A7BFB7B28
:101A10001343DAB27B685A73FB7B03F02003002B7D
:101A200024D010233B617B685A697B689B69D31A79
:101A3000BB60BB680F2B01D8BB683B6100237B6197
:101A400010E07B681A697B689B691A447B681B6895
:101A500012781A707B689B695A1C7B689A617B6953
:101A600001337B617A693B699A42EAD37B689A6960
:101A70007B685B699A4209D17B6800225A617B6866
:101A80001B68043301211846FFF707FC00BF183715
:101A9000BD4680BD00020020C001002080B582B09C
:101AA00000AF0F4B5B68FB710D4B9B68DAB2FB79A3
:101AB0001340FB71FB7903F00203BB71BB79002B70
:101AC00001D000F0E5F8FB7903F001037B717B792D
:101AD000002B01D000F006F800BF0837BD4680BDDE
:101AE0000060014080B584B000AF624B1B78022BD0
:101AF0003DD0052B68D0012B40F0AA805E4B1B889F
:101B00009BB2002B2FD05D4B1A685B4B1B889BB29E
:101B10001946104600F00AFA7860574B1B889BB2B2
:101B20001A467B6893420FD2534B1B889AB27B684C
:101B30009BB2D31A9AB2504B1A80504B1A687B68EA
:101B400013444E4A136090E04B4B00221A804C4BDA
:101B50001B68002B03D0474B02221A7085E0454BCF
:101B600003221A7081E000BE00F0BAF97DE0444B18
:101B70001B68002B24D0434B1A68414B1B68194645
:101B8000104600F0D3F9B8603D4B1B68BA689A4222
:101B90000CD23B4B1A68BB68D31A394A1360394BD5
:101BA0001A68BB681344374A13605EE0364B9B6883
:101BB000354A23F0010393602E4B03221A7054E040
:101BC00000BE00F08DF950E02D4B1B68002B1BD19F
:101BD0002E4B1B68002B14D02C4B1B6829489847B0
:101BE0000246274B1A60264B1B68002B0CD1264B54
:101BF0009B68254A23F0010393601E4B03221A7051
:101C000002E000BE00F06CF91D4B1B68002B09D1EF
:101C10001D4B9B681C4A23F001039360154B032264
:101C20001A7022E0174B1A68154B1B6819461046AC
:101C300000F07CF9F860124B1A68FB68D31A104A5E
:101C40001360104B1A68FB6813440E4A13600CE0D3
:101C50000D4B9B680C4A23F001039360002000F0B9
:101C60001FF9044B00221A7000BF00BF1037BD4699
:101C700080BD00BF61000020440000204000002023
:101C80004C00002048000020006001405C00002063
:101C900080B584B000AF7C4B1B69FB81FB8923F4CA
:101CA000FF4323F07F03BB81FB89FB72774B1B78DB
:101CB000052B00F2D68001A252F823F0D51C0000BB
:101CC0004F1E00004F1E00002D1D00007B1D000058
:101CD000231E0000BB89002B00F0CA80FB7AF12B89
:101CE00006D0FB7A7B717B79184600F04FF9BFE094
:101CF000674B00221A80674B1B68654A128892B2B4
:101D00001344FA7A1A70624B1B889BB201339AB261
:101D10005F4B1A805F4B1B685D4A128892B2134476
:101D200000221A70594B04221A70A1E0BB89002BC3
:101D300000F0A080FB7AFB71574B1B78DBB2FA797D
:101D40009A4215D1524B00221A80524B1B68504ABE
:101D5000128892B21344FA791A704D4B1B889BB2C9
:101D600001339AB24A4B1A80484B04221A7081E020
:101D7000FB79184600F00AF97CE0BB89002B06D0FD
:101D8000FB7A3B723B7A184600F000F974E0414B55
:101D90001A683F4B1B889BB2013B13441B78F12B05
:101DA00016D13C4B1B683A4A128892B21344FA7A15
:101DB0001A70384B1A68364B1B889BB2013B134490
:101DC0001B78184600F0E2F8304B00221A7053E0FE
:101DD0002F4B1B889AB2314B1B889A4210D2FB7A48
:101DE0007B722C4B1B682A4A128892B213447A7A6F
:101DF0001A70274B1B889BB201339AB2244B1A806E
:101E0000234B1B889AB2254B1B889A4234D1204B16
:101E10001B889BB2184600F043F81C4B00221A7036
:101E20002AE0BB89002B0BD11A4B1B680133FA7ACD
:101E30001A70022000F034F8144B00221A701EE0D1
:101E4000FB7ABB72BB7A184600F0A0F817E0BB899A
:101E5000002B13D0FB7ABB71BB79184600F096F8C3
:101E60000CE0002000F01CF8084B00221A7006E07D
:101E700000BF04E000BF02E000BF00E000BF00BF01
:101E80001037BD4680BD00BF0060014061000020EA
:101E900056000020500000203C000020540000208C
:101EA00080B582B000AF0346FB800A4B1B68002B55
:101EB0000CD0084B1B68084A1268F98810469847EE
:101EC000044B00221A60054B00221A7000BF08372D
:101ED000BD4680BD5800002050000020600000205A
:101EE00080B582B000AF0E4B1B78DBB2002B13D055
:101EF0000C4B1B889BB21846FFF7D2FF0A4B1B689E
:101F0000094A43F001031360074B1B6803F0010308
:101F10007B607B68002BF7D100BF0837BD4680BDD2
:101F200060000020560000200060014080B485B0B1
:101F300000AF78603960144B1B68134A23F0040328
:101F400013600023FB60104B5B6803F00103BB6070
:101F50000DE07A68FB6813441A780B4B1A61FB6832
:101F60000133FB60084B5B6803F00103BB60BB6897
:101F7000002B03D0FA683B689A42EAD3FB68184604
:101F80001437BD4680BC70470060014080B582B008
:101F900000AF0346FB71064B1B68002B04D0044BBB
:101FA0001B68FA791046984700BF0837BD4680BDC8
:101FB0006400002080B485B000AF0346FB8000239E
:101FC000FB73FB8803F00303002B02D00023FB7399
:101FD00038E0FB8803F00C03002B02D00123FB73D5
:101FE00030E0FB8803F03003002B02D00223FB73A8
:101FF00028E0FB8803F0C003002B02D00323FB730F
:1020000020E0FB8803F44073002B02D00423FB7311
:1020100018E0FB8803F44063002B02D00523FB7318
:1020200010E0FB8803F44053002B02D00623FB731F
:1020300008E0FB8803F44043002B02D00723FB7326
:1020400000E000BEFB7B18461437BD4680BC7047DD
:10205000684620F007018D4691B586B000AF174B5A
:102060003C1D0FCB84E80F00154B5B68FB82FB8A9D
:102070001846FFF79FFF03467B757B7D5B0007F1EA
:102080001802134433F8143CDB439AB2FB8A134022
:10209000FB827B7D0B4A52F82330002B04D07B7DE2
:1020A000084A52F823309847FB8A002BDFD100BF43
:1020B0001837BD46BDE89140854670473879000025
:1020C000003000406800002080B483B000AF0346B9
:1020D000FB71FB7903F01F02074997F907305B0991
:1020E000012000FA02F2203341F8232000BF0C3710
:1020F000BD4680BC704700BF00E100E080B483B003
:1021000000AF78607B6893F86830002B03D07B6861
:102110009B6901229A6000BF0C37BD4680BC7047A6
:1021200090B585B000AF78600123FB737B68E74A08
:10213000934204D07B68E64A934200D000BE7B689D
:102140005B691B79FB72FB7ADBB2083BD02B00F298
:10215000D78301A252F823F09D240000012900003A
:1021600001290000012900000129000001290000C7
:1021700001290000012900009D2400000129000020
:1021800001290000012900000129000001290000A7
:102190000129000001290000392500000129000063
:1021A0000129000001290000012900000129000087
:1021B00001290000012900001B2500000129000061
:1021C0000129000001290000012900000129000067
:1021D0000129000001290000392500000129000023
:1021E0000129000001290000012900000129000047
:1021F0000129000001290000BF250000012900007D
:102200000129000001290000012900000129000026
:10221000012900000129000011250000012900000A
:102220000129000001290000012900000129000006
:102230000129000001290000DD250000012900001E
:1022400001290000012900000129000001290000E6
:1022500001290000012900002126000001290000B9
:1022600001290000012900000129000001290000C6
:1022700001290000012900003F260000012900007B
:1022800001290000012900000129000001290000A6
:102290000129000001290000732600000129000027
:1022A0000129000001290000012900000129000086
:1022B0000129000001290000032700000129000076
:1022C0000129000001290000012900000129000066
:1022D0000129000001290000FB260000012900005F
:1022E0000129000001290000012900000129000046
:1022F0000129000001290000032700000129000036
:102300000129000001290000012900000129000025
:102310000129000001290000FB260000012900001E
:102320000129000001290000012900000129000005
:1023300001290000012900003927000001290000BF
:1023400001290000012900000129000001290000E5
:102350000129000001290000CF260000012900000A
:1023600001290000012900000129000001290000C5
:10237000012900000129000039270000012900007F
:1023800001290000012900000129000001290000A5
:102390000129000001290000CF26000001290000CA
:1023A0000129000001290000012900000129000085
:1023B00001290000012900008F27000001290000E9
:1023C0000129000001290000012900000129000065
:1023D0000129000001290000512800000129000006
:1023E0000129000001290000012900000129000045
:1023F00001290000012900005128000001290000E6
:102400000129000001290000012900000129000024
:1024100001290000012900005128000001290000C5
:102420000129000001290000012900000129000004
:102430000129000001290000D12800000129000025
:1024400001290000012900000129000001290000E4
:102450000129000001290000D12800000129000005
:1024600001290000012900000129000001290000C4
:1024700001290000012900000129000001290000B4
:1024800001290000012900000129000001290000A4
:102490000129000001290000292800007B689B69B0
:1024A00000225A617B685A687B685B69D2B21A72F3
:1024B0007B689B697A68D26AC3F800217B68DB6A13
:1024C000002B07D17B6800229A620AE040020020BC
:1024D000B40200207B68DB6A012B02D17B680022FA
:1024E0009A637B6893F87130002B03D07B680022DD
:1024F00083F871207B681A7A7B6893F872309A426D
:1025000000F01D827B6893F872207B681A7216E2D5
:102510007B689B6901225A611CE27B689B690122EE
:102520001A617B68022283F83C207B6800221A72C1
:102530007868FFF7E3FD0DE27B689A6A7B685B6A67
:102540009A420CD27B681A6A7B689B6A581C79682D
:1025500088621A447B685B6912781A72FAE17B68B8
:102560001B7A032B07D17B680122DA627B689B69A7
:1025700001225A61EEE17B6800221A727B681B7CA3
:1025800003F001033B737B683A7B83F870203B7B4D
:10259000002B07D17B689B6901221A617868FFF7DD
:1025A000ADFD07E07B6893F911301846FFF78CFD0D
:1025B0000023FB737B68002283F83C20CAE17B6820
:1025C0009B6901221A617B68022283F83C207B68A8
:1025D00000221A727868FFF791FDBBE17B685B6BA4
:1025E000012B04D97B689B6901229A60B2E17B6868
:1025F0005B6B012B04D17B689B6900229A60A9E187
:102600007B689B6901229A607B689B6901221A6141
:102610007B68002283F83C207B6800221A7299E1D3
:102620007B689B6901221A617B68022283F83C2047
:102630007B6800221A727868FFF760FD8AE17B6888
:102640005A697B68196B7B689B6B5C1C7868846338
:102650000B44127AD2B21A707B689A6B7B685B6B00
:10266000013B9A42C0F06D817B689B6900229A60B1
:1026700067E17B685A697B68196B7B689B6B0B44CD
:10268000127AD2B21A707B681B7C03F001033B7391
:102690007B683A7B83F870203B7B002B07D17B68FB
:1026A0009B6901221A617868FFF728FD07E07B68C3
:1026B00093F911301846FFF707FD0023FB737B6881
:1026C00000221A727B68002283F83C2042E17B687A
:1026D0009B6901229A607B6800221A727B68002243
:1026E00083F85C207B6893F87130002B00F02B811D
:1026F0007B689B6901225A6125E17B68012283F88E
:1027000071207B6804221A727B6800229A657B68BC
:102710000022DA607B689B695B69002B07D07B68CD
:102720009B6900225A617B68012283F871207B68D3
:10273000012283F85C200DE17B681B6D002B1AD011
:102740007B689A6D7B685B6D9A4214D27B685B698B
:102750001B7A7B737B681A6D7B689B6D581C79684C
:10276000886513447A7B1A707B68DB681A027B7B6E
:102770001A447B68DA607B689A6D7B685B6D9A426D
:10278000C0F0E3807B689B6900229A60DDE07B6893
:102790001B7A042B31D17B689A6D7B681B6E9A4241
:1027A00003D17B68DA687B68DA647B685B6E002B38
:1027B0001ED07B685B6E7A68116D7A68926D92B2FA
:1027C000786898470346BB73BB7B002B07D17868BA
:1027D000FFF794FC7B689B6901229A6013E07B6899
:1027E0009B6900229A607B68002283F868200AE0D7
:1027F0007B689B6901229A6005E07B680022DA64AD
:102800007868FFF77BFC7B68002283F85C207B689C
:1028100093F87130002B03D07B689B6901225A61C9
:102820007B6800221A7295E07B6800221A727B682E
:102830000022DA647B6893F85C30DBB2012B03D1B1
:102840007B68022283F85C207868FFF757FC81E000
:10285000FB7ADBB2A82B16D17B6805221A727B6843
:102860000022DA607B68012283F85C207B689B6928
:102870005B69002B07D07B689B6900225A617B68EB
:10288000012283F871207B68DA6C7B689B6C9A422A
:1028900004D37B685B69FF221A720BE07B685A6C79
:1028A0007B68DB6C581C7968C8641A447B685B6978
:1028B00012781A727B68DA6C7B689B6C9A4246D3FA
:1028C0007B689B6900229A607B680022DA643EE0A4
:1028D0007B680022DA647B689B6901229A607B68CE
:1028E000002283F85C207B6893F87130002B03D0C2
:1028F0007B689B6901225A617B6800221A7229E079
:102900007B689B6900225A617B6800221A727B688F
:102910000022DA647B6893F83C30DBB2012B03D1F0
:102920007B68022283F83C207B6893F85C30DBB242
:10293000012B0ED17B68022283F85C2009E000BFE6
:1029400008E000BF06E000BF04E000BF02E000BFF7
:1029500000E000BFFB7B002B03D07B689B6900225B
:10296000DA607B685B691B79FB7200BF1437BD4678
:1029700090BD00BF684620F007018D4689B500AFC5
:102980000448FFF7CDFB00BFBD46BDE88940854642
:10299000704700BF40020020684620F007018D46C6
:1029A00089B500AF0448FFF7BBFB00BFBD46BDE8DB
:1029B00089408546704700BFB402002080B485B0CE
:1029C00000AFF860B9607A60FB704D484D4B1A68F3
:1029D000F97813469B001344DB01034403F5E273CB
:1029E00019604949474B1A6813469B0013449B00E2
:1029F0000B440433FA681A604349424B1A68134681
:102A00009B0013449B000B440833BA681A603E498C
:102A10003C4B1A6813469B0013449B000B440C3339
:102A20001B683948374A11681A0C12040B469B0080
:102A30000B449B0003440C331A607B68B3F5803F62
:102A40000FD97B68A3F58033304A1361BB6803F567
:102A500080332E4AD360FB6803F580332B4A9360A2
:102A60001AE02949274B1A6813469B0013449B0020
:102A70000B440C331B687A6892B211462248214AF3
:102A80001268194313469B0013449B0003440C3304
:102A900019601E4B00221A611B491A4B1A68134613
:102AA0009B0013449B000B440C331B681648154ACB
:102AB000126843F4E00113469B0013449B00034457
:102AC0000C3319600E490F4B1A6813469B001344D0
:102AD000DB010B4403F5E07301221A600849094B3E
:102AE0001A6813469B001344DB010B4403F5E6739D
:102AF00000221A6000BF1437BD4680BC704700BF7B
:102B000000002842A0000020004001408800002072
:102B1000684620F007018D4689B500AF354A364B2F
:102B20001B6803F52873012142F823103349324B07
:102B30001A6813469B0013449B000B440C331B681C
:102B40002E482D4A126823F4E00113469B001344DB
:102B50009B0003440C331960274B1B680133264A42
:102B60001360254B1B68042B02D1234B00221A60F3
:102B7000234B1B69002B17D0224B1B68042B03D15E
:102B8000204B00221A6004E01E4B1B6801331D4AD3
:102B900013601B4B98681A4BD968194B1A69184B6C
:102BA0001B7DFFF70BFF1EE01449134B1A681346F9
:102BB0009B0013449B000B440C331B6803F4E0039D
:102BC000002B10D10C4B00221A600E4B00221A6011
:102BD0000B4B01221A700A4B5B68002B03D0084B89
:102BE0005B680120984700BFBD46BDE88940854627
:102BF000704700BF00002842A400002000400140B0
:102C000088000020A0000020684620F007018D46C3
:102C100081B583B000AF384B1B683B603B6803F461
:102C200070633B603B68002B2FD03449344B1A68EB
:102C300013469B001344DB010B4403F502731B682E
:102C4000002B0AD02F4B02221A702E4B5B68002BF0
:102C500003D02C4B5B68022098472849284B1A6800
:102C600013469B001344DB010B4403F503731B68FD
:102C7000002B0AD0234B03221A70224B5B68002BD7
:102C800003D0204B5B68032098471B4B1B683B60BD
:102C90003B6803F470433B603B68002B0AD0194B40
:102CA00004221A70174B5B68002B03D0154B5B682E
:102CB0000420984700237B6014E010497A6813468B
:102CC0009B001344DB010B4403F5E47301221A60FB
:102CD0000A4A7B6803F52873012142F823107B68B8
:102CE00001337B607B68032BE7D900BF0C37BD46FF
:102CF000BDE8814085467047004001400000284201
:102D0000A40000208800002080B483B000AF0346F8
:102D1000FB71FB7903F01F02074997F907305B0944
:102D2000012000FA02F2203341F8232000BF0C37C3
:102D3000BD4680BC704700BF00E100E080B483B0B6
:102D400000AF0346FB71FB7903F01F02074997F9B7
:102D500007305B09012000FA02F2603341F82320BA
:102D600000BF0C37BD4680BC704700BF00E100E0EB
:102D700080B582B000AF1A4B9B6C194A43F48013A4
:102D80009364174B9B6C164A43F0F07393640023D3
:102D90007B6012E0134A7B68134493F900301846B5
:102DA000FFF7B2FF0F4A7B68134493F900301846CF
:102DB000FFF7C4FF7B6801337B607B681F2BE9D979
:102DC000074B9B6C064A23F0F0739364044B9B6C97
:102DD000034A23F48013936400BF0837BD4680BDC7
:102DE00000800340C879000080B485B000AF03467E
:102DF0003960FB71FB79FB60FB681F2B00D900BEBB
:102E0000FB681F2B05D8054AFB6852F823303A6847
:102E10001A6000BF1437BD4680BC70474879000077
:102E200080B485B000AF03460A46FB711346BB7100
:102E3000FB79FB60FB681F2B00D900BEFB681F2BD2
:102E400018D80F4BD3F88830BB600122FB6802FA18
:102E500003F3DB43BA681340BB60BB7903F00102A4
:102E6000FB6802FA03F3BA681343BB60044ABB6809
:102E7000C2F8883000BF1437BD4680BC704700BF21
:102E80000030014080B586B000AFF860B9601146EF
:102E90001A460B46FB711346BB71BB797B61FDF78C
:102EA0004DFB38616C220021F86804F014FDFB68CA
:102EB000BA681A60FB795A00FB685A60FB681868A8
:102EC000002340220621FDF774FBFB6818680123EC
:102ED00040220621FDF76DFBFB6818687B699B08A3
:102EE00003F0010380220721FDF763FBFB681868EC
:102EF0007B695B0803F0010302220121FDF759FB06
:102F0000FB6818687B6903F0010301220021FDF7CB
:102F100050FBFB681B6803F10C02FB685B681946F9
:102F20001046FDF742FBFB681B6803F11C02FB68BF
:102F30005B6819461046FDF738FB3869FDF702FB60
:102F400000BF1837BD4680BD80B586B000AFF860C1
:102F50007A601A460B46FB7213463B81FDF7EEFA88
:102F60007861FB681B7B002B02D1FB6801221A737E
:102F7000FB68012283F86A20FB7A5A00FB689A609A
:102F8000FB6800225A62FB687A689A613A89FB689A
:102F9000DA61FB6800221A62FB68012283F83420A0
:102FA000FB6897F820201A75FB6893F85430DBB261
:102FB000012B04D1FB68012283F8692006E0FB683D
:102FC0001868012320220521FDF7F3FAFB6893F826
:102FD0006830012B06D1FB68186800230822032102
:102FE000FDF7E7FAFB681B6804331846FDF7DFFAC4
:102FF0000346FB74FB7CDBB2FB74F86800F0FCFD5D
:103000007869FDF79FFA00BF1837BD4680BD80B5CF
:1030100086B000AFF8607A601A460B46FB72134622
:103020003B813B89002B00D100BE7B68002B00D187
:1030300000BEBB8C002B00D100BE3B6A002B00D130
:1030400000BEFB68022283F83420BB8C002B60D0CA
:103050003B89002B5DD0FDF771FA7861FB681B7B23
:10306000002B02D1FB6803221A73FB68032283F84A
:103070006A20FB7A5A00FB689A60FB6800225A6259
:10308000FB687A689A613A89FB68DA61FB6800221A
:103090001A62FB683A6A9A62BA8CFB68DA62FB6869
:1030A00000221A63FB68012283F83420FB6897F83A
:1030B00028201A75FB6893F85430DBB2012B04D139
:1030C000FB68012283F8692006E0FB681868012389
:1030D00020220521FDF76DFAFB6893F86830012B7B
:1030E00006D1FB681868002308220321FDF761FA66
:1030F000FB681B6804331846FDF759FA0346FB7456
:10310000FB7CDBB2FB74F86800F076FD7869FDF7B4
:1031100019FA00BF1837BD4680BD000080B586B0E3
:1031200000AF78603960FDF709FA38617B683A686A
:103130009A633869FDF706FA0023FB827B6893F8EF
:103140003430FB73FB8A0133FB82FB8AB3F57A7F51
:1031500029D97B681B68184A934204D1174B052272
:1031600083F864201CE07B681B68154A934204D1F5
:10317000124B062283F8642012E07B681B68114A18
:10318000934204D10D4B072283F8642008E07B684A
:103190001B680D4A934203D1084B082283F8642030
:1031A0000023FB8202E0FB7B012BC7D0FB7B184690
:1031B0001837BD4680BD00BF00800050D0030020FE
:1031C0000090005000A0005000B0005080B584B0C6
:1031D00000AF786039607B689B6B002B1FD07B68E9
:1031E0009B6B3A689A4206D27B689A6B3B68D21A0C
:1031F0007B689A6313E0FDF7A1F9F8607B6803220E
:1032000083F834207B6800221A737B68002283F8DD
:103210006920F868FDF796F97B6800229A6300BF81
:103220001037BD4680BD80B582B000AF78607B6846
:1032300093F86030002B06D07B68186801230422C5
:103240000221FDF7B6F900BF0837BD4680BD00007A
:10325000B0B584B000AF78600123FB737B681B6856
:1032600004331846FDF7A3F90346FB72FB7ADBB281
:10327000083BD82B00F2498401A252F823F000BF8A
:10328000E53500000B3B00000B3B00000B3B000052
:103290000B3B00000B3B00000B3B00000B3B000016
:1032A000E53500000B3B00000B3B00000B3B000032
:1032B0000B3B00000B3B00000B3B00000B3B0000F6
:1032C000933600000B3B00000B3B00000B3B000063
:1032D0000B3B00000B3B00000B3B00000B3B0000D6
:1032E0006F3600000B3B00000B3B00000B3B000067
:1032F0000B3B00000B3B00000B3B00000B3B0000B6
:10330000933600000B3B00000B3B00000B3B000022
:103310000B3B00000B3B00000B3B00000B3B000095
:10332000293700000B3B00000B3B00000B3B00006B
:103330000B3B00000B3B00000B3B00000B3B000075
:103340005F3600000B3B00000B3B00000B3B000016
:103350000B3B00000B3B00000B3B00000B3B000055
:103360004D3700000B3B00000B3B00000B3B000007
:103370000B3B00000B3B00000B3B00000B3B000035
:10338000A93700000B3B00000B3B00000B3B00008B
:103390000B3B00000B3B00000B3B00000B3B000015
:1033A000CD3700000B3B00000B3B00000B3B000047
:1033B0000B3B00000B3B00000B3B00000B3B0000F5
:1033C0000F3800000B3B00000B3B00000B3B0000E4
:1033D0000B3B00000B3B00000B3B00000B3B0000D5
:1033E000B33800000B3B00000B3B00000B3B000020
:1033F0000B3B00000B3B00000B3B00000B3B0000B5
:10340000AB3800000B3B00000B3B00000B3B000007
:103410000B3B00000B3B00000B3B00000B3B000094
:10342000B33800000B3B00000B3B00000B3B0000DF
:103430000B3B00000B3B00000B3B00000B3B000074
:10344000AB3800000B3B00000B3B00000B3B0000C7
:103450000B3B00000B3B00000B3B00000B3B000054
:10346000F93800000B3B00000B3B00000B3B000059
:103470000B3B00000B3B00000B3B00000B3B000034
:10348000733800000B3B00000B3B00000B3B0000BF
:103490000B3B00000B3B00000B3B00000B3B000014
:1034A000F93800000B3B00000B3B00000B3B000019
:1034B0000B3B00000B3B00000B3B00000B3B0000F4
:1034C000733800000B3B00000B3B00000B3B00007F
:1034D0000B3B00000B3B00000B3B00000B3B0000D4
:1034E0005D3900000B3B00000B3B00000B3B000074
:1034F0000B3B00000B3B00000B3B00000B3B0000B4
:10350000293A00000B3B00000B3B00000B3B000086
:103510000B3B00000B3B00000B3B00000B3B000093
:10352000293A00000B3B00000B3B00000B3B000066
:103530000B3B00000B3B00000B3B00000B3B000073
:10354000293A00000B3B00000B3B00000B3B000046
:103550000B3B00000B3B00000B3B00000B3B000053
:10356000CF3A00000B3B00000B3B00000B3B000080
:103570000B3B00000B3B00000B3B00000B3B000033
:10358000CF3A00000B3B00000B3B00000B3B000060
:103590000B3B00000B3B00000B3B00000B3B000013
:1035A0000B3B00000B3B00000B3B00000B3B000003
:1035B0000B3B00000B3B00000B3B00000B3B0000F3
:1035C000013A00000B3B00000B3B00000B3B0000EE
:1035D0000B3B00000B3B00000B3B00000B3B0000D3
:1035E0004F3B00007B681868002320220521FCF770
:1035F000E0FF7B681B6803F108027B689B68194643
:103600001046FCF7D2FF7B681B6803F108007B685B
:103610005B6A01220021FCF7CCFF7B685B6A002B10
:1036200003D17B6800221A6202E07B6800221A63E1
:103630007B6893F86930002B03D07B68002283F805
:1036400069207B681A7B7B6893F86A309A4200F0A5
:1036500080827B6893F86A207B681A7379E27B68C2
:103660001868012320220521FCF7A3FF7CE27B6878
:103670001868012310220421FCF79BFF7B680222BB
:1036800083F834207B6800221A737868FFF7CBFD3B
:103690006AE27B681A6A7B68DB699A4211D27B68AE
:1036A0001B6803F108047B689A697B681B6A581CD5
:1036B0007968086213441B7819462046FCF775FFA9
:1036C00052E27B681B7B032B0AD17B6801225A6282
:1036D0007B681868012320220521FCF76AFF43E27A
:1036E0007B6800221A737B681B7D03F001033B7328
:1036F0007B683A7B83F868203B7B002B0AD17B6890
:103700001868012310220421FCF753FF7868FFF7A3
:103710008AFD04E0786800F09BFA0023FB737B6865
:10372000002283F834201FE27B68186801231022EE
:103730000421FCF73EFF7B68022283F834207B687B
:1037400000221A737868FFF76EFD0DE27B68DB6A72
:10375000012B07D97B681868012304220221FCF79A
:1037600028FF01E27B68DB6A012B07D17B681868C0
:10377000002304220221FCF71CFFF5E17B68186896
:10378000012304220221FCF714FF7B68186801233F
:1037900010220421FCF70DFF7B68002283F83420FF
:1037A0007B6800221A73DFE17B681868012310220E
:1037B0000421FCF7FEFE7B68022283F834207B683C
:1037C00000221A737868FFF72EFDCDE17B681B6835
:1037D00003F108057B689A6A7B681B6B581C796843
:1037E0000863D4182846FCF7E2FE034623707B6882
:1037F0001A6B7B68DB6A013B9A42C0F0AC817B6844
:103800001868002304220221FCF7D3FEA3E17B68A1
:103810001B6803F108017B689A6A7B681B6BD418EC
:103820000846FCF7C4FE034623707B681B7D03F04B
:1038300001033B737B683A7B83F868203B7B002B5A
:103840000AD17B681868012310220421FCF7B1FE1D
:103850007868FFF7E8FC04E0786800F0F9F90023E5
:10386000FB737B6800221A737B68002283F8342084
:103870007AE17B681868012304220221FCF799FE93
:103880007B6800221A737B68002283F854207B68CF
:1038900093F86930002B00F060817B681868012381
:1038A00020220521FCF785FE57E17B68012283F881
:1038B00069207B6804221A737B6800221A657B6882
:1038C00000221A617B681B68202205211846FCF73C
:1038D0007EFE0346002B0AD07B6818680023202256
:1038E0000521FCF766FE7B68012283F869207B686E
:1038F000012283F8542037E17B689B6C002B1ED09B
:103900007B681A6D7B68DB6C9A4218D27B681B68F7
:1039100008331846FCF74BFE03467B737B689A6CB2
:103920007B681B6D581C7968086513447A7B1A7094
:103930007B681B691A027B7B1A447B681A617B686F
:103940001A6D7B68DB6C9A42C0F009817B6818684D
:10395000002304220221FCF72CFE00E17B681B7B84
:10396000042B33D17B681A6D7B689B6D9A4203D11F
:103970007B681A697B685A647B68DB6D002B1DD0FD
:103980007B68DB6D7A68916C7A68126D92B27868A8
:1039900098470346BB73BB7B002B03D17868FFF7C6
:1039A00042FC19E07B681868002304220221FCF71E
:1039B00000FE7B68002283F860200DE07B681868B9
:1039C000012304220221FCF7F4FD05E07B680022BC
:1039D0005A647868FFF727FC7B68002283F854203C
:1039E0007B6893F86930002B06D07B681868012348
:1039F00020220521FCF7DDFD7B6800221A73B3E06D
:103A00007B6800221A737B6800225A647B6893F8F3
:103A10005430DBB2012B03D17B68022283F854209F
:103A20007868FFF700FC9FE0FB7ADBB2A82B1ED181
:103A30007B6805221A737B6800221A617B68012269
:103A400083F854207B681B68202205211846FCF768
:103A5000BEFD0346002B0AD07B6818680023202295
:103A60000521FCF7A6FD7B68012283F869207B68AD
:103A70005A6C7B681B6C9A4207D37B681B680833BF
:103A8000FF211846FCF791FD10E07B681B6803F1ED
:103A900008047B68DA6B7B685B6C581C7968486447
:103AA00013441B7819462046FCF77FFD7B685A6C4F
:103AB0007B681B6C9A4254D37B68186800230422ED
:103AC0000221FCF776FD7B6800225A6449E07B689E
:103AD00000225A647B681868012304220221FCF743
:103AE00068FD7B68002283F854207B6893F8693076
:103AF000002B06D07B681868012320220521FCF7E3
:103B000058FD7B6800221A732EE07B68186800233A
:103B100020220521FCF74DFD7B6800221A737B688B
:103B200000225A647B6893F83430DBB2012B03D156
:103B30007B68022283F834207B6893F85430DBB230
:103B4000012B10D17B68022283F854200BE000BFC8
:103B50000AE000BF08E000BF06E000BF04E000BFCD
:103B600002E000BF00E000BFFB7B002B06D07B68BB
:103B70001868002308220321FCF71BFD7B681B68E3
:103B800004331846FCF713FD0346FB7200BF1037E1
:103B9000BD46B0BD80B483B000AF0346FB71FB7976
:103BA00003F01F02064997F907305B09012000FA6C
:103BB00002F241F8232000BF0C37BD4680BC70479D
:103BC00000E100E080B483B000AF0346FB71FB79F5
:103BD00003F01F02074997F907305B09012000FA3B
:103BE00002F2203341F8232000BF0C37BD4680BCD1
:103BF000704700BF00E100E080B582B000AF7860A0
:103C00007B680F4A934202D12220FFF7C3FF7B68F3
:103C10000C4A934202D12320FFF7BCFF7B680A4A7B
:103C2000934202D12420FFF7B5FF7B68074A9342F5
:103C300002D12520FFF7AEFF00BF0837BD4680BD8B
:103C4000A00D0020FC0D0020440D002010060020D7
:103C500080B582B000AF78607B680F4A934202D192
:103C60002220FFF7AFFF7B680C4A934202D123204A
:103C7000FFF7A8FF7B680A4A934202D12420FFF78E
:103C8000A1FF7B68074A934202D12520FFF79AFFE4
:103C900000BF0837BD4680BDA00D0020FC0D0020F0
:103CA000440D00201006002080B483B000AF78607F
:103CB0007B681B781B021AB27B6801331B781BB22E
:103CC00013431BB29BB218460C37BD4680BC7047ED
:103CD00080B483B000AF78607B681B781A067B687D
:103CE00001331B781B041A437B6802331B781B02C9
:103CF00013437A6803321278134318460C37BD46D3
:103D000080BC70472DE9900887B000AF78607B6871
:103D100006331B78DBB24FF00004C7E904340123FB
:103D2000FB7321E0D7E904124FF000034FF00004C9
:103D3000140244EA11640B02C7E90434FB7BC3F1AB
:103D400006031A467B6813441B785FFA83FB4FF027
:103D5000000CD7E904124BEA01034CEA0204C7E95C
:103D60000434FB7B0133FB73FB7B062BDAD9D7E9E9
:103D70000434184621461C37BD46BDE890087047FC
:103D800080B483B000AF0346FB80FB881B021AB2ED
:103D9000FB881B0A9BB21BB213431BB29BB2184693
:103DA0000C37BD4680BC704780B582B000AF7860EC
:103DB0000B46FB701346BB70FA787B681344BA78E5
:103DC00011461846FCF7F1FBFA787B681344184655
:103DD000FCF7EDFB034618460837BD4680BD80B5AD
:103DE00084B000AF786002F011FCF86000BF02F010
:103DF0000DFC0246FB68D21A7B684FF47A7101FB16
:103E000003F39A42F3D300BF1037BD4680BD80B59F
:103E100084B000AF786002F0F9FBF86000BF02F0F8
:103E2000F5FB0246FB68D31A7A689A42F7D800BFBE
:103E30001037BD4680BD80B500AF00F003F8002309
:103E4000184680BD98B500AF00F030F80021154845
:103E5000FCF7ABFB02F064FB03460C46124A5360CE
:103E6000946002F05DFB03460C460F4A5362946275
:103E700002F056FB03460C460B4A5363946302F070
:103E80004FFB03460C46084A5361946100F0CEFB99
:103E900000F07EFD00F036F802F0DCFB00F01EFBC7
:103EA000F6E700BF00C00050D003002080B582B00C
:103EB00000AF134B052283F86B2003221C214FF027
:103EC000A040FFF771FF03467B6000F097FD01F013
:103ED000DBF800F0C5FF0A4BD3F86E300133084A17
:103EE000C2F86E3002F01EFD03F0DAF801F06EFA4F
:103EF00002F042FC01F098FD00BF0837BD4680BDCE
:103F0000D00300202DE9904882B002AF02F008FBF8
:103F100003460C462F4AD36114622E4BD9691A6AA4
:103F20002C48D0F814B0D0F818C00B461446B3EBA8
:103F30000B0364EB0C044FF47A714FF00002A242C1
:103F400008BF994242D2234BD3F81CB0D3F820C00B
:103F500020484369846959466246C91A62EB0402E3
:103F60001C48436C846C944208BF8B422ED200F0F4
:103F700043FA03F0B9F801F03BFA01F065FB154B89
:103F8000D3F867309AB29C230093134BC0211020C2
:103F900003F00EF99A21104803F04CF900F072FB7F
:103FA00000F01CF801F028F802F000FA094BD3F8F1
:103FB00067300133074AC2F8673000F097FF02F01C
:103FC000AFFA03460C46034A5361946100BFBD46F5
:103FD000BDE89088D00300202803002090B488B06A
:103FE00000AF0023FB77FB7F5A1CFA771A46634B1E
:103FF0001978634B9954FB7F5A1CFA771A465F4B2A
:1040000059785F4B99545D4B5B889BB21B0A99B200
:10401000FB7F5A1CFA771A46C9B2594B9954574B31
:104020005B8899B2FB7F5A1CFA771A46C9B2544B87
:104030009954524B9B889BB21B0A99B2FB7F5A1C26
:10404000FA771A46C9B24E4B99544C4B9B8899B299
:10405000FB7F5A1CFA771A46C9B2494B9954FB7F29
:104060005A1CFA771A46454B9979454B9954434B5C
:10407000D3F80730190EFB7F5A1CFA771A46C9B2DB
:104080003F4B99543D4BD3F80730190CFB7F5A1C1A
:10409000FA771A46C9B23A4B9954384BD3F80730DD
:1040A000190AFB7F5A1CFA771A46C9B2344B995445
:1040B000324BD3F80710FB7F5A1CFA771A46C9B265
:1040C0002F4B99540023BB610DE0FB7F5A1CFA77FC
:1040D00019462A4ABB6913440B331A78284B5A54A1
:1040E000BB690133BB61BB69022BEED900237B6145
:1040F0003DE0224A7B6902339B001344D3F806302B
:10410000190EFB7F5A1CFA771A46C9B21C4B9954F8
:104110001A4A7B6902339B001344D3F80630190C0A
:10412000FB7F5A1CFA771A46C9B2154B9954134AA9
:104130007B6902339B001344D3F80630190AFB7FD6
:104140005A1CFA771A46C9B20D4B99540B4A7B692F
:1041500002339B001344D3F80610FB7F5A1CFA77F6
:104160001A46C9B2064B99547B6901337B617B695E
:10417000022BBED900233B61B6E000BF280300201C
:10418000700400209A4A3B690333DB001A44D2F8DA
:104190000230D2F806404FF000014FF00002210E2D
:1041A0000022FB7F581CF8771846CAB2914B1A546C
:1041B0008F4A3B690333DB001A44D2F80230D2F84D
:1041C00006404FF000014FF00002210C0022FB7F5F
:1041D000581CF8771846CAB2864B1A54844A3B6971
:1041E0000333DB001A44D2F80230D2F806404FF015
:1041F00000014FF00002210A0022FB7F581CF877D3
:104200001846CAB27B4B1A54794A3B690333DB0028
:104210001A44D2F80230D2F806404FF000014FF0B5
:10422000000221000022FB7F581CF8771846CAB212
:10423000704B1A546E4A3B690333DB001A44D2F8C0
:104240000230D2F806404FF000014FF00002190E84
:1042500041EA0421220EFB7F581CF8771846CAB2A7
:10426000644B1A54624A3B690333DB001A44D2F8A8
:104270000230D2F806404FF000014FF00002190C56
:1042800041EA0441220CFB7F581CF8771846CAB259
:10429000584B1A54564A3B690333DB001A44D2F890
:1042A0000230D2F806404FF000014FF00002190A28
:1042B00041EA0461220AFB7F581CF8771846CAB20B
:1042C0004C4B1A544A4A3B690333DB001A44D2F878
:1042D0000230D2F80640FA7F511CF977D9B2454B2B
:1042E00099543B6901333B613B69012B7FF64AAF2F
:1042F0000023FB6020E03E4AFB6814335B0013445C
:104300005B889BB21B0A99B2FB7F5A1CFA771A464C
:10431000C9B2384B9954364AFB6814335B001344D6
:104320005B8899B2FB7F5A1CFA771A46C9B2314BA7
:104330009954FB680133FB60FB68212BDBD9002318
:10434000BB6020E02A4ABB6834335B001344DB883F
:104350009BB21B0A99B2FB7F5A1CFA771A46C9B264
:10436000244B9954224ABB6834335B001344DB88E6
:1043700099B2FB7F5A1CFA771A46C9B21D4B995461
:10438000BB680133BB60BB68032BDBD900237B60B8
:104390000DE0FB7F5A1CFA771946154A7B681344D7
:1043A00076331A78134B5A547B6801337B607B68F1
:1043B000232BEED90E4BB3F89A309BB21B0A99B25D
:1043C000FB7F5A1CFA771A46C9B20A4B9954084B1C
:1043D000B3F89A3099B2FB7F5A1CFA771A46C9B2E1
:1043E000044B995400BF2037BD4690BC704700BFB6
:1043F000280300207004002090B585B000AF002392
:10440000FB60FB685A1CFA60324A92F86510324A27
:1044100013440A46DA72FB685A1CFA602D4A92F875
:1044200064102D4A13440A46DA72FB685A1CFA607B
:10443000284A92F88B10284A13440A46DA7200235D
:10444000BB6002F0EFF80246224B1A60BB685A1CB0
:10445000BA60204A1268204902339B000B44C3F81B
:104460000620BB685A1CBA601A4AD2F86E201A4954
:1044700002339B000B44C3F80620BB685A1CBA6089
:10448000144AD2F88C20144902339B000B44C3F821
:10449000062000237B607A68531C7B600D494B6DBE
:1044A0008C6D0D490332D2000A440232136054600D
:1044B0007A68531C7B600749CB6C0C6D064903324C
:1044C000D2000A4402321360546000BF1437BD4664
:1044D00090BD00BFD0030020280300202DE99048A4
:1044E00000AF02F01DF803460C464F4AD362146336
:1044F0004D4BD96A1A6B4C48D0F824B0D0F828C07C
:104500000B461446B3EB0B0364EB0C044FF47A71C7
:104510004FF00002A24208BF994280F08180424BD6
:10452000D3F82CB0D3F830C03F48436A846A594668
:104530006246C91A62EB04023B48C36C046D9442A4
:1045400008BF8B4229D2384B93F86530032B09D032
:10455000354B93F86530012B04D0334B93F865301D
:10456000002B0DD100F06EF82F4B022283F865204E
:1045700001F0D6FF03460C462B4A536294620CE0CE
:1045800000F054F8284B032283F8652001F0C8FF9F
:1045900003460C46244A5362946201F0C1FF03466D
:1045A0000C46214AD36314641F4BD3F83CB0D3F8B4
:1045B00040C01D48436B846B59466246C91A62EB82
:1045C00004021948436D846D944208BF8B4227D280
:1045D000154B93F86630002B11D100F03FF8124BC9
:1045E000012283F86520104B012283F8662001F038
:1045F00097FF03460C460C4A5363946310E000F0A7
:1046000039F8094B002283F86520074B002283F814
:10461000662001F085FF03460C46034A536394630A
:1046200000BFBDE8908800BFD003002080B500AF78
:1046300001213A2002F036FA0021042002F032FA79
:1046400000BF80BD80B500AF01213C2002F02AFAF6
:104650000021022002F026FA00BF80BD80B500AF25
:104660000021362002F01EFA0121082002F01AFA79
:1046700000BF80BD80B500AF00213E2002F012FADD
:1046800000BF80BD80B5A8B000AF03224FF4E13178
:10469000B948FCF73BFEB94B1B783B75B74B5B78D1
:1046A0007B75B64B5B889BB23B82B44B9B889BB2BD
:1046B0007B82B24B9B793B73B04BD3F80730BB6026
:1046C000AE4BB3F89A309BB2BB800023C7F89C3046
:1046D00014E0AA4AD7F89C3014335B0013445B887B
:1046E0009AB2D7F89C305B0007F1A0010B4423F885
:1046F000302CD7F89C300133C7F89C30D7F89C3069
:10470000072BE6DD0023C7F8983015E0D7F898307E
:1047100008339A4A14335B0013445B889AB2D7F883
:1047200098305B0007F1A0010B4423F8402CD7F828
:1047300098300133C7F89830D7F89830072BE5DD6B
:104740000023C7F8943015E0D7F8943010338B4A23
:1047500014335B0013445B889AB2D7F894305B0043
:1047600007F1A0010B4423F8502CD7F89430013303
:10477000C7F89430D7F89430072BE5DD0023C7F84D
:10478000903015E0D7F8903018337C4A14335B0032
:1047900013445B889AB2D7F890305B0007F1A00110
:1047A0000B4423F8602CD7F890300133C7F89030D1
:1047B000D7F89030072BE5DD0023C7F88C3015E0E3
:1047C000D7F88C3020336D4A14335B0013445B8878
:1047D0009AB2D7F88C305B0007F1A0010B4423F8A4
:1047E000642CD7F88C300133C7F88C30D7F88C3074
:1047F000012BE5DD0023C7F8883011E05F4AD7F8C8
:10480000883013447633197807F12C02D7F88830B2
:1048100013440A461A70D7F888300133C7F8883035
:10482000D7F888300F2BE9DD0023C7F8843012E079
:10483000D7F884301033514A134493F8761007F1B7
:104840001C02D7F8843013440A461A70D7F8843013
:104850000133C7F88430D7F884300F2BE8DD00230C
:10486000C7F8803012E0D7F880302033434A134431
:1048700093F8761007F11802D7F8803013440A46EF
:104880001A70D7F880300133C7F88030D7F88030FD
:10489000032BE8DD07F11403022219463648FCF722
:1048A0006DFD07F11003042219463348FCF766FD3D
:1048B00007F10C03012219462F48FCF75FFD07F1B1
:1048C0000803042219462C48FCF758FD03222C4902
:1048D0002948FCF753FD0C222A492748FCF74EFDD6
:1048E000102229492448FCF749FD07F170031022E2
:1048F00019462148FCF742FD07F1600310221946D2
:104900001D48FCF73BFD07F15003102219461A48D9
:10491000FCF734FD07F14003102219461648FCF756
:104920002DFD07F13C03042219461348FCF726FD30
:10493000082216491048FCF721FD07F12C0310222C
:1049400019460D48FCF71AFD07F11C031022194601
:104950000948FCF713FD07F118030422194606481D
:10496000FCF70CFD3B1D022219460348FCF706FD2F
:1049700000BFA037BD4680BD0002002028030020F4
:10498000330300203603002042030020960300205A
:104990002DE9904800AF01F0C3FD03460C46164ACE
:1049A000D3601461144BD3F80CB0D3F810C0124884
:1049B0004368846859466246C91A62EB04020E488D
:1049C000C36D046E944208BF8B4211D201210920AD
:1049D000FEF726FA0A20FFF71AFA00210920FEF74F
:1049E0001FFA01F09DFD03460C46034A5360946094
:1049F00000BFBDE8908800BFD003002080B584B020
:104A000002AF1B48FBF736FE0823009302234FF04A
:104A1000407200211648FBF733FFFF23FB7100F0C3
:104A2000AFF80346FB71FB7903F06003002B0FD056
:104A30003023BB7100210E48FBF7BAFFB81D0023DD
:104A40000022012100F058F800210948FCF726F85F
:104A5000084B002283F86C20002262F07F0283F86A
:104A60006D206420FFF7BBF900BF0837BD4680BD4D
:104A70003C010020D003002080B582B000AF0023AD
:104A80007B60FF23FB7000F07BF80346FB70FB7834
:104A900003F00103FB707B6801337B60FB78012B23
:104AA00007D1064BB3F86C309BB21A467B68934231
:104AB000E9D37B6818460837BD4680BDD003002087
:104AC00080B584B002AF0346FB7100210948FBF7B3
:104AD0006FFFF91D00230093002301220548FCF716
:104AE0007BF800210348FBF7D9FF00BF0837BD461C
:104AF00080BD00BF3C01002080B588B002AFF860E7
:104B00007A601A460B46FB7213463B813B89002BA9
:104B10001AD10620FFF7D4FF00211848FBF748FF01
:104B2000FB7A9AB2002300930023F9681348FCF73C
:104B300053F800211148FBF7B1FFFFF79DFF7861A3
:104B40000420FFF7BDFF13E000210C48FBF730FF06
:104B5000FB7A9AB23B8900937B68F9680748FCF7B7
:104B60003BF800210548FBF799FFFFF785FF7861C7
:104B70007B6918461837BD4680BD00BF3C01002048
:104B800080B584B002AF00210C48FBF711FFFF2372
:104B9000FB710523BB71FA1DB91D01230093134658
:104BA00001220648FCF718F800210448FBF776FFBD
:104BB000FB7918460837BD4680BD00BF3C01002088
:104BC00080B586B000AF03463960FB71FB793B735B
:104BD0003B681B0CDBB27B733B681B0ADBB2BB730D
:104BE0003B68DBB2FB733B68B3F1807F09D307F10D
:104BF0000C00002300220121FFF77EFF38613B6992
:104C000008E007F10C00002300220421FFF774FFE5
:104C100078617B6918461837BD4680BD80B58AB07B
:104C200002AFF860B9601346FB8003233B75FB6855
:104C30001B0CDBB27B75FB681B0ADBB2BB75FB6828
:104C4000DBB2FB7500233B7600237B760023FB6100
:104C5000FFF712FFF86100210B48FBF7A9FE07F1EF
:104C60001401FB880093BB6804220748FBF7B4FFDC
:104C700000210548FBF712FFFFF7FEFEF861FB6914
:104C800018462037BD4680BD3C01002090B5ADF5EB
:104C90000B7D02AF07F10C04206007F108000160F2
:104CA00011463A461360BB1D0A461A800023A7F836
:104CB0001A32BB1D1A88B7F830321344A7F81832DD
:104CC000BB1D1A8807F1080307F11400196802F0E8
:104CD000F7FDBB1D1B8807F11402D018B7F830226E
:104CE0003B46196802F0ECFDB7F8182207F11401F1
:104CF0000023009300231248FBF76EFF0023C7F840
:104D00001C3204E0D7F81C320133C7F81C3207F11B
:104D10000C031868FCF75AF80346002B08D1094B1E
:104D2000B3F86C309BB21A46D7F81C329342E9D3E1
:104D3000D7F81C32184607F50977BD4690BD00BF6D
:104D40003C010020D003002080B58CB002AFF86099
:104D5000B9607A6000233B627B68FB61FB68BB61E2
:104D600042E00620FFF7ACFE00212448FBF720FEBE
:104D7000BB69DBB2C3F58073FB617A683B6AD31A07
:104D80007B617A69FB699A4201D27B69FB610223EC
:104D90003B74BB691B0CDBB27B74BB691B0ADBB2C7
:104DA000BB74BB69DBB2FB74BA683B6A1A44FB692B
:104DB0009BB207F110010093134604220F48FFF73E
:104DC00065FF7862FFF758FE7862BA69FB691344A1
:104DD000BB613A6AFB6913443B6200210748FBF759
:104DE0005DFE0420FFF76CFE3A6A7B689A42B8D3F6
:104DF0007B6A18462837BD4680BD00BF3C010020B5
:104E000084B090B400AF07F1080484E80F00BB68D9
:104E1000FC68114AD36514663B697C690E4A536489
:104E20009464BB69FC690C4AD36414653B6A7C6A70
:104E3000094A5365946597F82820074B83F86B203F
:104E4000B7F829309AB2044BA3F86C2000BFBD46D6
:104E500090BC04B0704700BFD003002000000000E9
:104E6000B0B590B006AF204B4FF00004C7E9003456
:104E70001D4B4FF00004C7E9023417A4D4E90034F5
:104E8000C7E9043416A4D4E90034C7E90634F02392
:104E900087F82030002387F82130002363F07F0358
:104EA00087F82230002387F82330002387F8243046
:104EB0006C4607F110050FCD0FC495E80300206084
:104EC000043421703B460FCBFFF79AFF00BF283711
:104ED000BD46B0BDAFF300800046C3230000000014
:104EE00000E9A4350000000040420F0080B582B008
:104EF00000AF00212020FFF763FE02463A4B1A6004
:104F00006420FEF76CFF00237B607B685A1C7A608C
:104F1000364AD2F86E20364941F823207B685A1C65
:104F20007A60324AD2F86720314941F823207B6801
:104F30005A1C7A602D4AD2F872202D4941F823205C
:104F40007B685A1C7A60294AD2F87620284941F8B1
:104F500023207B685A1C7A60244AD2F88620244990
:104F600041F823207B685A1C7A60204AD2F88220BC
:104F70001F4941F823207B685A1C7A601B4AD2F8EB
:104F80008C201B4941F8232001F04CFB0246174BB3
:104F90001A607B685A1C7A60144A1268144941F8F6
:104FA0002320124B93F865107B685A1C7A60104AD4
:104FB00042F823100D4B93F88B107B685A1C7A60D3
:104FC0000B4A42F82310282209490020FFF7BCFEB3
:104FD0006420FEF704FF282206490020FFF71EFE8A
:104FE00000BF0837BD4680BD04060020D003002066
:104FF0000C050020DC05002080B500AF1F4BD3F866
:1050000072304DF2F212934213D91C4BD3F8763022
:105010004DF2F11293422ED9184B002283F87220E0
:10502000002283F87320002283F87420002283F882
:105030007520124BD3F872309C2202FB03F303F568
:1050400080539C220E491846FFF77EFE0B4BD3F887
:1050500072309C2202FB03F303F580539C22094922
:105060001846FFF7DBFD054BD3F872300133034AD6
:10507000C2F8723000E000BF80BD00BFD003002046
:10508000700400203805002080B586B000AFFFF71F
:10509000E7FE28228A490020FFF7C0FD884B1B68E5
:1050A000002B04D0864B1B68B3F1FF3F7ED16FF01D
:1050B00070416020FFF784FD0246824B1A60824BEC
:1050C000002283F86E20002283F86F20002283F8EC
:1050D0007020002283F871207B4B002283F8672028
:1050E000002283F86820002283F86920002283F8D8
:1050F0006A20754B002283F87220002283F8732007
:10510000002283F87420002283F875206E4B002261
:1051100083F87620002283F87720002283F8782015
:10512000002283F87920684B002242F0040283F8C1
:105130008620002283F88720002283F8882000221E
:1051400083F88920604B002242F0040283F8822019
:10515000002283F88320002283F88420002283F831
:105160008520594B002283F88C20002283F88D2063
:10517000002283F88E20002283F88F2007215348D5
:1051800001F076F90346BB7301F0CAF9C7E90001E3
:1051900001F048FA02464C4B1A604B4B032283F84D
:1051A0006520494B012283F88B2085E000237B6139
:1051B0007B695A1C7A61424A52F82330424AC2F84B
:1051C0006E307B695A1C7A613D4A52F823303E4A60
:1051D000C2F867307B695A1C7A61394A52F8233029
:1051E000394AC2F872307B695A1C7A61344A52F8E3
:1051F0002330354AC2F876307B695A1C7A61304ACE
:1052000052F82330304AC2F886307B695A1C7A61E2
:105210002B4A52F823302C4AC2F882307B695A1C40
:105220007A61274A52F82330274AC2F88C307B69CA
:105230005A1C7A61224A52F82330234A1360224BC7
:105240001B684FF47A7202FB03F33B61204B002290
:105250009A711F4B00225A711D4B00221A713B6933
:105260001B0EDAB21A4BDA703B691B0CDAB2184B20
:105270009A703B691B0ADAB2154B5A703B69DAB275
:10528000134B1A700721124801F0F2F80346FB7322
:105290007B695A1C7A610A4A52F82330DAB20A4B07
:1052A00083F865207B695A1C7A61054A52F82330DD
:1052B000DAB2054B83F88B2000BF1837BD4680BD9E
:1052C000DC05002004060020D0030020A8000020F8
:1052D000D405002080B483B000AF00237B607B68DE
:1052E0005A1C7A600E4A072122F813107B685A1C58
:1052F0007A600B4A092122F813107B685A1C7A60E5
:10530000074A0A2122F813107B685A1C7A60044A63
:105310000B2122F8131000BF0C37BD4680BC70472C
:105320008006002080B483B000AF00237B607B68E0
:105330005A1C7A60244A0821D1547B685A1C7A602E
:10534000214A0921D1547B685A1C7A601E4A0A21DD
:10535000D1547B685A1C7A601B4A0B21D1547B685C
:105360005A1C7A60184A0C21D1547B685A1C7A6006
:10537000154A0D21D1547B685A1C7A60124A0E21BD
:10538000D1547B685A1C7A600F4A0F21D1547B6834
:105390005A1C7A600C4A1021D1547B685A1C7A60DE
:1053A000094A1121D1547B685A1C7A60064A12219D
:1053B000D1547B685A1C7A60034A1321D15400BF30
:1053C0000C37BD4680BC70478806002080B500AF12
:1053D0000423212204490548FDF754FDFFF77AFF15
:1053E000FFF7A0FF00BF80BD00B0005010060020F6
:1053F00080B584B002AF4FF47A70FEF7F0FC03235F
:10540000204A1021204801F0C1F903461A461F4BDB
:105410001A70022301931E4B0093012300221021D6
:10542000194801F0DDF903461A46184B1A7000239B
:105430007B6020E0174A7B6832F81330DAB202232F
:105440000193134B0093012310210F4801F0C8F979
:1054500003461A460D4B1A700D48FEF725FC03460D
:1054600019460D4A7B6834335B0013440A46DA80E0
:105470007B6801337B607B68032BDBDD00BF083773
:10548000BD4680BDB00000201006002008060020A8
:105490007C060020800600202803002080B586B00E
:1054A00002AF0346FB710023FB731FE0FB7B01335C
:1054B000FB730120FEF793FC01230193344B00930F
:1054C000012300224921334801F08AF903461A4694
:1054D000314B1A700120FEF782FC2D4B1B7803F034
:1054E0000203002B02D10023FB7302E0FB7B092B9C
:1054F000DCD90120FEF773FC01233B73FB797B733E
:1055000007F10C0202234921224801F03FF903462A
:105510001A46214B1A700023FB731CE0FB7B0133FE
:10552000FB73012301931A4B0093012300224921AD
:10553000184801F055F903461A46174B1A70012016
:10554000FEF74DFC124B1B7803F00103002B02D039
:105550000023FB7302E0FB7B092BDFD90023FB73E5
:105560000120FEF73CFC01230193094B009301232A
:1055700002224921074801F033F903461A46064B37
:105580001A70034B1B7818461037BD4680BD00BF0C
:10559000B4000020100600200806002080B586B068
:1055A00002AF0346FB7101230193234B00930123B8
:1055B00000224921214801F013F903461A46204BE5
:1055C0001A701D4B1B7803F00203002B00D0EAE792
:1055D00000BF02231B4A4921184801F0D7F80346AF
:1055E0001A46174B1A7001230193134B00930123A2
:1055F00000224921114801F0F3F803461A46104BE6
:105600001A700D4B1B7803F00203002B00D0EAE761
:1056100000BF01233B73FB797B7307F10C0202236C
:105620004921064801F0B2F803461A46044B1A70A5
:1056300000BF1037BD4680BD0C06002010060020BC
:10564000080600200000002090B585B000AF0120C2
:10565000FEF7C5FB0020FFF7A1FF0A20FEF7BFFB06
:105660000023FB6011E02B4AFB6813441B781846AB
:10567000FFF714FF03461946274AFB6813447633A5
:105680000A461A70FB680133FB60FB680B2BEADDEE
:105690000120FFF783FF0A20FEF7A1FB0023BB6078
:1056A00012E01C4ABB6813441A78BB6803F10C046F
:1056B0001046FFF7F3FE03461A46174B234483F8C0
:1056C0007620BB680133BB60BB680B2BE9DD022091
:1056D000FFF764FF0A20FEF782FB00237B6012E0E5
:1056E0000C4A7B6813441A787B6803F1180410464F
:1056F000FFF7D4FE03461A46074B234483F876206F
:105700007B6801337B607B680B2BE9DD00BF1437BE
:10571000BD4690BD880600202803002080B582B0D9
:1057200000AF0346FB71FB79002B05D101214FF03F
:10573000805001F0B7F904E001214FF0005001F072
:10574000B1F90837BD4680BD80B582B000AF0346D1
:10575000FB71FB79002B05D100214FF0805001F047
:10576000A1F904E000214FF0005001F09BF9083747
:10577000BD4680BD80B582B000AF0346FB71FB79AA
:10578000002B04D100211020FDF74AFB03E000218B
:105790001120FDF745FB0837BD4680BD80B586B0BA
:1057A00002AFF8607A603B600B46FB72F97A3B7E91
:1057B00000933B687A68F868FBF762F8FB681B683F
:1057C0001A68FB681B6822F001021A60FB7AFA680B
:1057D0001268F9680633DB000B445B681360FB7AE0
:1057E000FA680633DB0013445A7AFB681B689A6137
:1057F000FB7AFA680633DB0013441A7AFB681B68ED
:105800005A60FB681B681A68FB681B6842F001025B
:105810001A6000BF1037BD4680BD000080B58AB059
:1058200002AF0346FB711D4A07F1140392E803001F
:1058300083E80300FB791846FFF786FF0023FB830C
:1058400002E0FB8B0133FB83FB8BB3F5FA7FF8D3CC
:1058500007F1080207F114010A23009313460822F6
:105860000F48FBF7B9F90023FB8302E0FB8B013300
:10587000FB83FB8B41F287329342F7D9FB791846C1
:10588000FFF74CFF3B7A1B021AB27B7A1BB2134321
:105890001BB29BB218462037BD4680BDE879000098
:1058A000B800002080B586B002AF0020FFF762FF8D
:1058B0000120FFF75FFF0320FEF791FA012110207E
:1058C000FDF7AEFA01211120FDF7AAFA0A20FEF732
:1058D00086FA5248FAF7CEFE082300934FF48073FD
:1058E000002200214D48FFF759FF082300934FF491
:1058F0008073002201214948FFF750FF484A3B4688
:1059000092E8030018600433198002330A0C1A70FD
:105910000023FB600020FFF701FF0120FFF7FEFEE0
:1059200007F1080200230093134614223D493B4827
:10593000FBF752F90020FFF707FF07F108020023E9
:1059400000931346142237493448FBF745F90020E9
:10595000FFF7E4FEFF213148FBF7E4F80120FFF7F1
:10596000F3FE07F1080200230093134614222D4989
:105970002A48FBF731F90120FFF7D0FEFF21274825
:10598000FBF7D0F80320FEF72AFA0020FFF7DCFE31
:1059900007F10802394601230093134607221F48E6
:1059A000FBF71AF90020FFF7B9FEFB680133FB6033
:1059B0003B7A012B02D0FB68C72BE3D9FB68C72BCE
:1059C00001D9002326E00023FB600320FEF707FA3D
:1059D0000020FFF7B9FE07F10802394601230093C2
:1059E000134607220D48FBF7F7F80020FFF796FE55
:1059F0000120FFF793FEFB680133FB603B7A012B2C
:105A000002D0FB68C72BE0D9FB68C72B01D9002364
:105A100000E0012318461037BD4680BDB8000020C5
:105A2000F07900009806002080B582B000AF124BDC
:105A3000FF2283F88B20FFF735FF0346FB71FB79CC
:105A4000002B04D10C4BE12283F88B2011E00120C4
:105A500000F014F80346BB71BB79002B04D0064B51
:105A6000012283F88B2004E0034BE22283F88B2091
:105A700000BF0837BD4680BDD003002080B594B07C
:105A800002AF0346FB714FF40072FF21C64801F0DC
:105A900022FFC64BFF221A70C44B51225A70C34BCF
:105AA000FF22DA71C14BFF229A71C148FAF7E2FD79
:105AB000F979082300933C230022BD48FFF76EFECE
:105AC000BC4A07F1300392E80300186004331980E0
:105AD00002330A0C1A7000233B64FB791846FFF767
