:0200000460009A
:1000000000000120910100007F0300008103000037
:100010008303000085030000870300000000000048
:100020000000000000000000000000008903000044
:100030008B030000000000008D0300002D5700001E
:100040009103000093030000151400003914000010
:10005000A52B00009B0300009D030000C92B00009E
:10006000A1030000A3030000711600009516000014
:10007000A903000081220000AD030000AF030000CF
:10008000B1030000B3030000B5030000CD1C000065
:10009000B9030000BB030000BD030000BF03000064
:1000A000C1030000C3030000C5030000412D000090
:1000B000392E0000CB030000CD030000CF03000069
:1000C000D1030000D30300006557000079570000FA
:1000D0008D570000A1570000DD030000DF03000082
:1000E000E1030000E3030000E5030000E703000074
:1000F000E9030000EB030000ED030000EF03000044
:10010000F1030000F3030000F5030000F703000013
:10011000F9030000FB030000FD030000FF030000E3
:1001200001040000030400000504000007040000AF
:10013000090400000B0400000D0400000F0400007F
:10014000110400001304000015040000170400004F
:10015000190400001B0400001D0400001F0400001F
:1001600021040000230400002504000027040000EF
:10017000290400002B0400002D0400002F040000BF
:100180003104000033040000000000000000000003
:100190004FF0000BDFF8BE020068DFF8B612096806
:1001A00001F0030100F01C00142801D14BF0020BF8
:1001B000002901D04BF0010BBBF1000F05D0A7487F
:1001C000A749DFF8722200F09FF8A64880470BF09D
:1001D000020ABAF1000F0CD0DFF86E02DFF86E12DF
:1001E00002680B680FB44FF000024FF0FF0302608B
:1001F0000B609D484FF000024FF00103022808D128
:10020000DFF83A120A60DFF83E120A60DFF83212B5
:100210000B60012808D1DFF82A120A60DFF82612E5
:100220000A60DFF81A120B609048002809D1904844
:100230009049914A00F030F890489149914A00F075
:100240002BF891489149924A00F026F8914892493A
:10025000DFF8E22100F058F8BBF1000F10D08F4812
:100260008F49DFF8D62100F04FF80BF0020ABAF1FF
:10027000000F05D00FBC02600B6000BFAFF3008021
:10028000DFF820020FF2030E00474FF000004FF09E
:100290000001DFF814F2FEE72DE9F841884225D08D
:1002A000B2EB010200D5FEE740EA010313F00303BD
:1002B00002D000F01DF819E04FF000039046121133
:1002C000F7D09A421CBFF0C8F0C103F10103F8D186
:1002D00008F00F08B8F1000F08D004780C7000F196
:1002E000010001F10101B8F10108F6D1BDE8F88182
:1002F00008B54FF0000303780B7000F1010001F125
:100300000101013AF7D108BD884237D000F0030659
:10031000002E14D04FF00405A5EB06044FF008079B
:1003200007FB06F8914669FA08F9002C07D080F817
:10033000009069FA07F900F10100013CF5E74FF080
:1003400000060F46091A88460911914614461546BB
:10035000B14206D018BFA0E8340206F10106B1424E
:10036000F8D108F00F08B8F1000F07D002704FEA7B
:10037000322200F10100B8F10108F4E77047FEE70E
:10038000FEE7FEE7FEE7FEE7FEE7FEE7FEE7FEE745
:10039000FEE7FEE7FEE7FEE7FEE7FEE7FEE7FEE735
:1003A000FEE7FEE7FEE7FEE7FEE7FEE7FEE7FEE725
:1003B000FEE7FEE7FEE7FEE7FEE7FEE7FEE7FEE715
:1003C000FEE7FEE7FEE7FEE7FEE7FEE7FEE7FEE705
:1003D000FEE7FEE7FEE7FEE7FEE7FEE7FEE7FEE7F5
:1003E000FEE7FEE7FEE7FEE7FEE7FEE7FEE7FEE7E5
:1003F000FEE7FEE7FEE7FEE7FEE7FEE7FEE7FEE7D5
:10040000FEE7FEE7FEE7FEE7FEE7FEE7FEE7FEE7C4
:10041000FEE7FEE7FEE7FEE7FEE7FEE7FEE7FEE7B4
:10042000FEE7FEE7FEE7FEE7FEE7FEE7FEE7FEE7A4
:10043000FEE7FEE7704700000000A2A2A2A2008033
:100440000340088003401080034030800340348024
:1004500003403880034018080240000000F00020EC
:1004600000000120AD0400000000000001000000B9
:100470000000006000000000900100000007006024
:1004800000070000F0620000F06200600000002041
:100490002000002020000020C0080020C00800200C
:1004A00000F000201D6100006740000080B500AF33
:1004B00000F0F8F8044B5B69034A43F4007353619E
:1004C000FFF7B8FF00BF80BD00ED00E080B588B049
:1004D00000AF304BD3F8983003F08063FB61FB69C9
:1004E000002B4CD12B4BD3F8983003F480537B6115
:1004F0007B69002B15D1284B284A1A60284B274AC4
:100500001A60284B254A1A60274B284A1A60284B44
:10051000224A1A60274B214A1A60274B1F4A1A6049
:1005200034E0264A3B1D92E8030083E80300194BA0
:10053000D3F89C309B0903F007033B613A1D3B69EC
:1005400013441B78FB73FB7B012B0AD0022B0DD0CD
:10055000002B0FD100F036F8B861B86900F050F800
:1005600014E04FF4004000F04BF80FE0144800F0A6
:1005700047F80BE0124800F043F800BF06E000F037
:1005800021F8B861B86900F03BF8FFE700BF2037F9
:10059000BD4680BD0080034000000020008793031B
:1005A00004000020080000200C000020C0E1E4004E
:1005B000100000201400002018000020C462000079
:1005C00040420F0080B483B000AF0A4BD3F85031E3
:1005D00003F004033B603B68002B02D1064B7B60B9
:1005E00001E0064B7B607B6818460C37BD4680BC3B
:1005F000704700BF0080034040787D0180F0FA0220
:1006000080B483B000AF78600C4A7B6813600C4AFA
:100610007B6813600B4A7B6813600B4B0B4A1A60B4
:100620000B4A7B6813600B4A7B6813600A4A7B683D
:10063000136000BF0C37BD4680BC7047000000202F
:1006400004000020080000200C000020C0E1E400AD
:1006500010000020140000201800002080B483B097
:1006600000AF0E4BD3F84C313B603B684FF60202B3
:10067000934203D00A4A934203D005E001237B60F2
:1006800005E002237B6002E000237B6000BF7B6803
:1006900018460C37BD4680BC704700BF0080034041
:1006A00002F8010080B582B000AFFFF7D7FF786095
:1006B0007B68012B00D002E000F006F800BF00BF0D
:1006C0000837BD4680BD000080B400AF094BD3F8A9
:1006D0009830084A43F48073C2F89830054BD3F839
:1006E0009830044A23F08063C2F8983000BFBD46BA
:1006F00080BC704700800340000000000000000044
:100700000348044B834202D0034B03B118477047A0
:1007100020000020200000200000000005480649BD
:10072000091A891001EBD171491002D0034B03B1B2
:100730001847704720000020200000200000000023
:1007400010B5064C237843B9FFF7DAFF044B13B119
:100750000448AFF300800123237010BD2000002067
:1007600000000000CC62000008B5054B1BB1054934
:100770000548AFF30080BDE80840FFF7CFBF00BFDA
:100780000000000024000020CC620000EFF3108085
:1007900072B6704780F31088704701607047006838
:1007A00070470EB503FA01F303EA020301686FEA2A
:1007B000020201EA020141EA030101600EBD006884
:1007C00000EA020020FA01F07047018070470088BB
:1007D00070470EB503FA01F303EA020301886FEADA
:1007E000020201EA020141EA030101800EBD008814
:1007F00000EA020020FA01F07047017070470078AB
:1008000070470EB503FA01F303EA020301786FEAB9
:10081000020201EA020141EA030101700EBD007803
:1008200000EA020020FA01F07047000080B483B0B3
:1008300000AF0346FB71FB7903F01F02064997F9ED
:1008400007305B09012000FA02F241F8232000BFC3
:100850000C37BD4680BC704700E100E080B483B037
:1008600000AF0346FB71FB7903F01F02074997F9BC
:1008700007305B09012000FA02F2203341F82320FF
:1008800000BF0C37BD4680BC704700BF00E100E0F0
:1008900080B483B000AF0346FB71FB7903F01F0205
:1008A000074997F907305B09012000FA02F260332B
:1008B00041F8232000BF0C37BD4680BC704700BF05
:1008C00000E100E080B584B000AF78607B68314A19
:1008D000934204D07B68304A934200D000BE7B68CC
:1008E00093F904301846FFF7B9FF84220021786895
:1008F00005F043FC7B6801225A620023FB810AE079
:10090000FB897A680633DB0013444FF0FF325A60EC
:10091000FB890133FB81FB89072BF1D97B681D4AD9
:10092000934215D17B681D4A1A607B6802221A71B6
:100930001B4B9B6C1A4A43F4007393640220FFF72D
:10094000A7FF174B9B6C164A23F40073936414E0C3
:100950007B68144A1A607B6803221A71104B9B6CE7
:100960000F4A43F4806393640320FFF791FF0C4B1D
:100970009B6C0B4A23F4806393647B681B681A6842
:100980007B681B6822F000421A6000BF1037BD462A
:1009900080BD00BF30010020AC00002000100040EE
:1009A000008003400010014080B58AB000AF78603D
:1009B0007B681B681B687B627B681B689B693B626A
:1009C0007B681B685B68FB617B681B689B6ABB611B
:1009D0007B681B681B6B7B617B681B685B6B3B6187
:1009E0007B681B68DB69FB607B68354A93421DD1DD
:1009F0007B68344A1A607B6802221A71324B9B6C06
:100A0000314A43F4007393640220FFF741FF2E4BF9
:100A10009B6C2D4A23F4007393647B681B681A68EF
:100A20007B681B6822F000421A601CE07B68274A42
:100A30001A607B6803221A71234B9B6C224A43F491
:100A4000806393640320FFF723FF1F4B9B6C1E4AB8
:100A500023F4806393647B681B681A687B681B6857
:100A600022F000421A607B6A23F001037B627B68FC
:100A70001B687A6A1A607B681B683A6A9A617B68AD
:100A80001B68FA695A607B681B681A687B681B6878
:100A900042F001021A607B681B68BA699A627B683F
:100AA0001B687A691A637B681B683A695A637B68BA
:100AB0001B68FA68DA6100BF2837BD4680BD00BFF9
:100AC0003001002000100040008003400010014071
:100AD00080B586B000AFF8607A603B600B46FB7271
:100AE000FB68454A934204D0FB68444A934200D0D5
:100AF00000BEFB7A072B00D900BE97F82030202BD0
:100B000000D900BE3B68012B00D800BE3B68B3F59E
:100B1000007F00D900BE3B6803F00103002B00D02A
:100B200000BEFB6893F904301846FFF797FEFB6898
:100B3000002283F88020FB681B681A68FB681B682A
:100B400022F001021A60FB681B681A68FB681B68C8
:100B500042F002021A60FB681B681A68FB681B6897
:100B600042F001021A60FB7A072B3AD87B68002B0F
:100B70000BD07B68B3F1007F07D07B68B3F1807F37
:100B800003D07B68B3F1407F0BD1FB7A7A6842F0E7
:100B9000505242F48172F9680633DB000B445A600C
:100BA0000AE0FB7A7A6842F0405242F48172F968B6
:100BB0000633DB000B445A60FB7AFA680633DB002D
:100BC000134497F820201A723B685B08013B7B6155
:100BD000FB7A7A69D1B2FA680633DB0013440A461D
:100BE0005A72FB6893F904301846FFF71FFE00BFE6
:100BF0001837BD4680BD00BF30010020AC0000208A
:100C000080B584B000AF78600B46FB707B68354AD6
:100C1000934204D07B68344A934200D000BE7B6884
:100C20001B681B6803F00203022B00D000BEFB7898
:100C30007A680633DB0013445B68B3F1FF3F00D1F1
:100C400000BE7B6893F904301846FFF707FE7B6807
:100C50001B689B6803F00403FB60FB68002B02D059
:100C60007868FFF7A1FE7B681B681A687B681B68C1
:100C700022F001021A60FB787A68126879680633FC
:100C8000DB000B445B681360FB787A680633DB009B
:100C900013445A7A7B681B689A61FB787A6806333A
:100CA000DB0013441A7A7B681B685A607B681B68F8
:100CB0001A687B681B6842F001021A607B681B6837
:100CC000D969FB7801229A407B681B680A43DA6184
:100CD0007B6893F904301846FFF7A8FD00BF103772
:100CE000BD4680BD30010020AC00002080B584B03E
:100CF00000AF78600B46FB707B681C4A934204D0BF
:100D00007B681B4A934200D000BE7B681B681B684F
:100D100003F00203022B00D000BE7B6893F904307D
:100D20001846FFF79BFD7B681B689B6803F0040374
:100D3000FB60FB68002B02D07868FFF735FE7B680C
:100D40001B68D969FB78012202FA03F3DA437B6856
:100D50001B680A40DA617B6893F904301846FFF794
:100D600065FD00BF1037BD4680BD00BF30010020CB
:100D7000AC00002080B485B000AF786039607B683B
:100D8000274A934204D07B68264A934200D000BE93
:100D90007B681B681B6803F00203022B00D000BEB7
:100DA0007B681B681B6823F47F0323F47F437A6806
:100DB000126843F4807313607B681B68DA6A7B688F
:100DC0001B6842F00C02DA627B681B683A685A6161
:100DD0007B681B689B6803F00103BB6005E07B68D0
:100DE0001B689B6803F00103BB60BB68002BF6D057
:100DF0007B681B689B6803F00203FB6005E07B686F
:100E00001B689B6803F00203FB60FB68002BF6D0B5
:100E10007B681B681B6918461437BD4680BC704749
:100E200030010020AC00002080B58EB000AFF8602B
:100E3000B9603B601346FB800023FB8600237B8563
:100E4000FB68744A934204D0FB68734A934200D013
:100E500000BEFB681B681B6803F00203022B00D076
:100E600000BEFA88B7F8403013447B847B8C002B9B
:100E700002D10123FB6201E07B8CFB62FB681B68F3
:100E8000DA6AFB681B6842F00C02DA62FB681B68D6
:100E90009B6803F00403FB61FB69002B02D0F86838
:100EA000FFF782FDFB681B681A68FB681B6822F06D
:100EB00001021A60FB681B681B6823F47F0222F49E
:100EC0007F42FB6A1B0223F07F4323F0FF03F96894
:100ED000096813430B60FB681B6808225A60FB68B3
:100EE0001B681A68FB681B6842F001021A60FB6805
:100EF0001B689B6803F040037B6209E0FB681B688A
:100F00001B697B61FB681B689B6803F040037B6285
:100F10007B6A002BF2D00023BB8600237B86BA8E2F
:100F2000FB889A420DD2BB8EBA6813441A78FB68CC
:100F30001B685A61BB8E0133BB867B8D01337B8579
:100F40005FE0BA8E7B8C9A425BD2FB681B68FF2203
:100F50005A61BB8E0133BB867B8D01337B8550E0AC
:100F6000FB681B689B6803F040037B627B6A002B75
:100F70001BD1FB681B681B697B61FA8EFB889A4258
:100F80000DD37A8EB7F840309A4205D279697B8EBC
:100F90003A681344CAB21A707B8E01337B86FB8E8B
:100FA0000133FB867B8D013B7B85FB681B689B685F
:100FB00003F48073BB61BB69002B22D17B8D032BB3
:100FC0001FD8BA8EFB889A420DD2BB8EBA681344E2
:100FD0001A78FB681B685A61BB8E0133BB867B8D18
:100FE00001337B850DE0BA8E7B8C9A4209D2FB6877
:100FF0001B68FF225A61BB8E0133BB867B8D013398
:101000007B85FA8E7B8C9A42AAD300BF3837BD46C7
:1010100080BD00BF30010020AC00002080B485B04E
:1010200000AF78600023FB600DE07B689A687B6806
:101030001B6913441A787B681B685A617B681B69BB
:101040005A1C7B681A617B681B689B6803F4807379
:10105000002B05D17B681A697B68DB689A42E4D370
:101060007B681A697B68DB689A421BD30DE07B685A
:101070005A697B68DB6913441A787B681B685A617C
:101080007B68DB695A1C7B68DA617B681B689B683C
:1010900003F48073002B05D17B68DA697B689B6958
:1010A0009A42E4D37B685B6A002B1DD07B681A6987
:1010B0007B68DB689A4217D37B68DA697B689B6937
:1010C0009A4211D306E07B681B6800225A61FB68D4
:1010D0000133FB607B681B689B6803F48073002B03
:1010E00002D1FB681F2BEED900BF1437BD4680BC70
:1010F000704780B584B000AF78607B6893F880302B
:10110000022B15D10CE07B681B681B69FB607B68B8
:101110005B6F002B04D07B685B6FFA6810469847C2
:101120007B681B689B6803F04003002BEBD02FE02B
:101130007B6893F88030012B23D116E07B681B6815
:101140001B69FB607B681A6B7B68DB6A9A4207D27B
:10115000F9687B689A6A7B681B6B1344CAB21A7081
:101160007B681B6B5A1C7B681A637B681B689B68D7
:1011700003F04003002BE1D00AE07B681B681B6989
:10118000FB607B681B689B6803F04003002BF4D076
:1011900000BF1037BD4680BD80B586B000AF786017
:1011A0007B681B6820337B617B68984A934204D03C
:1011B0007B68974A934200D000BE7B691B6803F0AE
:1011C0000203002B4ED07B6893F88030022B15D1A0
:1011D0000CE07B681B681B69FB607B685B6F002B06
:1011E00004D07B685B6FFA68104698477B681B6881
:1011F0009B6803F04003002BEBD02FE07B6893F853
:101200008030012B23D116E07B681B681B69FB60D3
:101210007B681A6B7B68DB6A9A4207D2F9687B6845
:101220009A6A7B681B6B1344CAB21A707B681B6B8B
:101230005A1C7B681A637B681B689B6803F0400339
:10124000002BE1D00AE07B681B681B69FB607B68B0
:101250001B689B6803F04003002BF4D07B681B687D
:101260000222DA607B691B6803F00103002B11D0B6
:101270007B6893F88030022B05D17B681B687A6805
:10128000926F5A6102E07868FFF7C8FE7B681B68BE
:101290000122DA607B691B6803F01003002B20D069
:1012A0007868FFF726FF7B681B6A002B0AD07B68F3
:1012B0001B6A7A68906A7A68126B11469847786858
:1012C000FFF7ACFE7B6801225A627B681B689A6A52
:1012D0007B681B6822F010029A627B681B681022F0
:1012E000DA607B691B6803F00403002B0ED07B6877
:1012F0001B68DA6A7B681B6842F00402DA6278686D
:10130000FFF752FB7B681B680422DA607B691B686D
:1013100003F00803002B2DD07B681B68DA6A7B681A
:101320001B6842F00802DA627B6893F88030022B77
:1013300011D17B681B681B6823F47F0323F47F4370
:101340007A68126843F4807313607B681B687A685C
:10135000926F5A610AE07B6893F88030012B05D1C7
:101360007B6800221A617868FFF758FE7B681B686B
:101370000822DA607B691B6803F02003002B41D050
:101380007868FFF7B6FE7B681B6B3B617B681B6A66
:10139000002B17D07B6800225A627B6800225A61BA
:1013A0007B6800229A617B680022DA617B681B6897
:1013B0001022DA607B681B689A6A7B681B6842F0BF
:1013C00010029A627B6800221A617B681B68DA6AE5
:1013D0007B681B6842F00C02DA627868FFF71EFE39
:1013E0007B6800221A637B68DB6F002B06D07B686A
:1013F000DB6F7A68926A3969104698477B681B6888
:101400002022DA6000BF1837BD4680BD30010020C1
:10141000AC000020684620F007018D4689B500AF7A
:101420000448FFF7B9FE00BFBD46BDE889408546C8
:10143000704700BF30010020684620F007018D464C
:1014400089B500AF0448FFF7A7FE00BFBD46BDE861
:1014500089408546704700BFAC00002080B483B04F
:1014600000AF0346FB71FB7903F01F02074997F9B0
:1014700007305B09012000FA02F2603341F82320B3
:1014800000BF0C37BD4680BC704700BF00E100E0E4
:1014900080B483B000AF78600B46FB707B6803F0CC
:1014A00070427B685B0123F07E4323F01F031343EC
:1014B000FA789200134403F100731A460123136073
:1014C00000BF0C37BD4680BC704780B483B000AF0E
:1014D00078600B46FB707B6803F070427B685B01B1
:1014E00023F07E4323F01F031343FA789200134442
:1014F00003F100731A460023136000BF0C37BD468A
:1015000080BC704780B483B000AF78600B46FB703E
:101510007B6803F070427B685B0123F07E4323F01D
:101520001F031343FA789200134403F100731B68FE
:10153000DBB218460C37BD4680BC704780B584B01E
:1015400000AFF860B9601346FB71FB68144A934220
:1015500004D0FB68134A934200D000BEFB791A46C0
:10156000B968F86800F04EF9FB681B683033032156
:101570001846FFF7AAFFFB681B68343302211846A0
:10158000FFF7A3FFFB681B68383300211846FFF7FD
:101590009CFFFB68044A5A6200BF1037BD4680BDFD
:1015A000F4010020B4010020E51B000080B489B0E4
:1015B00000AFF860B9607A600023FB61FB682A4ADB
:1015C000934204D0FB68294A934200D000BEBB6816
:1015D000002B00D100BE7B68002B00D100BEFB6851
:1015E000214A934203D0FB68204A934237D1BB681B
:1015F000002B34D07B68002B31D0FB681B681B7D2F
:10160000FB74FB685A7BFB7C1343DAB2FB685A73AA
:10161000FB7C03F02003002B1ED010237B617B6832
:101620000F2B01D87B687B610023BB610CE0BA689B
:10163000FB691A44FB681B6812781A70FB69013356
:10164000FB61BB690133BB61BA697B699A42EED326
:101650007A68BB69D31A7B607B68002BCDD100BF51
:101660002437BD4680BC7047F4010020B40100203F
:10167000684620F007018D4689B500AF044800F0A8
:10168000ADF900BFBD46BDE889408546704700BF43
:10169000F4010020684620F007018D4689B500AFAF
:1016A000044800F09BF900BFBD46BDE8894085466F
:1016B000704700BFB401002080B588B000AF7860EB
:1016C00039607B684B4A934204D07B684A4A934214
:1016D00000D000BE7B68474A934204D07B68464AEC
:1016E000934240F082807B683A689A60FEF7EEFE93
:1016F0007B68404A934203D1404B1B68FB6102E088
:101700003F4B1B68FB61FB69DA003B68B2FBF3F3FC
:10171000BB61BB695B087B617B699B093B613B6982
:101720009B017A69D31AFB603B69DB01BA69D21A63
:10173000FB685B00D31AFA681344FB603B69B3F59E
:10174000803F00D300BE3B69B3F5803F4DD23B697B
:10175000012B2AD97B681B680C3307211846FFF739
:1017600097FE3B691A0A7B681B68D2B21A717B68C4
:101770001B683A69D2B21A707B681B680C33072168
:101780001846FFF7A2FE7B681B6830330721184616
:10179000FFF77EFEFB68FF2B00D900BE7B681B684D
:1017A000FA68D2B283F83C201FE07B681B680C33D8
:1017B00007211846FFF76CFE3B691A0A7B681B6815
:1017C000D2B21A717B681B683A69D2B21A707B6810
:1017D0001B680C3307211846FFF777FE7B681B68F0
:1017E000303307211846FFF770FE00BF2037BD4693
:1017F00080BD00BFF4010020B401002004000020DF
:101800000800002080B584B000AFF860B9601346CE
:10181000FB71FB686D4A934204D0FB686C4A9342AB
:1018200000D000BEFB68694A934216D1FB684FF0B6
:1018300080421A60FB680A221A71664B9B6C654AEB
:1018400043F0800393640A20FFF708FE614B9B6C12
:10185000604A23F08003936414E0FB685E4A1A60D8
:10186000FB680B221A715B4B9B6C5A4A43F48073E2
:1018700093640B20FFF7F2FD564B9B6C554A23F403
:1018800080739364FB681B6800221A71FB681B68F5
:1018900000221A72FB681B68083301211846FFF703
:1018A000F7FDFB681B68083302211846FFF7F0FDBF
:1018B000FB681B68083300211846FFF7E9FDFB6849
:1018C0001B68103304211846FFF7FFFDFB681B68F7
:1018D000103305211846FFF7F8FDFB681B68343309
:1018E00001211846FFF7F1FDFB681B683433002126
:1018F0001846FFF7EAFDFB681B68383301211846DC
:10190000FFF7E3FDFB681B68303305211846FFF73E
:10191000DCFDFB681B68303306211846FFF7D5FD58
:10192000FB681B68303307211846FFF7CEFDFB68C4
:101930001B68383303211846FFF7C7FDFB681B6897
:10194000002283F84420FB681B68002283F84820AB
:10195000FB681B68002283F84C20B968F868FFF721
:10196000ABFEFB681B68FA791A73FB68BA689A6069
:10197000FB68FA791A73FB6800225A61FB6800223F
:101980001A61FB6800229A61FB6800221A62FB68F8
:1019900000225A62FB680022DA61FB6800229A6228
:1019A000FB680022DA62FB6800221A63FB680022EF
:1019B0005A63FB6800229A63FB680022DA63FB68C3
:1019C00000225A7300BF1037BD4680BDF4010020CD
:1019D000B4010020008003400000014080B584B0C5
:1019E00000AF78607B687D4A934204D07B687C4A74
:1019F000934200D000BE7B68784A934204D07B6853
:101A0000774A934240F0DA807B681B681B7ADBB22E
:101A100003F00F03FB73FB7B0C2B00F2CD8001A2C4
:101A200052F823F0591A0000B91B0000771A000081
:101A3000D11A0000951A0000B91B0000B31A00006B
:101A4000B91B0000B91B0000B91B0000B91B000046
:101A5000B91B0000951A00007B689B6A002B00D11F
:101A600000BE7B689B6A002B00F0AA807B689B6AA3
:101A700078689847A4E07B685B6A002B00D100BEC1
:101A80007B685B6A002B00F09D807B685B6A7868EE
:101A9000984797E07B681B6A002B00D100BE7B68EB
:101AA0001B6A002B00F090807B681B6A786898475F
:101AB0008AE07B68DB69002B00D100BE7B68DB69B4
:101AC000002B00F083807B68DB69786898477DE0B5
:101AD0007B681B68283300211846FFF713FD034677
:101AE000002B0CD07B68DB6A002B00D100BE7B682A
:101AF000DB6A002B03D07B68DB6A786898477B68D9
:101B00001B68283301211846FFF7FCFC0346002B15
:101B10000CD07B681B6B002B00D100BE7B681B6B5D
:101B2000002B03D07B681B6B786898477B681B6829
:101B3000283302211846FFF7E5FC0346002B0CD0A2
:101B40007B685B6B002B00D100BE7B685B6B002B5E
:101B500003D07B685B6B786898477B681B68283389
:101B600003211846FFF7CEFC0346002B0CD07B6800
:101B70009B6B002B00D100BE7B689B6B002B03D0BE
:101B80007B689B6B786898477B681B6828330421C7
:101B90001846FFF7B7FC0346002B19D07B68DB6BB8
:101BA000002B00D100BE7B68DB6B002B10D07B6864
:101BB000DB6B786898470BE000BE0AE000BF08E0E6
:101BC00000BF06E000BF04E000BF02E000BF00E08D
:101BD00000BF00BF1037BD4680BD00BFF40100202C
:101BE000B401002080B586B000AF78607B68354ACC
:101BF000934204D07B68344A934200D000BE7B6895
:101C00001B69002B00D100BE7B685B69002B00D1F3
:101C100000BE7B682B4A934203D07B682A4A9342DA
:101C20004CD17B681B69002B48D07B685B69002B1B
:101C300044D07B681B681B7DFB737B685A7BFB7BF6
:101C40001343DAB27B685A73FB7B03F02003002B4B
:101C500024D010233B617B685A697B689B69D31A47
:101C6000BB60BB680F2B01D8BB683B6100237B6165
:101C700010E07B681A697B689B691A447B681B6863
:101C800012781A707B689B695A1C7B689A617B6921
:101C900001337B617A693B699A42EAD37B689A692E
:101CA0007B685B699A4209D17B6800225A617B6834
:101CB0001B68043301211846FFF707FC00BF1837E3
:101CC000BD4680BDF4010020B401002080B582B083
:101CD00000AF0F4B5B68FB710D4B9B68DAB2FB7971
:101CE0001340FB71FB7903F00203BB71BB79002B3E
:101CF00001D000F0E5F8FB7903F001037B717B79FB
:101D0000002B01D000F006F800BF0837BD4680BDAB
:101D10000060014080B584B000AF624B1B78022B9D
:101D20003DD0052B68D0012B40F0AA805E4B1B886C
:101D30009BB2002B2FD05D4B1A685B4B1B889BB26C
:101D40001946104600F00AFA7860574B1B889BB280
:101D50001A467B6893420FD2534B1B889AB27B681A
:101D60009BB2D31A9AB2504B1A80504B1A687B68B8
:101D700013444E4A136090E04B4B00221A804C4BA8
:101D80001B68002B03D0474B02221A7085E0454B9D
:101D900003221A7081E000BE00F0BAF97DE0444BE6
:101DA0001B68002B24D0434B1A68414B1B68194613
:101DB000104600F0D3F9B8603D4B1B68BA689A42F0
:101DC0000CD23B4B1A68BB68D31A394A1360394BA3
:101DD0001A68BB681344374A13605EE0364B9B6851
:101DE000354A23F0010393602E4B03221A7054E00E
:101DF00000BE00F08DF950E02D4B1B68002B1BD16D
:101E00002E4B1B68002B14D02C4B1B68294898477D
:101E10000246274B1A60264B1B68002B0CD1264B21
:101E20009B68254A23F0010393601E4B03221A701E
:101E300002E000BE00F06CF91D4B1B68002B09D1BD
:101E40001D4B9B681C4A23F001039360154B032232
:101E50001A7022E0174B1A68154B1B68194610467A
:101E600000F07CF9F860124B1A68FB68D31A104A2C
:101E70001360104B1A68FB6813440E4A13600CE0A1
:101E80000D4B9B680C4A23F001039360002000F087
:101E90001FF9044B00221A7000BF00BF1037BD4667
:101EA00080BD00BF610000204400002040000020F1
:101EB0004C00002048000020006001405C00002031
:101EC00080B584B000AF7C4B1B69FB81FB8923F498
:101ED000FF4323F07F03BB81FB89FB72774B1B78A9
:101EE000052B00F2D68001A252F823F0051F000056
:101EF0007F2000007F2000005D1F0000AB1F00005E
:101F000053200000BB89002B00F0CA80FB7AF12B24
:101F100006D0FB7A7B717B79184600F04FF9BFE061
:101F2000674B00221A80674B1B68654A128892B281
:101F30001344FA7A1A70624B1B889BB201339AB22F
:101F40005F4B1A805F4B1B685D4A128892B2134444
:101F500000221A70594B04221A70A1E0BB89002B91
:101F600000F0A080FB7AFB71574B1B78DBB2FA794B
:101F70009A4215D1524B00221A80524B1B68504A8C
:101F8000128892B21344FA791A704D4B1B889BB297
:101F900001339AB24A4B1A80484B04221A7081E0EE
:101FA000FB79184600F00AF97CE0BB89002B06D0CB
:101FB000FB7A3B723B7A184600F000F974E0414B23
:101FC0001A683F4B1B889BB2013B13441B78F12BD3
:101FD00016D13C4B1B683A4A128892B21344FA7AE3
:101FE0001A70384B1A68364B1B889BB2013B13445E
:101FF0001B78184600F0E2F8304B00221A7053E0CC
:102000002F4B1B889AB2314B1B889A4210D2FB7A15
:102010007B722C4B1B682A4A128892B213447A7A3C
:102020001A70274B1B889BB201339AB2244B1A803B
:10203000234B1B889AB2254B1B889A4234D1204BE4
:102040001B889BB2184600F043F81C4B00221A7004
:102050002AE0BB89002B0BD11A4B1B680133FA7A9B
:102060001A70022000F034F8144B00221A701EE09F
:10207000FB7ABB72BB7A184600F0A0F817E0BB8968
:10208000002B13D0FB7ABB71BB79184600F096F891
:102090000CE0002000F01CF8084B00221A7006E04B
:1020A00000BF04E000BF02E000BF00E000BF00BFCF
:1020B0001037BD4680BD00BF0060014061000020B8
:1020C00056000020500000203C000020540000205A
:1020D00080B582B000AF0346FB800A4B1B68002B23
:1020E0000CD0084B1B68084A1268F98810469847BC
:1020F000044B00221A60054B00221A7000BF0837FB
:10210000BD4680BD58000020500000206000002027
:1021100080B582B000AF0E4B1B78DBB2002B13D022
:102120000C4B1B889BB21846FFF7D2FF0A4B1B686B
:10213000094A43F001031360074B1B6803F00103D6
:102140007B607B68002BF7D100BF0837BD4680BDA0
:1021500060000020560000200060014080B485B07F
:1021600000AF78603960144B1B68134A23F00403F6
:1021700013600023FB60104B5B6803F00103BB603E
:102180000DE07A68FB6813441A780B4B1A61FB6800
:102190000133FB60084B5B6803F00103BB60BB6865
:1021A000002B03D0FA683B689A42EAD3FB681846D2
:1021B0001437BD4680BC70470060014080B582B0D6
:1021C00000AF0346FB71064B1B68002B04D0044B89
:1021D0001B68FA791046984700BF0837BD4680BD96
:1021E0006400002080B485B000AF0346FB8000236C
:1021F000FB73FB8803F00303002B02D00023FB7367
:1022000038E0FB8803F00C03002B02D00123FB73A2
:1022100030E0FB8803F03003002B02D00223FB7375
:1022200028E0FB8803F0C003002B02D00323FB73DC
:1022300020E0FB8803F44073002B02D00423FB73DF
:1022400018E0FB8803F44063002B02D00523FB73E6
:1022500010E0FB8803F44053002B02D00623FB73ED
:1022600008E0FB8803F44043002B02D00723FB73F4
:1022700000E000BEFB7B18461437BD4680BC7047AB
:10228000684620F007018D4691B586B000AF174B28
:102290003C1D0FCB84E80F00154B5B68FB82FB8A6B
:1022A0001846FFF79FFF03467B757B7D5B0007F1B8
:1022B0001802134433F8143CDB439AB2FB8A1340F0
:1022C000FB827B7D0B4A52F82330002B04D07B7DB0
:1022D000084A52F823309847FB8A002BDFD100BF11
:1022E0001837BD46BDE8914085467047DC61000067
:1022F000003000406800002080B483B000AF034687
:10230000FB71FB7903F01F02074997F907305B095E
:10231000012000FA02F2203341F8232000BF0C37DD
:10232000BD4680BC704700BF00E100E080B483B0D0
:1023300000AF78607B6893F86830002B03D07B682F
:102340009B6901229A6000BF0C37BD4680BC704774
:1023500090B585B000AF78600123FB737B68E74AD6
:10236000934204D07B68E64A934200D000BE7B686B
:102370005B691B79FB72FB7ADBB2083BD02B00F266
:10238000D78301A252F823F0CD260000312B0000A4
:10239000312B0000312B0000312B0000312B0000CD
:1023A000312B0000312B0000CD260000312B000026
:1023B000312B0000312B0000312B0000312B0000AD
:1023C000312B0000312B000069270000312B000069
:1023D000312B0000312B0000312B0000312B00008D
:1023E000312B0000312B00004B270000312B000067
:1023F000312B0000312B0000312B0000312B00006D
:10240000312B0000312B000069270000312B000028
:10241000312B0000312B0000312B0000312B00004C
:10242000312B0000312B0000EF270000312B000082
:10243000312B0000312B0000312B0000312B00002C
:10244000312B0000312B000041270000312B000010
:10245000312B0000312B0000312B0000312B00000C
:10246000312B0000312B00000D280000312B000023
:10247000312B0000312B0000312B0000312B0000EC
:10248000312B0000312B000051280000312B0000BF
:10249000312B0000312B0000312B0000312B0000CC
:1024A000312B0000312B00006F280000312B000081
:1024B000312B0000312B0000312B0000312B0000AC
:1024C000312B0000312B0000A3280000312B00002D
:1024D000312B0000312B0000312B0000312B00008C
:1024E000312B0000312B000033290000312B00007C
:1024F000312B0000312B0000312B0000312B00006C
:10250000312B0000312B00002B290000312B000063
:10251000312B0000312B0000312B0000312B00004B
:10252000312B0000312B000033290000312B00003B
:10253000312B0000312B0000312B0000312B00002B
:10254000312B0000312B00002B290000312B000023
:10255000312B0000312B0000312B0000312B00000B
:10256000312B0000312B000069290000312B0000C5
:10257000312B0000312B0000312B0000312B0000EB
:10258000312B0000312B0000FF280000312B000010
:10259000312B0000312B0000312B0000312B0000CB
:1025A000312B0000312B000069290000312B000085
:1025B000312B0000312B0000312B0000312B0000AB
:1025C000312B0000312B0000FF280000312B0000D0
:1025D000312B0000312B0000312B0000312B00008B
:1025E000312B0000312B0000BF290000312B0000EF
:1025F000312B0000312B0000312B0000312B00006B
:10260000312B0000312B0000812A0000312B00000B
:10261000312B0000312B0000312B0000312B00004A
:10262000312B0000312B0000812A0000312B0000EB
:10263000312B0000312B0000312B0000312B00002A
:10264000312B0000312B0000812A0000312B0000CB
:10265000312B0000312B0000312B0000312B00000A
:10266000312B0000312B0000012B0000312B00002A
:10267000312B0000312B0000312B0000312B0000EA
:10268000312B0000312B0000012B0000312B00000A
:10269000312B0000312B0000312B0000312B0000CA
:1026A000312B0000312B0000312B0000312B0000BA
:1026B000312B0000312B0000312B0000312B0000AA
:1026C000312B0000312B0000592A00007B689B69E8
:1026D00000225A617B685A687B685B69D2B21A72C1
:1026E0007B689B697A68D26AC3F800217B68DB6AE1
:1026F000002B07D17B6800229A620AE03402002096
:10270000A80200207B68DB6A012B02D17B680022D3
:102710009A637B6893F87130002B03D07B680022AA
:1027200083F871207B681A7A7B6893F872309A423A
:1027300000F01D827B6893F872207B681A7216E2A3
:102740007B689B6901225A611CE27B689B690122BC
:102750001A617B68022283F83C207B6800221A728F
:102760007868FFF7E3FD0DE27B689A6A7B685B6A35
:102770009A420CD27B681A6A7B689B6A581C7968FB
:1027800088621A447B685B6912781A72FAE17B6886
:102790001B7A032B07D17B680122DA627B689B6975
:1027A00001225A61EEE17B6800221A727B681B7C71
:1027B00003F001033B737B683A7B83F870203B7B1B
:1027C000002B07D17B689B6901221A617868FFF7AB
:1027D000ADFD07E07B6893F911301846FFF78CFDDB
:1027E0000023FB737B68002283F83C20CAE17B68EE
:1027F0009B6901221A617B68022283F83C207B6876
:1028000000221A727868FFF791FDBBE17B685B6B71
:10281000012B04D97B689B6901229A60B2E17B6835
:102820005B6B012B04D17B689B6900229A60A9E154
:102830007B689B6901229A607B689B6901221A610F
:102840007B68002283F83C207B6800221A7299E1A1
:102850007B689B6901221A617B68022283F83C2015
:102860007B6800221A727868FFF760FD8AE17B6856
:102870005A697B68196B7B689B6B5C1C7868846306
:102880000B44127AD2B21A707B689A6B7B685B6BCE
:10289000013B9A42C0F06D817B689B6900229A607F
:1028A00067E17B685A697B68196B7B689B6B0B449B
:1028B000127AD2B21A707B681B7C03F001033B735F
:1028C0007B683A7B83F870203B7B002B07D17B68C9
:1028D0009B6901221A617868FFF728FD07E07B6891
:1028E00093F911301846FFF707FD0023FB737B684F
:1028F00000221A727B68002283F83C2042E17B6848
:102900009B6901229A607B6800221A727B68002210
:1029100083F85C207B6893F87130002B00F02B81EA
:102920007B689B6901225A6125E17B68012283F85B
:1029300071207B6804221A727B6800229A657B688A
:102940000022DA607B689B695B69002B07D07B689B
:102950009B6900225A617B68012283F871207B68A1
:10296000012283F85C200DE17B681B6D002B1AD0DF
:102970007B689A6D7B685B6D9A4214D27B685B6959
:102980001B7A7B737B681A6D7B689B6D581C79681A
:10299000886513447A7B1A707B68DB681A027B7B3C
:1029A0001A447B68DA607B689A6D7B685B6D9A423B
:1029B000C0F0E3807B689B6900229A60DDE07B6861
:1029C0001B7A042B31D17B689A6D7B681B6E9A420F
:1029D00003D17B68DA687B68DA647B685B6E002B06
:1029E0001ED07B685B6E7A68116D7A68926D92B2C8
:1029F000786898470346BB73BB7B002B07D1786888
:102A0000FFF794FC7B689B6901229A6013E07B6866
:102A10009B6900229A607B68002283F868200AE0A4
:102A20007B689B6901229A6005E07B680022DA647A
:102A30007868FFF77BFC7B68002283F85C207B686A
:102A400093F87130002B03D07B689B6901225A6197
:102A50007B6800221A7295E07B6800221A727B68FC
:102A60000022DA647B6893F85C30DBB2012B03D17F
:102A70007B68022283F85C207868FFF757FC81E0CE
:102A8000FB7ADBB2A82B16D17B6805221A727B6811
:102A90000022DA607B68012283F85C207B689B69F6
:102AA0005B69002B07D07B689B6900225A617B68B9
:102AB000012283F871207B68DA6C7B689B6C9A42F8
:102AC00004D37B685B69FF221A720BE07B685A6C47
:102AD0007B68DB6C581C7968C8641A447B685B6946
:102AE00012781A727B68DA6C7B689B6C9A4246D3C8
:102AF0007B689B6900229A607B680022DA643EE072
:102B00007B680022DA647B689B6901229A607B689B
:102B1000002283F85C207B6893F87130002B03D08F
:102B20007B689B6901225A617B6800221A7229E046
:102B30007B689B6900225A617B6800221A727B685D
:102B40000022DA647B6893F83C30DBB2012B03D1BE
:102B50007B68022283F83C207B6893F85C30DBB210
:102B6000012B0ED17B68022283F85C2009E000BFB4
:102B700008E000BF06E000BF04E000BF02E000BFC5
:102B800000E000BFFB7B002B03D07B689B69002229
:102B9000DA607B685B691B79FB7200BF1437BD4646
:102BA00090BD00BF684620F007018D4689B500AF93
:102BB0000448FFF7CDFB00BFBD46BDE88940854610
:102BC000704700BF34020020684620F007018D46A0
:102BD00089B500AF0448FFF7BBFB00BFBD46BDE8A9
:102BE00089408546704700BFA802002080B485B0A8
:102BF00000AFF860B9607A60FB704D484D4B1A68C1
:102C0000F97813469B001344DB01034403F5E27398
:102C100019604949474B1A6813469B0013449B00AF
:102C20000B440433FA681A604349424B1A6813464E
:102C30009B0013449B000B440833BA681A603E495A
:102C40003C4B1A6813469B0013449B000B440C3307
:102C50001B683948374A11681A0C12040B469B004E
:102C60000B449B0003440C331A607B68B3F5803F30
:102C70000FD97B68A3F58033304A1361BB6803F535
:102C800080332E4AD360FB6803F580332B4A936070
:102C90001AE02949274B1A6813469B0013449B00EE
:102CA0000B440C331B687A6892B211462248214AC1
:102CB0001268194313469B0013449B0003440C33D2
:102CC00019601E4B00221A611B491A4B1A681346E1
:102CD0009B0013449B000B440C331B681648154A99
:102CE000126843F4E00113469B0013449B00034425
:102CF0000C3319600E490F4B1A6813469B0013449E
:102D0000DB010B4403F5E07301221A600849094B0B
:102D10001A6813469B001344DB010B4403F5E6736A
:102D200000221A6000BF1437BD4680BC704700BF48
:102D300000002842A0000020004001408800002040
:102D4000684620F007018D4689B500AF354A364BFD
:102D50001B6803F52873012142F823103349324BD5
:102D60001A6813469B0013449B000B440C331B68EA
:102D70002E482D4A126823F4E00113469B001344A9
:102D80009B0003440C331960274B1B680133264A10
:102D90001360254B1B68042B02D1234B00221A60C1
:102DA000234B1B69002B17D0224B1B68042B03D12C
:102DB000204B00221A6004E01E4B1B6801331D4AA1
:102DC00013601B4B98681A4BD968194B1A69184B3A
:102DD0001B7DFFF70BFF1EE01449134B1A681346C7
:102DE0009B0013449B000B440C331B6803F4E0036B
:102DF000002B10D10C4B00221A600E4B00221A60DF
:102E00000B4B01221A700A4B5B68002B03D0084B56
:102E10005B680120984700BFBD46BDE889408546F4
:102E2000704700BF00002842A4000020004001407D
:102E300088000020A0000020684620F007018D4691
:102E400081B583B000AF384B1B683B603B6803F42F
:102E500070633B603B68002B2FD03449344B1A68B9
:102E600013469B001344DB010B4403F502731B68FC
:102E7000002B0AD02F4B02221A702E4B5B68002BBE
:102E800003D02C4B5B68022098472849284B1A68CE
:102E900013469B001344DB010B4403F503731B68CB
:102EA000002B0AD0234B03221A70224B5B68002BA5
:102EB00003D0204B5B68032098471B4B1B683B608B
:102EC0003B6803F470433B603B68002B0AD0194B0E
:102ED00004221A70174B5B68002B03D0154B5B68FC
:102EE0000420984700237B6014E010497A68134659
:102EF0009B001344DB010B4403F5E47301221A60C9
:102F00000A4A7B6803F52873012142F823107B6885
:102F100001337B607B68032BE7D900BF0C37BD46CC
:102F2000BDE88140854670470040014000002842CE
:102F3000A40000208800002080B483B000AF0346C6
:102F4000FB71FB7903F01F02074997F907305B0912
:102F5000012000FA02F2203341F8232000BF0C3791
:102F6000BD4680BC704700BF00E100E080B483B084
:102F700000AF0346FB71FB7903F01F02074997F985
:102F800007305B09012000FA02F2603341F8232088
:102F900000BF0C37BD4680BC704700BF00E100E0B9
:102FA00080B582B000AF1A4B9B6C194A43F4801372
:102FB0009364174B9B6C164A43F0F07393640023A1
:102FC0007B6012E0134A7B68134493F90030184683
:102FD000FFF7B2FF0F4A7B68134493F9003018469D
:102FE000FFF7C4FF7B6801337B607B681F2BE9D947
:102FF000074B9B6C064A23F0F0739364044B9B6C65
:10300000034A23F48013936400BF0837BD4680BD94
:10301000008003406C62000080B485B000AF0346BE
:103020003960FB71FB79FB60FB681F2B00D900BE88
:10303000FB681F2B05D8054AFB6852F823303A6815
:103040001A6000BF1437BD4680BC7047EC610000B9
:1030500080B485B000AF03460A46FB711346BB71CE
:10306000FB79FB60FB681F2B00D900BEFB681F2BA0
:1030700018D80F4BD3F88830BB600122FB6802FAE6
:1030800003F3DB43BA681340BB60BB7903F0010272
:10309000FB6802FA03F3BA681343BB60044ABB68D7
:1030A000C2F8883000BF1437BD4680BC704700BFEF
:1030B0000030014080B586B000AFF860B9601146BD
:1030C0001A460B46FB711346BB71BB797B61FDF75A
:1030D0005DFB38616C220021F86803F04EF8FB6854
:1030E000BA681A60FB795A00FB685A60FB68186876
:1030F000002340220621FDF784FBFB6818680123AA
:1031000040220621FDF77DFBFB6818687B699B0860
:1031100003F0010380220721FDF773FBFB681868A9
:103120007B695B0803F0010302220121FDF769FBC3
:10313000FB6818687B6903F0010301220021FDF799
:1031400060FBFB681B6803F10C02FB685B681946B7
:103150001046FDF752FBFB681B6803F11C02FB687D
:103160005B6819461046FDF748FB3869FDF712FB0E
:1031700000BF1837BD4680BD80B586B000AFF8608F
:103180007A601A460B46FB7213463B81FDF7FEFA46
:103190007861FB681B7B002B02D1FB6801221A734C
:1031A000FB68012283F86A20FB7A5A00FB689A6068
:1031B000FB6800225A62FB687A689A613A89FB6868
:1031C000DA61FB6800221A62FB68012283F834206E
:1031D000FB6897F820201A75FB6893F85430DBB22F
:1031E000012B04D1FB68012283F8692006E0FB680B
:1031F0001868012320220521FDF703FBFB6893F8E3
:103200006830012B06D1FB681868002308220321CF
:10321000FDF7F7FAFB681B6804331846FDF7EFFA71
:103220000346FB74FB7CDBB2FB74F86800F020FE05
:103230007869FDF7AFFA00BF1837BD4680BD80B58D
:1032400086B000AFF8607A601A460B46FB721346F0
:103250003B81FDF79BFA7861FB681B7B002B02D159
:10326000FB6802221A73FB68022283F86A20FB7A49
:103270005A00FB689A60FB6801225A62FB687A6810
:103280009A623A89FB68DA62FB6800221A63FB687B
:10329000012283F83420FB6897F820201A75FB6818
:1032A00093F85430DBB2012B04D1FB68012283F880
:1032B000692006E0FB681868012320220521FDF73C
:1032C000A0FAFB6893F86830012B06D1FB681868F8
:1032D000002308220321FDF794FAFB681B680433DE
:1032E0001846FDF78CFA0346FB74FB7CDBB2FB74DB
:1032F000F86800F0BDFD7869FDF74CFA00BF18379B
:10330000BD4680BD80B586B000AFF8607A601A46D1
:103310000B46FB7213463B813B89002B00D100BE5C
:103320007B68002B00D100BEBB8C002B00D100BEFF
:103330003B6A002B00D100BEFB68022283F83420D8
:10334000BB8C002B60D03B89002B5DD0FDF71EFAB3
:103350007861FB681B7B002B02D1FB6803221A7388
:10336000FB68032283F86A20FB7A5A00FB689A60A4
:10337000FB6800225A62FB687A689A613A89FB68A6
:10338000DA61FB6800221A62FB683A6A9A62BA8CB8
:10339000FB68DA62FB6800221A63FB68012283F88B
:1033A0003420FB6897F828201A75FB6893F854308E
:1033B000DBB2012B04D1FB68012283F8692006E00F
:1033C000FB681868012320220521FDF71AFAFB6823
:1033D00093F86830012B06D1FB6818680023082297
:1033E0000321FDF70EFAFB681B6804331846FDF74E
:1033F00006FA0346FB74FB7CDBB2FB74F86800F052
:1034000037FD7869FDF7C6F900BF1837BD4680BDA6
:1034100080B584B000AF78603960FDF7B7F9F86027
:103420007B683A689A63F868FDF7B4F97B6893F8AB
:103430003430FB72FB7A012BF8D0FB7A1846103738
:10344000BD4680BD80B584B000AF786039607B68D0
:103450009B6B002B1FD07B689B6B3A689A4206D20D
:103460007B689A6B3B68D21A7B689A6313E0FDF71E
:103470008DF9F8607B68032283F834207B68002292
:103480001A737B68002283F86920F868FDF782F9D7
:103490007B6800229A6300BF1037BD4680BD80B5AF
:1034A00082B000AF78607B6893F86030002B06D064
:1034B0007B681868012304220221FDF7A2F900BFEE
:1034C0000837BD4680BD0000B0B584B000AF78605D
:1034D0000123FB737B681B6804331846FDF78FF9E3
:1034E0000346FB72FB7ADBB2083BD82B00F249841F
:1034F00001A252F823F000BF5D380000833D0000B8
:10350000833D0000833D0000833D0000833D0000BB
:10351000833D0000833D00005D380000833D0000D6
:10352000833D0000833D0000833D0000833D00009B
:10353000833D0000833D00000B390000833D000007
:10354000833D0000833D0000833D0000833D00007B
:10355000833D0000833D0000E7380000833D00000C
:10356000833D0000833D0000833D0000833D00005B
:10357000833D0000833D00000B390000833D0000C7
:10358000833D0000833D0000833D0000833D00003B
:10359000833D0000833D0000A1390000833D000011
:1035A000833D0000833D0000833D0000833D00001B
:1035B000833D0000833D0000D7380000833D0000BC
:1035C000833D0000833D0000833D0000833D0000FB
:1035D000833D0000833D0000C5390000833D0000AD
:1035E000833D0000833D0000833D0000833D0000DB
:1035F000833D0000833D0000213A0000833D000030
:10360000833D0000833D0000833D0000833D0000BA
:10361000833D0000833D0000453A0000833D0000EB
:10362000833D0000833D0000833D0000833D00009A
:10363000833D0000833D0000873A0000833D000089
:10364000833D0000833D0000833D0000833D00007A
:10365000833D0000833D00002B3B0000833D0000C4
:10366000833D0000833D0000833D0000833D00005A
:10367000833D0000833D0000233B0000833D0000AC
:10368000833D0000833D0000833D0000833D00003A
:10369000833D0000833D00002B3B0000833D000084
:1036A000833D0000833D0000833D0000833D00001A
:1036B000833D0000833D0000233B0000833D00006C
:1036C000833D0000833D0000833D0000833D0000FA
:1036D000833D0000833D0000713B0000833D0000FE
:1036E000833D0000833D0000833D0000833D0000DA
:1036F000833D0000833D0000EB3A0000833D000065
:10370000833D0000833D0000833D0000833D0000B9
:10371000833D0000833D0000713B0000833D0000BD
:10372000833D0000833D0000833D0000833D000099
:10373000833D0000833D0000EB3A0000833D000024
:10374000833D0000833D0000833D0000833D000079
:10375000833D0000833D0000D53B0000833D000019
:10376000833D0000833D0000833D0000833D000059
:10377000833D0000833D0000A13C0000833D00002C
:10378000833D0000833D0000833D0000833D000039
:10379000833D0000833D0000A13C0000833D00000C
:1037A000833D0000833D0000833D0000833D000019
:1037B000833D0000833D0000A13C0000833D0000EC
:1037C000833D0000833D0000833D0000833D0000F9
:1037D000833D0000833D0000473D0000833D000025
:1037E000833D0000833D0000833D0000833D0000D9
:1037F000833D0000833D0000473D0000833D000005
:10380000833D0000833D0000833D0000833D0000B8
:10381000833D0000833D0000833D0000833D0000A8
:10382000833D0000833D0000833D0000833D000098
:10383000833D0000833D0000793C0000833D000093
:10384000833D0000833D0000833D0000833D000078
:10385000833D0000833D0000C73D00007B68186881
:10386000002320220521FCF7CCFF7B681B6803F1B5
:1038700008027B689B6819461046FCF7BEFF7B6810
:103880001B6803F108007B685B6A01220021FCF7DA
:10389000B8FF7B685B6A002B03D17B6800221A6249
:1038A00002E07B6800221A637B6893F86930002B82
:1038B00003D07B68002283F869207B681A7B7B68D1
:1038C00093F86A309A4200F080827B6893F86A200D
:1038D0007B681A7379E27B6818680123202205212E
:1038E000FCF78FFF7CE27B6818680123102204211B
:1038F000FCF787FF7B68022283F834207B68002274
:103900001A737868FFF7CBFD6AE27B681A6A7B68F6
:10391000DB699A4211D27B681B6803F108047B685B
:103920009A697B681B6A581C7968086213441B7883
:1039300019462046FCF761FF52E27B681B7B032B94
:103940000AD17B6801225A627B6818680123202211
:103950000521FCF756FF43E27B6800221A737B685F
:103960001B7D03F001033B737B683A7B83F868207F
:103970003B7B002B0AD17B681868012310220421AD
:10398000FCF73FFF7868FFF78AFD04E0786800F0F5
:103990009BFA0023FB737B68002283F834201FE22C
:1039A0007B681868012310220421FCF72AFF7B683A
:1039B000022283F834207B6800221A737868FFF7AC
:1039C0006EFD0DE27B68DB6A012B07D97B68186806
:1039D000012304220221FCF714FF01E27B68DB6A69
:1039E000012B07D17B681868002304220221FCF711
:1039F00008FFF5E17B681868012304220221FCF727
:103A000000FF7B681868012310220421FCF7F9FEEF
:103A10007B68002283F834207B6800221A73DFE180
:103A20007B681868012310220421FCF7EAFE7B68FA
:103A3000022283F834207B6800221A737868FFF72B
:103A40002EFDCDE17B681B6803F108057B689A6A4F
:103A50007B681B6B581C79680863D4182846FCF7F0
:103A6000CEFE034623707B681A6B7B68DB6A013BE2
:103A70009A42C0F0AC817B681868002304220221BE
:103A8000FCF7BFFEA3E17B681B6803F108017B68BC
:103A90009A6A7B681B6BD4180846FCF7B0FE034695
:103AA00023707B681B7D03F001033B737B683A7BCB
:103AB00083F868203B7B002B0AD17B6818680123C0
:103AC00010220421FCF79DFE7868FFF7E8FC04E073
:103AD000786800F0F9F90023FB737B6800221A7301
:103AE0007B68002283F834207AE17B681868012320
:103AF00004220221FCF785FE7B6800221A737B6892
:103B0000002283F854207B6893F86930002B00F082
:103B100060817B681868012320220521FCF771FE73
:103B200057E17B68012283F869207B6804221A73BD
:103B30007B6800221A657B6800221A617B681B681B
:103B4000202205211846FCF76AFE0346002B0AD006
:103B50007B681868002320220521FCF752FE7B6851
:103B6000012283F869207B68012283F8542037E121
:103B70007B689B6C002B1ED07B681A6D7B68DB6CAE
:103B80009A4218D27B681B6808331846FCF737FE48
:103B900003467B737B689A6C7B681B6D581C796845
:103BA000086513447A7B1A707B681B691A027B7B59
:103BB0001A447B681A617B681A6D7B68DB6C9A42D9
:103BC000C0F009817B681868002304220221FCF7F9
:103BD00018FE00E17B681B7B042B33D17B681A6DD8
:103BE0007B689B6D9A4203D17B681A697B685A6433
:103BF0007B68DB6D002B1DD07B68DB6D7A68916C78
:103C00007A68126D92B2786898470346BB73BB7BA3
:103C1000002B03D17868FFF742FC19E07B68186835
:103C2000002304220221FCF7ECFD7B68002283F8CC
:103C300060200DE07B681868012304220221FCF754
:103C4000E0FD05E07B6800225A647868FFF727FCF6
:103C50007B68002283F854207B6893F86930002B3E
:103C600006D07B681868012320220521FCF7C9FDD6
:103C70007B6800221A73B3E07B6800221A737B68AA
:103C800000225A647B6893F85430DBB2012B03D1D5
:103C90007B68022283F854207868FFF700FC9FE0DD
:103CA000FB7ADBB2A82B1ED17B6805221A737B68D6
:103CB00000221A617B68012283F854207B681B680C
:103CC000202205211846FCF7AAFD0346002B0AD046
:103CD0007B681868002320220521FCF792FD7B6891
:103CE000012283F869207B685A6C7B681B6C9A42BE
:103CF00007D37B681B680833FF211846FCF77DFD5E
:103D000010E07B681B6803F108047B68DA6B7B6852
:103D10005B6C581C7968486413441B78194620462C
:103D2000FCF76BFD7B685A6C7B681B6C9A4254D322
:103D30007B681868002304220221FCF762FD7B687F
:103D400000225A6449E07B6800225A647B68186844
:103D5000012304220221FCF754FD7B68002283F832
:103D600054207B6893F86930002B06D07B68186874
:103D7000012320220521FCF744FD7B6800221A73F1
:103D80002EE07B681868002320220521FCF739FD0E
:103D90007B6800221A737B6800225A647B6893F860
:103DA0003430DBB2012B03D17B68022283F834204C
:103DB0007B6893F85430DBB2012B10D17B68022270
:103DC00083F854200BE000BF0AE000BF08E000BF0A
:103DD00006E000BF04E000BF02E000BF00E000BF5B
:103DE000FB7B002B06D07B68186800230822032188
:103DF000FCF707FD7B681B6804331846FCF7FFFCE3
:103E00000346FB7200BF1037BD46B0BD80B483B01F
:103E100000AF0346FB71FB7903F01F02064997F9D7
:103E200007305B09012000FA02F241F8232000BFAD
:103E30000C37BD4680BC704700E100E080B483B021
:103E400000AF0346FB71FB7903F01F02074997F9A6
:103E500007305B09012000FA02F2203341F82320E9
:103E600000BF0C37BD4680BC704700BF00E100E0DA
:103E700080B582B000AF78607B680F4A934202D170
:103E80002220FFF7C3FF7B680C4A934202D1232014
:103E9000FFF7BCFF7B680A4A934202D12420FFF758
:103EA000B5FF7B68074A934202D12520FFF7AEFF9A
:103EB00000BF0837BD4680BD080400207404002000
:103EC00098030020E404002080B582B000AF786041
:103ED0007B680F4A934202D12220FFF7AFFF7B6835
:103EE0000C4A934202D12320FFF7A8FF7B680A4ABD
:103EF000934202D12420FFF7A1FF7B68074A934237
:103F000002D12520FFF79AFF00BF0837BD4680BDCC
:103F1000080400207404002098030020E40400201A
:103F200080B483B000AF78607B681B781B021AB244
:103F30007B6801331B781BB213431BB29BB218463C
:103F40000C37BD4680BC704780B483B000AF78604A
:103F50007B681B781A067B6801331B781B041A43A5
:103F60007B6802331B781B0213437A680332127892
:103F7000134318460C37BD4680BC704780B483B0ED
:103F800000AF78607B6801331B781B021AB27B6834
:103F90001B781BB213431BB29BB218460C37BD46AD
:103FA00080BC704780B483B000AF78607B68033317
:103FB0001B781A067B6802331B781B041A437B6844
:103FC00001331B781B0213437A6812781343184697
:103FD0000C37BD4680BC704780B483B000AF034649
:103FE000FB80FB881B021AB2FB881B0A9BB21BB228
:103FF00013431BB29BB218460C37BD4680BC7047BA
:1040000080B582B000AF78600B46FB701346BB7082
:10401000FA787B681344BA7811461846FCF7EDFB32
:10402000FA787B6813441846FCF7E9FB0346184608
:104030000837BD4680BD80B584B000AF0346FB8025
:1040400001F08EFA0346FB8100BF01F089FA0346B6
:104050001A46FB89D31A9BB2FA889A42F5D800BF58
:104060001037BD4680BD80B500AF00F003F80023D7
:10407000184680BD80B500AF00F01AF801F08AFA4A
:1040800002460A4BC3F8012001F084FA0246074BAE
:10409000C3F80920054B04229A7700F04FF800F08E
:1040A0005FF900F071F800F0D5F8F6E75805002048
:1040B00080B582B000AF1F4B002283F8242000227D
:1040C00083F82520002283F82620002283F8272069
:1040D000184B052283F85A20164B012283F88020C2
:1040E000144B142283F84820124B00221A7003222A
:1040F00014211148FFF784FF03467B6000F020FC89
:104100000C4B5B6A43F001030A4A5362094BDB6DB7
:104110000133084AD36501F04DFB01F0E1FB00F0EB
:1041200039FC00F069FA00F0CDFE00BF0837BD464B
:1041300080BD00BF580500200090005080B582B0BF
:1041400002AF01F0E1FE00F033FC00F0DFFC0C4BAD
:104150001B8D9AB2792300930A4BC021102001F0E5
:1041600021FF7721074801F05FFF054B1B8D9BB2B4
:1041700001339AB2024B1A8500BFBD4680BD00BF15
:10418000580500201C03002080B5A4B000AF2E4BC2
:1041900093F88030FF2B53D02C4BC7F8843046F671
:1041A0004813A7F87E3007F17E03C7F88030D7F8B0
:1041B00080301B889BB23B80254ABB1C114679226C
:1041C000184601F0CFFF0023C7F88C30002387F892
:1041D0008B3010E0D7F884301A681B4B93F880308E
:1041E00038467B2101F03AF9C7F88C0097F88B30FC
:1041F000013387F88B30D7F884301B680133D7F848
:104200008C209A4203D297F88B30032BE2D997F88F
:104210008B30032B0ED80C4B5B6ED7F88C209A4258
:1042200002D9094B1B6E01E0D7F88C30D7F88420F7
:10423000136006E0044BFF2283F8802000BF00E0FB
:1042400000BF9037BD4680BD58050020C005002046
:104250001C03002080B500AF01F09CF90246284BFA
:10426000C3F80520264BD3F80520254BD3F80130A1
:10427000D31A40F68C22934214D9214B9B7F042BF6
:1042800008D100F04DF801F085F902461C4BC3F847
:10429000012007E000F038F801F07CF90246184BE5
:1042A000C3F8012001F076F90246154BC3F80D2042
:1042B000134BD3F80D20124BD3F80930D31A114AFF
:1042C00093421AD90E4B1B78002B0BD100F034F817
:1042D0000B4B01221A7001F05DF90246084BC3F83E
:1042E00009200AE000F034F8054B00221A7001F0B2
:1042F00051F90246024BC3F8092000BF80BD00BF40
:10430000580500208097060080B500AF01213A20B3
:1043100001F008FB0021042001F004FB00BF80BD78
:1043200080B500AF01213C2001F0FCFA0021022001
:1043300001F0F8FA00BF80BD80B500AF0021362043
:1043400001F0F0FA0121082001F0ECFA00BF80BD75
:1043500080B500AF00213E2001F0E4FA00BF80BD2F
:1043600080B5A6B000AFFFF7E9FE03224FF4E131BC
:104370009E48FDF7E3F89E4B1B783B759C4B5B78A2
:104380007B759B4B5B889BB23B82994B9B889BB216
:104390007B82974B9B793B73954BD3F80730BB607F
:1043A000934BB3F877309BB2BB800023C7F89430AF
:1043B00015E08F4AD7F8943004335B001344B3F808
:1043C00003309AB2D7F894305B0007F198010B44A0
:1043D00023F82C2CD7F894300133C7F89430D7F851
:1043E0009430072BE5DD0023C7F8903016E0D7F8AE
:1043F000903008337E4A04335B001344B3F8033033
:104400009AB2D7F890305B0007F198010B4423F87B
:104410003C2CD7F890300133C7F89030D7F8903063
:10442000072BE4DD0023C7F88C3016E0D7F88C307A
:1044300010336F4A04335B001344B3F803309AB26D
:10444000D7F88C305B0007F198010B4423F84C2C13
:10445000D7F88C300133C7F88C30D7F88C30072B65
:10446000E4DD0023C7F8883016E0D7F88830183329
:104470005F4A04335B001344B3F803309AB2D7F8B1
:1044800088305B0007F198010B4423F85C2CD7F8C7
:1044900088300133C7F88830D7F88830072BE4DD3F
:1044A0000023C7F8843011E0514AD7F88430134410
:1044B0005333197807F12C02D7F8843013440A4695
:1044C0001A70D7F884300133C7F88430D7F88430B5
:1044D0000F2BE9DD0023C7F8803012E0D7F88030D9
:1044E0001033434A134493F8531007F11C02D7F8D2
:1044F000803013440A461A70D7F880300133C7F869
:104500008030D7F880300F2BE8DD0023FB670EE00A
:10451000FB6F2033364A134493F8531007F1180207
:10452000FB6F13440A461A70FB6F0133FB67FB6F86
:10453000032BEDDD07F11403022219462B48FDF78A
:1045400035F807F11003042219462848FDF72EF824
:1045500007F10C03042219462448FDF727F807F158
:104560000803042219462148FDF720F807F16C03DF
:10457000102219461D48FDF719F807F15C031022B7
:1045800019461A48FDF712F807F14C031022194694
:104590001648FDF70BF807F13C03102219461348A3
:1045A000FDF704F8082213491048FCF7FFFF07F154
:1045B0002C03102219460D48FCF7F8FF07F11C03E5
:1045C000102219460948FCF7F1FF07F118030422ED
:1045D00019460648FCF7EAFF3B1D0222194603482C
:1045E000FCF7E4FF00BF9837BD4680BDF401002012
:1045F0001C0300206703002080B584B002AF194877
:10460000FCF760F90823009302234FF04072002169
:104610001448FCF75DFA00F0ADF80346FB71FB7936
:1046200003F06003002B0FD03023BB7100210D4835
:10463000FCF7E6FAB81D00230022012100F056F82D
:1046400000210848FCF752FB074B002283F87D202D
:10465000002262F07F0283F87E2000BF0837BD464B
:1046600080BD00BF300100205805002080B582B019
:1046700000AF00237B60FF23FB7000F07BF8034654
:10468000FB70FB7803F00103FB707B6801337B60F8
:10469000FB78012B07D1064BB3F87D309BB21A464D
:1046A0007B689342E9D37B6818460837BD4680BDD6
:1046B0005805002080B584B002AF0346FB7100218D
:1046C0000948FCF79DFAF91D0023009300230122FD
:1046D0000548FCF7A9FB00210348FCF707FB00BFD6
:1046E0000837BD4680BD00BF3001002080B588B0CE
:1046F00002AFF8607A601A460B46FB7213463B81A4
:104700003B89002B1AD10620FFF7D4FF002118485F
:10471000FCF776FAFB7A9AB2002300930023F9683B
:104720001348FCF781FB00211148FCF7DFFAFFF783
:104730009DFF78610420FFF7BDFF13E000210C48C6
:10474000FCF75EFAFB7A9AB23B8900937B68F968C2
:104750000748FCF769FB00210548FCF7C7FAFFF79B
:1047600085FF78617B6918461837BD4680BD00BF5C
:104770003001002080B584B002AF00210B48FCF767
:104780003FFA0523BB71FA1DB91D0123009313469F
:1047900001220648FCF748FB00210448FCF7A6FA72
:1047A000FB7918460837BD4680BD00BF30010020A8
:1047B00084B090B400AF07F1080484E80F003A7A9F
:1047C0001E4B83F88020D7F809301C4A1363D7F8B2
:1047D0000D301A4A9363B7F811309AB2174BDA8743
:1047E000D7F81330154A5364D7F81730134AD365F6
:1047F000FA7E124B83F85A20BA8B104BA3F87D2017
:10480000BA7F0E4B83F84820D7F81F300B4A136647
:10481000D7F82330094A5366D7F82730074A9366FA
:10482000D7F82B30054AD3667B6B044AC2F81530A3
:1048300000BFBD4690BC04B0704700BF58050020C3
:10484000B0B598B00AAF00233B71002363F01703A3
:104850007B71002343F00303BB710023FB71002332
:104860003B72002343F010037B72002343F02703C5
:10487000BB720023FB7200233B73002363F03703FA
:104880007B730023BB73002343F06003FB7300239F
:1048900063F015033B7400237B740023BB744FF457
:1048A000C873BB860023FB7400233B7500237B7514
:1048B0000023BB75F023FB754FF400433B831423A7
:1048C000BB76002343F00403FB7600233B770023F1
:1048D0007B770023BB77002363F07B03FB77002308
:1048E00043F0330387F82030002363F01E0387F87A
:1048F0002130002343F0010387F82230D7F81B3022
:10490000C7F82330D7F81B30C7F82730002387F8C3
:104910002B300023FB6200233B630023FB866D46A4
:1049200007F114040FCC0FC50FCC0FC523682B6003
:104930003B1D0FCBFFF73CFF00BF3837BD46B0BD76
:10494000B0B598B00AAF3B1D184600F019F8034601
:10495000002B0ED06D4607F114040FCC0FC50FCC01
:104960000FC523682B603B1D0FCBFFF721FF0123F1
:1049700002E0FFF765FF002318463837BD46B0BD9B
:1049800080B483B000AF7860002318460C37BD4672
:1049900080BC704780B500AF042321220249034840
:1049A000FEF788FB00BF80BD00B00050E40400208B
:1049B00080B586B002AF0123FB720223BB720023D5
:1049C000FB6020E0134AFB6813441A78F97ABB7A3B
:1049D00001933B1D00930B4610210F4800F078FE19
:1049E00003467B723B1D1846FFF79AFA03461946A9
:1049F0000A4AFB6824335B0013440A46A3F80320E9
:104A0000FB680133FB60FB681F2BDBDD00BF103749
:104A1000BD4680BDFC070020E40400201C030020EC
:104A200080B586B002AF0346FB710123FB730223FE
:104A3000BB7301237B730423212230493048FEF7E6
:104A400039FBFB7B2F4A49212D4800F021FE03460C
:104A50001A462D4B1A707B7B07F10C02492128481E
:104A600000F0F6FD03461A46274B1A703B7B03F015
:104A70000203002B00D0E4E700BF01233B72FB7967
:104A80007B72BB7B07F1080249211D4800F000FE44
:104A900003461A461C4B1A70FB7B1A4A49211848D8
:104AA00000F0F6FD03461A46174B1A707B7B07F1A0
:104AB0000C024921124800F0CBFD03461A46124B66
:104AC0001A703B7B03F00103002B00D1E4E700BF29
:104AD000FA7B7B7B019307F10C03009313460222C0
:104AE0004921074800F0F4FD03461A46064B1A70A8
:104AF0000A2318461037BD4680BD00BF00B00050E5
:104B0000E4040020A8000020E004002090B585B057
:104B100000AF0023FB6011E0254AFB6813441B78BB
:104B20001846FFF77DFF03461946224AFB681344E7
:104B300053330A461A70FB680133FB60FB680B2B8A
:104B4000EADD0023BB6012E0194ABB6813441A78FF
:104B5000BB6803F10C041046FFF762FF03461A46D8
:104B6000144B234483F85320BB680133BB60BB68FC
:104B70000B2BE9DD00237B6012E00D4A7B681344B8
:104B80001A787B6803F118041046FFF749FF0346C3
:104B90001A46084B234483F853207B6801337B601B
:104BA0007B680B2BE9DD00BF1437BD4690BD00BF0D
:104BB000E40500201C03002080B582B000AF03464E
:104BC000FB71FB79002B05D101214FF0805000F0E3
:104BD000A9FE04E001214FF0005000F0A3FE0837C9
:104BE000BD4680BD80B582B000AF0346FB71FB7946
:104BF000002B05D100214FF0805000F093FE04E01F
:104C000000214FF0005000F08DFE0837BD4680BDFA
:104C100080B582B000AF0346FB71FB79002B04D155
:104C200000211020FEF714FA03E000211120FEF706
:104C30000FFA0837BD4680BD80B586B002AFF86078
:104C40007A603B600B46FB72F97A3B7E00933B68CF
:104C50007A68F868FBF73CFFFB681B681A68FB681A
:104C60001B6822F001021A60FB7AFA681268F96880
:104C70000633DB000B445B681360FB7AFA6806338B
:104C8000DB0013445A7AFB681B689A61FB7AFA6866
:104C90000633DB0013441A7AFB681B685A60FB6812
:104CA0001B681A68FB681B6842F001021A6000BFAB
:104CB0001037BD4680BD000080B58AB002AF034604
:104CC000FB711D4A07F1140392E8030083E8030017
:104CD000FB791846FFF786FF0023FB8302E0FB8B7E
:104CE0000133FB83FB8BB3F5FA7FF8D307F108029E
:104CF00007F114010A230093134608220F48FCF71A
:104D000093F80023FB8302E0FB8B0133FB83FB8BD7
:104D100041F287329342F7D9FB791846FFF74CFFEF
:104D20003B7A1B021AB27B7A1BB213431BB29BB2B3
:104D300018462037BD4680BD8C620000AC000020C4
:104D400080B586B002AF0020FFF762FF0120FFF7B9
:104D50005FFF0320FFF76FF901211020FEF778F9BC
:104D600001211120FEF774F90A20FFF764F9524877
:104D7000FBF7A8FD082300934FF480730022002165
:104D80004D48FFF759FF082300934FF4807300222A
:104D900001214948FFF750FF484A3B4692E803008B
:104DA00018600433198002330A0C1A700023FB6068
:104DB0000020FFF701FF0120FFF7FEFE07F10802C8
:104DC00000230093134614223D493B48FCF72CF87E
:104DD0000020FFF707FF07F10802002300931346A6
:104DE000142237493448FCF71FF80020FFF7E4FE8F
:104DF000FF213148FBF7BEFF0120FFF7F3FE07F16B
:104E0000080200230093134614222D492A48FCF778
:104E10000BF80120FFF7D0FEFF212748FBF7AAFF80
:104E20000320FFF708F90020FFF7DCFE07F1080276
:104E3000394601230093134607221F48FBF7F4FF6E
:104E40000020FFF7B9FEFB680133FB603B7A012BC2
:104E500002D0FB68C72BE3D9FB68C72B01D900231D
:104E600026E00023FB600320FFF7E5F80020FFF7B2
:104E7000B9FE07F1080239460123009313460722C1
:104E80000D48FBF7D1FF0020FFF796FE0120FFF74A
:104E900093FEFB680133FB603B7A012B02D0FB6879
:104EA000C72BE0D9FB68C72B01D9002300E0012301
:104EB00018461037BD4680BDAC000020946200004B
:104EC000F405002080B582B000AFFFF739FF03463C
:104ED000FB71002000F020F80346BB71BB79002B6A
:104EE00004D00C4B002283F880200FE0012000F05A
:104EF00013F80346BB71BB79002B04D0054B01228C
:104F000083F8802002E000F0EDFA00BF0837BD46CC
:104F100080BD00BF5805002080B594B002AF0346A5
:104F2000FB714FF40072FF21C44801F026F9C44B15
:104F3000FF221A70C24B51225A70C14BFF22DA7104
:104F4000BF4BFF229A71BF48FBF7BCFCF9790823DD
:104F500000933C230022BB48FFF76EFEBA4A07F1DC
:104F6000300392E8030018600433198002330A0CFE
:104F70001A7000233B64FB791846FFF71DFEFF21E2
:104F8000B048FBF7F7FE0320FFF755F8FB7918460A
:104F9000FFF728FE07F1380207F1300101230093E3
:104FA00013460722A748FBF73FFFFB791846FFF798
:104FB00003FE3B6C01333B6497F83830012B02D081
:104FC0003B6CC72BDFD93B6CC72B01D9002331E1E8
:104FD00000233B649D4A07F1200392E8030083E825
:104FE00003000320FFF727F8FB791846FFF7FAFDC7
:104FF00007F1280207F12001052300931346082238
:105000009048FBF711FFFB791846FFF7D5FD3B6C85
:1050100001333B6497F82C30AA2B11D197F82B3031
:10502000012B0DD197F82A30002B09D197F82930A0
:10503000002B05D1012387F8383000233B6406E0BC
:1050400097F83830002B02D03B6CC72BC9D93B6C8A
:10505000002B01D00023EDE0FB791846FFF7C2FDDD
:10506000FF217848FBF786FEFF217648FBF782FE9A
:10507000FF217448FBF77EFEFB791846FFF79CFD85
:10508000FF217048FBF776FEFF216E48FBF772FEAA
:10509000FF216C48FBF76EFE6D4A07F1180392E89A
:1050A000030083E803006B4A07F1100392E8030052
:1050B00083E803000320FEF7BEFFFB791846FFF7E5
:1050C00091FD07F1380207F11801012300931346FF
:1050D00008225C48FBF7A8FEFF215A48FBF74AFE6E
:1050E000FB791846FFF768FD0023A7F8463004E077
:1050F000B7F846300133A7F84630B7F84630B3F575
:10510000FA7FF5D3FF214F48FBF734FEFB791846B1
:10511000FFF768FD07F1380207F110010123009342
:10512000134608224748FBF77FFEFF214548FBF75F
:1051300021FEFB791846FFF73FFD3B6C01333B64D2
:1051400097F83830002B03D03B6CB3F5FA6FB1D32E
:105150003B6CB3F5FA6F01D300236BE03E4A07F1D5
:10516000080392E8030083E8030007F1380207F11F
:10517000080105230093134608223248FBF754FE2A
:10518000FF213048FBF7F6FD07F1380200230093BA
:105190001346142229492B48FBF746FEFB79184693
:1051A000FFF70AFDFB791846FFF786FD0346FB87EC
:1051B0000023A7F8463004E0B7F846300133A7F8DB
:1051C0004630B7F8463041F287329342F4D9FB7942
:1051D0001846FFF771FD0346FB870023A7F846300A
:1051E00004E0B7F846300133A7F84630B7F8463048
:1051F00041F287329342F4D9FB791846FFF75CFD00
:105200000346FB870023A7F8463004E0B7F8463092
:105210000133A7F84630B7F8463041F2873293425F
:10522000F4D9F97908230093142300220548FFF7E5
:1052300003FD012318464837BD4680BDF405002014
:10524000F4070020AC000020946200009C62000083
:10525000A4620000AC620000B462000080B58EB0B1
:1052600002AFF860B96011461A460B46FB7113464F
:10527000BB800023FB85002387F82D3000237B852E
:10528000FF233B7658237B76BB681B0EDBB2BB76D5
:10529000BB681B0CDBB2FB76BB681B0ADBB23B773F
:1052A000BB68DBB27B77FF23BB77FF23FB77FB7900
:1052B0001846FFF701FD03463B85FB791846FFF7CB
:1052C00091FC07F120020023009313460822614954
:1052D0006148FBF7A9FDFB791846FFF76DFC002339
:1052E0007B8502E07B8D01337B857B8D632BF9D938
:1052F000FB791846FFF776FC00237B8502E07B8D67
:1053000001337B857B8D632BF9D90023FB8507F166
:10531000200207F1180101230093134608224E488A
:10532000FBF782FDFB8D0133FB8500237B8502E0CB
:105330007B8D01337B857B8D632BF9D997F82030EA
:10534000002B03D0FB8DB3F5FA6FE0D3FB8DB3F5E3
:10535000FA6F01D3002379E0FE23FB7597F8203024
:10536000002B62D10023FB8507F1200207F1170112
:1053700000230093134601223748FBF755FD07F140
:1053800020020023009313464FF40072F96832485C
:10539000FBF74AFD07F12002002300931346022287
:1053A0002C492D48FBF740FD07F120020123009313
:1053B0001346002227492848FBF736FDFB8D0133B1
:1053C000FB8597F82030FF2B02D1FB8DC72BEBD943
:1053D00097F8203003F00F0387F82D300023FB856A
:1053E00007F12002012300931346002219491A48AD
:1053F000FBF71AFDFB8D0133FB8500237B8502E063
:105400007B8D01337B857B8DB3F5FA7FF8D397F8DD
:105410002030002B03D1FB8DB3F5FA6FE0D3FB8D69
:10542000B3F5FA6F01D3002310E0FB791846FFF7BC
:10543000C3FBFB791846FFF73FFC03463B8597F813
:105440002D30052B0CBF01230023DBB2184630376B
:10545000BD4680BDF4050020AC00002080B588B0BA
:1054600000AFF8607A601A460B467B8113467B7268
:1054700000237B837B687B610023FB837B89BB8369
:1054800000237B8223E0BB8BB3F5007F28BF4FF462
:1054900000737B82FB8BFA68D0187B8A7A7A7968F2
:1054A000FFF7DCFE03461A460D4B1A700C4B1B78B7
:1054B000002B01D17B690FE0FA8B7B8A1344FB83BD
:1054C0007A89FB8BD31ABB837B6801337B60FA8BB1
:1054D0007B899A42D7D37B6818462037BD4680BD6A
:1054E000F005002080B500AF1C4B93F88030FF2BF7
:1054F00032D11A4BB3F883309AB2184B93F8483034
:105500009BB29A421ED2154B5B6A03F00103002B3B
:1055100004D0124B002283F8802009E00F4B5B6A15
:1055200003F00103002B03D00C4B012283F88020F1
:105530000A4BB3F883309BB201339AB2074BA3F8FE
:1055400083200AE0FFF7BEFC044B002283F883208F
:10555000002283F8842000E000BF80BD58050020B1
:1055600080B582B000AF0948FBF749F903463B71AB
:105570000748FBF744F903467B713B1D1846FEF7CD
:10558000FDFC034618460837BD4680BD009000501C
:105590000490005080B582B000AF0E48FBF72FF9A1
:1055A00003463B710C48FBF72AF903467B710B4815
:1055B000FBF725F90346BB710948FBF720F90346C1
:1055C000FB713B1D1846FEF7EDFC034618460837F5
:1055D000BD4680BD009000500490005008900050DF
:1055E0000C90005090B583B000AF78601348FBF783
:1055F00006F903461A467B681A707B685C1C1048E3
:10560000FBF7FDF8034623707B689C1C0D48FBF7F5
:10561000F6F8034623707B68DC1C0B48FBF7EFF8B9
:10562000034623707B681C1D0848FBF7E8F8034617
:10563000237000BF0C37BD4690BD00BF18900050CE
:105640001C90005020900050249000502890005052
:1056500080B588B002AFF8607A601A460B46FB72DC
:105660001346BB72BB7A9AB2F97A002300931346B1
:105670007A68F868FDF7E3FD40F6B831F868FDF7A1
:10568000C7FE0346FB75FB7D18461837BD4680BD37
:1056900080B588B002AFF8607A601A460B46FB729C
:1056A0001346BB72BB7A9AB2F97A00230093134671
:1056B0007A68F868FDF760FD40F6B831F868FDF7E4
:1056C000A7FE0346FB75FB7D18461837BD4680BD17
:1056D00090B589B004AF7860084611461A46034673
:1056E000FB700B46BB7013467B70BB783B737B78BB
:1056F0009CB297F824309BB207F10C00F978002295
:10570000029201933B6A0093234602467868FDF7B4
:10571000F9FD40F6B8317868FDF77AFE0346FB7371
:10572000FB7B18461437BD4690BD000080B500AF26
:105730000A210848FDF786FE0A210748FDF782FE88
:105740000A210648FDF77EFE0A210548FDF77AFE8C
:1057500000BF80BD080400207404002098030020CE
:10576000E404002080B500AF0248FDF7ADFE00BFA5
:1057700080BD00BF0804002080B500AF0248FDF7DF
:10578000A3FE00BF80BD00BF7404002080B500AF41
:105790000248FDF799FE00BF80BD00BF98030020BE
:1057A00080B500AF0248FDF78FFE00BF80BD00BF8F
:1057B000E404002080B500AFFDF7F2FB05210120D5
:1057C000FDF72AFC05210220FDF726FC0521032018
:1057D000FDF722FC05210420FDF71EFC0521052014
:1057E000FDF71AFC05210620FDF716FC052108200F
:1057F000FDF712FC05210920FDF70EFC05210A200A
:10580000FDF70AFC05211020FDF706FC05211120FB
:10581000FDF702FC05211420FDF7FEFB00211420FA
:10582000FDF716FC05211620FDF7F6FB05211920D2
:10583000FDF7F2FB05211A20FDF7EEFB0021012008
:10584000FDF706FC00210220FDF702FC00210320E9
:10585000FDF7FEFB00210420FDF7FAFB00210520E7
:10586000FDF7F6FB00210620FDF7F2FB01211620D3
:10587000FDF7EEFB01211920FDF7EAFB01211A20BB
:10588000FDF7E6FB01210820FDF7E2FB01210920DD
:10589000FDF7DEFB00210A20FDF7DAFB01211020D5
:1058A000FDF7D6FB00BF80BD80B483B000AF786049
:1058B000044A7B68C2F8883000BF0C37BD4680BC04
:1058C000704700BF0030014080B400AF034BD3F8F5
:1058D00088301846BD4680BC704700BF003001408C
:1058E00080B500AF0423212208490948FDF7E2FBF7
:1058F0000423212207490848FDF7DCFB0423212269
:1059000006490748FDF7D6FB00BF80BD0080005068
:1059100008040020009000507404002000A00050F3
:105920009803002080B584B000AF78600B46FB7010
:10593000FFF7CAFFF860FB78002B04D0FA687B6899
:105940001343FB6004E07B68DB43FA681340FB60B1
:10595000F868FFF7A9FF00BF1037BD4680BD80B4CF
:1059600087B000AFF860B96011461A460B46FB716C
:105970001346BB71BB683B61FB793B75BB797B759B
:10598000FB681A4607F11003186810609B88938023
:10599000F8681C37BD4680BC7047000090B585B0E4
:1059A00000AF0023FB60FA68531CFB60D549134627
:1059B0005B0013445B00CC18384606234022D249D2
:1059C000FFF7CDFF22463B46196811609B88938004
:1059D000FA68531CFB60CB4913465B0013445B0021
:1059E000CC18384605234022C749FFF7B8FF2246A6
:1059F0003B46196811609B889380FA68531CFB60D2
:105A0000C04913465B0013445B00CC18384606239C
:105A10004022BD49FFF7A3FF22463B4619681160AB
:105A20009B889380FA68531CFB60B64913465B0061
:105A300013445B00CC18384605234022B249FFF7D7
:105A40008EFF22463B46196811609B889380FA6856
:105A5000531CFB60AB4913465B0013445B00CC183E
:105A6000384604233622A949FFF779FF22463B46F0
:105A7000196811609B889380FA68531CFB60A149E8
:105A800013465B0013445B00CC1838469023202259
:105A90009D49FFF764FF22463B46196811609B88C9
:105AA0009380FA68531CFB60964913465B001344CD
:105AB0005B00CC183846B02320229349FFF74FFFF4
:105AC00022463B46196811609B889380FA68531CF4
:105AD000FB608C4913465B0013445B00CC183846CE
