:020000042000DA
:1000000000000120910100207F03002081030020D7
:1000100083030020850300208703002000000000E8
:100020000000000000000000000000008903002024
:100030008B030020000000008D0300208F030020B0
:100040009103002093030020C1120020E51200203C
:10005000C91C00209B0300209D030020ED1C0020F4
:10006000A1030020A303002005060020290600208C
:10007000A9030020A5130020AD030020AF0300203A
:10008000B1030020B3030020B50300205508002071
:10009000B9030020BB030020BD030020BF030020E4
:1000A000C1030020C3030020C5030020651E0020FB
:1000B0005D1F0020CB030020CD030020CF030020D4
:1000C000D1030020D3030020D5030020D703002054
:1000D000D9030020DB030020DD030020DF03002024
:1000E000E1030020E3030020E5030020E7030020F4
:1000F000E9030020EB030020ED030020EF030020C4
:10010000F1030020F3030020F5030020F703002093
:10011000F9030020FB030020FD030020FF03002063
:10012000010400200304002005040020070400202F
:10013000090400200B0400200D0400200F040020FF
:1001400011040020130400201504002017040020CF
:10015000190400201B0400201D0400201F0400209F
:10016000210400202304002025040020270400206F
:10017000290400202B0400202D0400202F0400203F
:1001800031040020330400200000000000000000C3
:100190004FF0000BDFF8BE020068DFF8B612096806
:1001A00001F0030100F01C00142801D14BF0020BF8
:1001B000002901D04BF0010BBBF1000F05D0A7487F
:1001C000A749DFF8722200F09FF8A64880470BF09D
:1001D000020ABAF1000F0CD0DFF86E02DFF86E12DF
:1001E00002680B680FB44FF000024FF0FF0302608B
:1001F0000B609D484FF000024FF00103022808D128
:10020000DFF83A120A60DFF83E120A60DFF83212B5
:100210000B60012808D1DFF82A120A60DFF82612E5
:100220000A60DFF81A120B609048002809D1904844
:100230009049914A00F030F890489149914A00F075
:100240002BF891489149924A00F026F8914892493A
:10025000DFF8E22100F058F8BBF1000F10D08F4812
:100260008F49DFF8D62100F04FF80BF0020ABAF1FF
:10027000000F05D00FBC02600B6000BFAFF3008021
:10028000DFF820020FF2030E00474FF000004FF09E
:100290000001DFF814F2FEE72DE9F841884225D08D
:1002A000B2EB010200D5FEE740EA010313F00303BD
:1002B00002D000F01DF819E04FF000039046121133
:1002C000F7D09A421CBFF0C8F0C103F10103F8D186
:1002D00008F00F08B8F1000F08D004780C7000F196
:1002E000010001F10101B8F10108F6D1BDE8F88182
:1002F00008B54FF0000303780B7000F1010001F125
:100300000101013AF7D108BD884237D000F0030659
:10031000002E14D04FF00405A5EB06044FF008079B
:1003200007FB06F8914669FA08F9002C07D080F817
:10033000009069FA07F900F10100013CF5E74FF080
:1003400000060F46091A88460911914614461546BB
:10035000B14206D018BFA0E8340206F10106B1424E
:10036000F8D108F00F08B8F1000F07D002704FEA7B
:10037000322200F10100B8F10108F4E77047FEE70E
:10038000FEE7FEE7FEE7FEE7FEE7FEE7FEE7FEE745
:10039000FEE7FEE7FEE7FEE7FEE7FEE7FEE7FEE735
:1003A000FEE7FEE7FEE7FEE7FEE7FEE7FEE7FEE725
:1003B000FEE7FEE7FEE7FEE7FEE7FEE7FEE7FEE715
:1003C000FEE7FEE7FEE7FEE7FEE7FEE7FEE7FEE705
:1003D000FEE7FEE7FEE7FEE7FEE7FEE7FEE7FEE7F5
:1003E000FEE7FEE7FEE7FEE7FEE7FEE7FEE7FEE7E5
:1003F000FEE7FEE7FEE7FEE7FEE7FEE7FEE7FEE7D5
:10040000FEE7FEE7FEE7FEE7FEE7FEE7FEE7FEE7C4
:10041000FEE7FEE7FEE7FEE7FEE7FEE7FEE7FEE7B4
:10042000FEE7FEE7FEE7FEE7FEE7FEE7FEE7FEE7A4
:10043000FEE7FEE7704700000000A2A2A2A2008033
:100440000340088003401080034030800340348024
:1004500003403880034018080240000000F00020EC
:1004600000000120FD22002000000000000000002C
:10047000000000200000002090010020B0040020B7
:10048000B0040020B0240020B0240020B0240020BC
:10049000B0240020B0240020B0270020B027002086
:1004A00000F00020B923002091210020000000006E
:1004B0000348044B834202D0034B03B118477047F3
:1004C000B0240020B02400200000000005480649A8
:1004D000091A891001EBD171491002D0034B03B105
:1004E00018477047B0240020B0240020000000000E
:1004F00010B5064C237843B9FFF7DAFF044B13B16C
:100500000448AFF300800123237010BDB024002005
:10051000000000008824002008B5054B1BB10549E8
:100520000548AFF30080BDE80840FFF7CFBF00BF2C
:1005300000000000B42400208824002001607047DF
:10054000006870470EB503FA01F303EA020301687D
:100550006FEA020201EA020141EA030101600EBDF5
:10056000006800EA020020FA01F07047018070473D
:10057000008870470EB503FA01F303EA020301880D
:100580006FEA020201EA020141EA030101800EBDA5
:10059000008800EA020020FA01F0704701707047FD
:1005A000007870470EB503FA01F303EA02030178FD
:1005B0006FEA020201EA020141EA030101700EBD85
:1005C000007800EA020020FA01F0704780B483B09E
:1005D00000AF78600B46FB707B6803F070427B686D
:1005E0005B0123F07E4323F01F031343FA7892004C
:1005F000134403F100731B68DBB218460C37BD4689
:1006000080BC7047684620F007018D4689B500AF71
:10061000044800F01BF800BFBD46BDE88940854690
:10062000704700BF78250020684620F007018D46FE
:1006300089B500AF044800F009F800BFBD46BDE829
:1006400089408546704700BF3825002080B584B0BA
:1006500000AF78607B687D4A934204D07B687C4A17
:10066000934200D000BE7B68784A934204D07B68F6
:10067000774A934240F0DA807B681B681B7ADBB2D2
:1006800003F00F03FB73FB7B0C2B00F2CD8001A268
:1006900052F823F0C906002029080020E7060020B0
:1006A000410700200507002029080020230700201B
:1006B00029080020290800202908002029080020F6
:1006C00029080020050700207B689B6A002B00D1C9
:1006D00000BE7B689B6A002B00F0AA807B689B6A47
:1006E00078689847A4E07B685B6A002B00D100BE65
:1006F0007B685B6A002B00F09D807B685B6A786892
:10070000984797E07B681B6A002B00D100BE7B688E
:100710001B6A002B00F090807B681B6A7868984702
:100720008AE07B68DB69002B00D100BE7B68DB6957
:10073000002B00F083807B68DB69786898477DE058
:100740007B681B68283300211846FFF73FFF0346EC
:10075000002B0CD07B68DB6A002B00D100BE7B68CD
:10076000DB6A002B03D07B68DB6A786898477B687C
:100770001B68283301211846FFF728FF0346002B8A
:100780000CD07B681B6B002B00D100BE7B681B6B01
:10079000002B03D07B681B6B786898477B681B68CD
:1007A000283302211846FFF711FF0346002B0CD017
:1007B0007B685B6B002B00D100BE7B685B6B002B02
:1007C00003D07B685B6B786898477B681B6828332D
:1007D00003211846FFF7FAFE0346002B0CD07B6876
:1007E0009B6B002B00D100BE7B689B6B002B03D062
:1007F0007B689B6B786898477B681B68283304216B
:100800001846FFF7E3FE0346002B19D07B68DB6B2D
:10081000002B00D100BE7B68DB6B002B10D07B6807
:10082000DB6B786898470BE000BE0AE000BF08E089
:1008300000BF06E000BF04E000BF02E000BF00E030
:1008400000BF00BF1037BD4680BD00BF7825002027
:100850003825002080B582B000AF0F4B5B68FB717C
:100860000D4B9B68DAB2FB791340FB71FB7903F007
:100870000203BB71BB79002B01D000F0E5F8FB79D6
:1008800003F001037B717B79002B01D000F006F8A7
:1008900000BF0837BD4680BD0060014080B584B010
:1008A00000AF624B1B78022B3DD0052B68D0012B8B
:1008B00040F0AA805E4B1B889BB2002B2FD05D4B73
:1008C0001A685B4B1B889BB21946104600F00AFA67
:1008D0007860574B1B889BB21A467B6893420FD2B5
:1008E000534B1B889AB27B689BB2D31A9AB2504B77
:1008F0001A80504B1A687B6813444E4A136090E08C
:100900004B4B00221A804C4B1B68002B03D0474BEB
:1009100002221A7085E0454B03221A7081E000BE66
:1009200000F0BAF97DE0444B1B68002B24D0434B08
:100930001A68414B1B681946104600F0D3F9B8609D
:100940003D4B1B68BA689A420CD23B4B1A68BB6895
:10095000D31A394A1360394B1A68BB681344374AB3
:1009600013605EE0364B9B68354A23F001039360C9
:100970002E4B03221A7054E000BE00F08DF950E0B7
:100980002D4B1B68002B1BD12E4B1B68002B14D04A
:100990002C4B1B68294898470246274B1A60264B68
:1009A0001B68002B0CD1264B9B68254A23F00103C2
:1009B00093601E4B03221A7002E000BE00F06CF937
:1009C0001D4B1B68002B09D11D4B9B681C4A23F053
:1009D00001039360154B03221A7022E0174B1A682B
:1009E000154B1B681946104600F07CF9F860124B55
:1009F0001A68FB68D31A104A1360104B1A68FB6818
:100A000013440E4A13600CE00D4B9B680C4A23F014
:100A100001039360002000F01FF9044B00221A70BC
:100A200000BF00BF1037BD4680BD00BFF1240020CD
:100A3000D4240020D0240020DC240020D82400204E
:100A400000600140EC24002080B584B000AF7C4BF6
:100A50001B69FB81FB8923F4FF4323F07F03BB81E8
:100A6000FB89FB72774B1B78052B00F2D68001A225
:100A700052F823F08D0A0020070C0020070C0020FC
:100A8000E50A0020330B0020DB0B0020BB89002B84
:100A900000F0CA80FB7AF12B06D0FB7A7B717B7960
:100AA000184600F04FF9BFE0674B00221A80674BF1
:100AB0001B68654A128892B21344FA7A1A70624B24
:100AC0001B889BB201339AB25F4B1A805F4B1B6845
:100AD0005D4A128892B2134400221A70594B0422C4
:100AE0001A70A1E0BB89002B00F0A080FB7AFB719B
:100AF000574B1B78DBB2FA799A4215D1524B002240
:100B00001A80524B1B68504A128892B21344FA79E9
:100B10001A704D4B1B889BB201339AB24A4B1A8014
:100B2000484B04221A7081E0FB79184600F00AF95C
:100B30007CE0BB89002B06D0FB7A3B723B7A1846DF
:100B400000F000F974E0414B1A683F4B1B889BB2E0
:100B5000013B13441B78F12B16D13C4B1B683A4ADE
:100B6000128892B21344FA7A1A70384B1A68364BCC
:100B70001B889BB2013B13441B78184600F0E2F837
:100B8000304B00221A7053E02F4B1B889AB2314B26
:100B90001B889A4210D2FB7A7B722C4B1B682A4A24
:100BA000128892B213447A7A1A70274B1B889BB230
:100BB00001339AB2244B1A80234B1B889AB2254BDF
:100BC0001B889A4234D1204B1B889BB2184600F0F8
:100BD00043F81C4B00221A702AE0BB89002B0BD172
:100BE0001A4B1B680133FA7A1A70022000F034F8AD
:100BF000144B00221A701EE0FB7ABB72BB7A1846B7
:100C000000F0A0F817E0BB89002B13D0FB7ABB7172
:100C1000BB79184600F096F80CE0002000F01CF8B4
:100C2000084B00221A7006E000BF04E000BF02E09B
:100C300000BF00E000BF00BF1037BD4680BD00BF51
:100C400000600140F1240020E6240020E024002080
:100C5000CC240020E424002080B582B000AF0346FD
:100C6000FB800A4B1B68002B0CD0084B1B68084A02
:100C70001268F98810469847044B00221A60054B09
:100C800000221A7000BF0837BD4680BDE82400204E
:100C9000E0240020F024002080B582B000AF0E4B8D
:100CA0001B78DBB2002B13D00C4B1B889BB2184671
:100CB000FFF7D2FF0A4B1B68094A43F00103136098
:100CC000074B1B6803F001037B607B68002BF7D1A7
:100CD00000BF0837BD4680BDF0240020E624002078
:100CE0000060014080B485B000AF78603960144B7B
:100CF0001B68134A23F0040313600023FB60104BAE
:100D00005B6803F00103BB600DE07A68FB68134485
:100D10001A780B4B1A61FB680133FB60084B5B6868
:100D200003F00103BB60BB68002B03D0FA683B688B
:100D30009A42EAD3FB6818461437BD4680BC704718
:100D40000060014080B582B000AF0346FB71064BE6
:100D50001B68002B04D0044B1B68FA791046984797
:100D600000BF0837BD4680BDF424002080B483B0A6
:100D700000AF0346FB71FB7903F01F02074997F9A7
:100D800007305B09012000FA02F2603341F82320AA
:100D900000BF0C37BD4680BC704700BF00E100E0DB
:100DA00080B58AB000AF78607B681B681B687B6287
:100DB0007B681B689B693B627B681B685B68FB61A7
:100DC0007B681B689B6ABB617B681B681B6B7B61D4
:100DD0007B681B685B6B3B617B681B68DB69FB6046
:100DE0007B68354A93421DD17B68344A1A607B6820
:100DF00002221A71324B9B6C314A43F400739364A4
:100E00000220FFF7B3FF2E4B9B6C2D4A23F4007397
:100E100093647B681B681A687B681B6822F0004239
:100E20001A601CE07B68274A1A607B6803221A71EB
:100E3000234B9B6C224A43F4806393640320FFF7A7
:100E400095FF1F4B9B6C1E4A23F4806393647B6861
:100E50001B681A687B681B6822F000421A607B6A74
:100E600023F001037B627B681B687A6A1A607B68E7
:100E70001B683A6A9A617B681B68FA695A607B68EA
:100E80001B681A687B681B6842F001021A607B6865
:100E90001B68BA699A627B681B687A691A637B6807
:100EA0001B683A695A637B681B68FA68DA6100BF9D
:100EB0002837BD4680BD00BF3C2600200010004002
:100EC000008003400010014080B485B000AF78601E
:100ED0000023FB600DE07B689A687B681B69134404
:100EE0001A787B681B685A617B681B695A1C7B688F
:100EF0001A617B681B689B6803F48073002B05D123
:100F00007B681A697B68DB689A42E4D37B681A695C
:100F10007B68DB689A421BD30DE07B685A697B686B
:100F2000DB6913441A787B681B685A617B68DB694C
:100F30005A1C7B68DA617B681B689B6803F48073CA
:100F4000002B05D17B68DA697B689B699A42E4D300
:100F50007B685B6A002B1DD07B681A697B68DB6845
:100F60009A4217D37B68DA697B689B699A4211D3EE
:100F700006E07B681B6800225A61FB680133FB6056
:100F80007B681B689B6803F48073002B02D1FB68AD
:100F90001F2BEED900BF1437BD4680BC704780B50B
:100FA00084B000AF78607B6893F88030022B15D155
:100FB0000CE07B681B681B69FB607B685B6F002B28
:100FC00004D07B685B6FFA68104698477B681B68A3
:100FD0009B6803F04003002BEBD02FE07B6893F875
:100FE0008030012B23D116E07B681B681B69FB60F6
:100FF0007B681A6B7B68DB6A9A4207D2F9687B6868
:101000009A6A7B681B6B1344CAB21A707B681B6BAD
:101010005A1C7B681A637B681B689B6803F040035B
:10102000002BE1D00AE07B681B681B69FB607B68D2
:101030001B689B6803F04003002BF4D000BF1037FF
:10104000BD4680BD80B586B000AF78607B681B6808
:1010500020337B617B68984A934204D07B68974A2F
:10106000934200D000BE7B691B6803F00203002B93
:101070004ED07B6893F88030022B15D10CE07B6852
:101080001B681B69FB607B685B6F002B04D07B686F
:101090005B6FFA68104698477B681B689B6803F093
:1010A0004003002BEBD02FE07B6893F88030012BBE
:1010B00023D116E07B681B681B69FB607B681A6B99
:1010C0007B68DB6A9A4207D2F9687B689A6A7B6818
:1010D0001B6B1344CAB21A707B681B6B5A1C7B686B
:1010E0001A637B681B689B6803F04003002BE1D008
:1010F0000AE07B681B681B69FB607B681B689B6858
:1011000003F04003002BF4D07B681B680222DA60F6
:101110007B691B6803F00103002B11D07B6893F8F7
:101120008030022B05D17B681B687A68926F5A6108
:1011300002E07868FFF7C8FE7B681B680122DA606E
:101140007B691B6803F01003002B20D07868FFF741
:1011500026FF7B681B6A002B0AD07B681B6A7A68B3
:10116000906A7A68126B114698477868FFF7ACFE70
:101170007B6801225A627B681B689A6A7B681B68DD
:1011800022F010029A627B681B681022DA607B6989
:101190001B6803F00403002B0ED07B681B68DA6A1F
:1011A0007B681B6842F00402DA627868FFF7F8FD9A
:1011B0007B681B680422DA607B691B6803F0080304
:1011C000002B2DD07B681B68DA6A7B681B6842F0B5
:1011D0000802DA627B6893F88030022B11D17B68B9
:1011E0001B681B6823F47F0323F47F437A6812682B
:1011F00043F4807313607B681B687A68926F5A614E
:101200000AE07B6893F88030012B05D17B680022CF
:101210001A617868FFF758FE7B681B680822DA605D
:101220007B691B6803F02003002B41D07868FFF72F
:10123000B6FE7B681B6B3B617B681B6A002B17D07B
:101240007B6800225A627B6800225A617B68002218
:101250009A617B680022DA617B681B681022DA6081
:101260007B681B689A6A7B681B6842F010029A626E
:101270007B6800221A617B681B68DA6A7B681B68DE
:1012800042F00C02DA627868FFF71EFE7B680022EB
:101290001A637B68DB6F002B06D07B68DB6F7A6894
:1012A000926A3969104698477B681B682022DA6089
:1012B00000BF1837BD4680BD3C260020B825002061
:1012C000684620F007018D4689B500AF0448FFF756
:1012D000B9FE00BFBD46BDE889408546704700BFE6
:1012E0003C260020684620F007018D4689B500AFF6
:1012F0000448FFF7A7FE00BFBD46BDE8894085460C
:10130000704700BFB825002080B485B000AF034609
:10131000FB800023FB73FB8803F00303002B02D048
:101320000023FB7338E0FB8803F00C03002B02D092
:101330000123FB7330E0FB8803F03003002B02D065
:101340000223FB7328E0FB8803F0C003002B02D0CC
:101350000323FB7320E0FB8803F44073002B02D0CF
:101360000423FB7318E0FB8803F44063002B02D0D6
:101370000523FB7310E0FB8803F44053002B02D0DD
:101380000623FB7308E0FB8803F44043002B02D0E4
:101390000723FB7300E000BEFB7B18461437BD46F5
:1013A00080BC7047684620F007018D4691B586B035
:1013B00000AF174B3C1D0FCB84E80F00154B5B684B
:1013C000FB82FB8A1846FFF79FFF03467B757B7DF8
:1013D0005B0007F11802134433F8143CDB439AB264
:1013E000FB8A1340FB827B7D0B4A52F82330002B93
:1013F00004D07B7D084A52F823309847FB8A002BA3
:10140000DFD100BF1837BD46BDE891408546704723
:101410005024002000300040F824002080B483B025
:1014200000AF0346FB71FB7903F01F02074997F9F0
:1014300007305B09012000FA02F2203341F8232033
:1014400000BF0C37BD4680BC704700BF00E100E024
:1014500080B483B000AF78607B6893F86830002B6D
:1014600003D07B689B6901229A6000BF0C37BD46A0
:1014700080BC704790B585B000AF78600123FB73E6
:101480007B68E74A934204D07B68E64A934200D0E7
:1014900000BE7B685B691B79FB72FB7ADBB2083BA1
:1014A000D02B00F2D78301A252F823F0F1170020CD
:1014B000551C0020551C0020551C0020551C0020E8
:1014C000551C0020551C0020551C0020F117002041
:1014D000551C0020551C0020551C0020551C0020C8
:1014E000551C0020551C0020551C00208D18002084
:1014F000551C0020551C0020551C0020551C0020A8
:10150000551C0020551C0020551C00206F18002081
:10151000551C0020551C0020551C0020551C002087
:10152000551C0020551C0020551C00208D18002043
:10153000551C0020551C0020551C0020551C002067
:10154000551C0020551C0020551C0020131900209C
:10155000551C0020551C0020551C0020551C002047
:10156000551C0020551C0020551C0020651800202B
:10157000551C0020551C0020551C0020551C002027
:10158000551C0020551C0020551C0020311900203E
:10159000551C0020551C0020551C0020551C002007
:1015A000551C0020551C0020551C002075190020DA
:1015B000551C0020551C0020551C0020551C0020E7
:1015C000551C0020551C0020551C0020931900209C
:1015D000551C0020551C0020551C0020551C0020C7
:1015E000551C0020551C0020551C0020C719002048
:1015F000551C0020551C0020551C0020551C0020A7
:10160000551C0020551C0020551C0020571A002096
:10161000551C0020551C0020551C0020551C002086
:10162000551C0020551C0020551C00204F1A00207E
:10163000551C0020551C0020551C0020551C002066
:10164000551C0020551C0020551C0020571A002056
:10165000551C0020551C0020551C0020551C002046
:10166000551C0020551C0020551C00204F1A00203E
:10167000551C0020551C0020551C0020551C002026
:10168000551C0020551C0020551C00208D1A0020E0
:10169000551C0020551C0020551C0020551C002006
:1016A000551C0020551C0020551C0020231A00202A
:1016B000551C0020551C0020551C0020551C0020E6
:1016C000551C0020551C0020551C00208D1A0020A0
:1016D000551C0020551C0020551C0020551C0020C6
:1016E000551C0020551C0020551C0020231A0020EA
:1016F000551C0020551C0020551C0020551C0020A6
:10170000551C0020551C0020551C0020E31A002009
:10171000551C0020551C0020551C0020551C002085
:10172000551C0020551C0020551C0020A51B002026
:10173000551C0020551C0020551C0020551C002065
:10174000551C0020551C0020551C0020A51B002006
:10175000551C0020551C0020551C0020551C002045
:10176000551C0020551C0020551C0020A51B0020E6
:10177000551C0020551C0020551C0020551C002025
:10178000551C0020551C0020551C0020251C002045
:10179000551C0020551C0020551C0020551C002005
:1017A000551C0020551C0020551C0020251C002025
:1017B000551C0020551C0020551C0020551C0020E5
:1017C000551C0020551C0020551C0020551C0020D5
:1017D000551C0020551C0020551C0020551C0020C5
:1017E000551C0020551C0020551C00207D1B00208E
:1017F0007B689B6900225A617B685A687B685B69D9
:10180000D2B21A727B689B697A68D26AC3F80021E7
:101810007B68DB6A002B07D17B6800229A620AE0B2
:10182000C0260020342700207B68DB6A012B02D110
:101830007B6800229A637B6893F87130002B03D099
:101840007B68002283F871207B681A7A7B6893F8A2
:1018500072309A4200F01D827B6893F872207B6898
:101860001A7216E27B689B6901225A611CE27B684E
:101870009B6901221A617B68022283F83C207B6805
:1018800000221A727868FFF7E3FD0DE27B689A6A1E
:101890007B685B6A9A420CD27B681A6A7B689B6A97
:1018A000581C796888621A447B685B6912781A72DE
:1018B000FAE17B681B7A032B07D17B680122DA628D
:1018C0007B689B6901225A61EEE17B6800221A72F3
:1018D0007B681B7C03F001033B737B683A7B83F8D6
:1018E00070203B7B002B07D17B689B6901221A612A
:1018F0007868FFF7ADFD07E07B6893F91130184673
:10190000FFF78CFD0023FB737B68002283F83C20EB
:10191000CAE17B689B6901221A617B68022283F815
:101920003C207B6800221A727868FFF791FDBBE1CA
:101930007B685B6B012B04D97B689B6901229A60F1
:10194000B2E17B685B6B012B04D17B689B69002251
:101950009A60A9E17B689B6901229A607B689B6918
:1019600001221A617B68002283F83C207B680022F8
:101970001A7299E17B689B6901221A617B680222D5
:1019800083F83C207B6800221A727868FFF760FDBC
:101990008AE17B685A697B68196B7B689B6B5C1C6E
:1019A000786884630B44127AD2B21A707B689A6B9F
:1019B0007B685B6B013B9A42C0F06D817B689B69E1
:1019C00000229A6067E17B685A697B68196B7B68C3
:1019D0009B6B0B44127AD2B21A707B681B7C03F0AB
:1019E00001033B737B683A7B83F870203B7B002BC1
:1019F00007D17B689B6901221A617868FFF728FD8F
:101A000007E07B6893F911301846FFF707FD0023C4
:101A1000FB737B6800221A727B68002283F83C20EB
:101A200042E17B689B6901229A607B6800221A72FE
:101A30007B68002283F85C207B6893F87130002B70
:101A400000F02B817B689B6901225A6125E17B684C
:101A5000012283F871207B6804221A727B680022BD
:101A60009A657B680022DA607B689B695B69002B62
:101A700007D07B689B6900225A617B68012283F84A
:101A800071207B68012283F85C200DE17B681B6D6F
:101A9000002B1AD07B689A6D7B685B6D9A4214D2DA
:101AA0007B685B691B7A7B737B681A6D7B689B6DB7
:101AB000581C7968886513447A7B1A707B68DB68E8
:101AC0001A027B7B1A447B68DA607B689A6D7B68BC
:101AD0005B6D9A42C0F0E3807B689B6900229A604C
:101AE000DDE07B681B7A042B31D17B689A6D7B68C3
:101AF0001B6E9A4203D17B68DA687B68DA647B6884
:101B00005B6E002B1ED07B685B6E7A68116D7A6805
:101B1000926D92B2786898470346BB73BB7B002BEB
:101B200007D17868FFF794FC7B689B6901229A6073
:101B300013E07B689B6900229A607B68002283F82F
:101B400068200AE07B689B6901229A6005E07B6857
:101B50000022DA647868FFF77BFC7B68002283F858
:101B60005C207B6893F87130002B03D07B689B6905
:101B700001225A617B6800221A7295E07B6800227C
:101B80001A727B680022DA647B6893F85C30DBB2FF
:101B9000012B03D17B68022283F85C207868FFF771
:101BA00057FC81E0FB7ADBB2A82B16D17B680522BB
:101BB0001A727B680022DA607B68012283F85C205D
:101BC0007B689B695B69002B07D07B689B6900225F
:101BD0005A617B68012283F871207B68DA6C7B682C
:101BE0009B6C9A4204D37B685B69FF221A720BE0FC
:101BF0007B685A6C7B68DB6C581C7968C8641A4433
:101C00007B685B6912781A727B68DA6C7B689B6C04
:101C10009A4246D37B689B6900229A607B680022C7
:101C2000DA643EE07B680022DA647B689B6901220B
:101C30009A607B68002283F85C207B6893F871309F
:101C4000002B03D07B689B6901225A617B680022CC
:101C50001A7229E07B689B6900225A617B68002226
:101C60001A727B680022DA647B6893F83C30DBB23E
:101C7000012B03D17B68022283F83C207B6893F818
:101C80005C30DBB2012B0ED17B68022283F85C2032
:101C900009E000BF08E000BF06E000BF04E000BFAD
:101CA00002E000BF00E000BFFB7B002B03D07B689D
:101CB0009B690022DA607B685B691B79FB7200BF5D
:101CC0001437BD4690BD00BF684620F007018D4621
:101CD00089B500AF0448FFF7CDFB00BFBD46BDE8A6
:101CE00089408546704700BFC0260020684620F026
:101CF00007018D4689B500AF0448FFF7BBFB00BF65
:101D0000BD46BDE889408546704700BF34270020A6
:101D100080B485B000AFF860B9607A60FB704D4860
:101D20004D4B1A68F97813469B001344DB010344BA
:101D300003F5E27319604949474B1A6813469B0043
:101D400013449B000B440433FA681A604349424B26
:101D50001A6813469B0013449B000B440833BA686F
:101D60001A603E493C4B1A6813469B0013449B0083
:101D70000B440C331B683948374A11681A0C12049B
:101D80000B469B000B449B0003440C331A607B689A
:101D9000B3F5803F0FD97B68A3F58033304A1361D8
:101DA000BB6803F580332E4AD360FB6803F58033AC
:101DB0002B4A93601AE02949274B1A6813469B0067
:101DC00013449B000B440C331B687A6892B2114693
:101DD0002248214A1268194313469B0013449B0072
:101DE00003440C3319601E4B00221A611B491A4B25
:101DF0001A6813469B0013449B000B440C331B686A
:101E00001648154A126843F4E00113469B00134438
:101E10009B0003440C3319600E490F4B1A6813469C
:101E20009B001344DB010B4403F5E07301221A60AD
:101E30000849094B1A6813469B001344DB010B4405
:101E400003F5E67300221A6000BF1437BD4680BC5C
:101E5000704700BF000028423025002000400140AC
:101E600018250020684620F007018D4689B500AF8F
:101E7000354A364B1B6803F52873012142F82310BD
:101E80003349324B1A6813469B0013449B000B44A2
:101E90000C331B682E482D4A126823F4E0011346C8
:101EA0009B0013449B0003440C331960274B1B68B1
:101EB0000133264A1360254B1B68042B02D1234BA8
:101EC00000221A60234B1B69002B17D0224B1B6882
:101ED000042B03D1204B00221A6004E01E4B1B6828
:101EE00001331D4A13601B4B98681A4BD968194B74
:101EF0001A69184B1B7DFFF70BFF1EE01449134BAB
:101F00001A6813469B0013449B000B440C331B6858
:101F100003F4E003002B10D10C4B00221A600E4B8F
:101F200000221A600B4B01221A700A4B5B68002BCF
:101F300003D0084B5B680120984700BFBD46BDE851
:101F400089408546704700BF0000284234250020A4
:101F5000004001401825002030250020684620F070
:101F600007018D4681B583B000AF384B1B683B60DD
:101F70003B6803F470633B603B68002B2FD034490F
:101F8000344B1A6813469B001344DB010B4403F5E2
:101F900002731B68002B0AD02F4B02221A702E4BA3
:101FA0005B68002B03D02C4B5B68022098472849C4
:101FB000284B1A6813469B001344DB010B4403F5BE
:101FC00003731B68002B0AD0234B03221A70224B89
:101FD0005B68002B03D0204B5B68032098471B4BAA
:101FE0001B683B603B6803F470433B603B68002B1D
:101FF0000AD0194B04221A70174B5B68002B03D0D0
:10200000154B5B680420984700237B6014E010495F
:102010007A6813469B001344DB010B4403F5E47319
:1020200001221A600A4A7B6803F52873012142F8ED
:1020300023107B6801337B607B68032BE7D900BFEB
:102040000C37BD46BDE881408546704700400140E1
:102050000000284234250020182500202DE9900892
:1020600085B000AF78607B6804331B78D9B24FF03D
:1020700000024FF000034FF000040C0000237A68C8
:1020800003321278120693464FEAEB7C4BEA0301C7
:102090004CEA04027B6802331B781B044FEAE374AA
:1020A00041EA030B42EA040C7B6801331B781B02F4
:1020B0004FEAE3744BEA03014CEA04027B681B78A5
:1020C0005FFA83FB4FF0000C4BEA01034CEA020479
:1020D000C7E90234D7E90234184621461437BD4611
:1020E000BDE89008704780B582B000AF78600B46BD
:1020F000FB701346BB70FA787B681344BA781146BC
:102100001846FEF74BFAFA787B6813441846FEF738
:1021100047FA034618460837BD4680BD90B587B0DC
:1021200000AF194A07F1080392E80300186004336E
:1021300019703B4600221A601A714FF000034FF0ED
:102140000004C7E90434002214211048FFF7CBFF34
:1021500000F06CF8C7E904013B46184600F098F817
:10216000032214210948FFF7BEFF07F108030521E8
:10217000184600F015F800F059F8C7E904013B468D
:10218000184600F085F8F6E774240020009000500F
:1021900080B500AFFFF7C2FF0023184680BD0000E6
:1021A00080B582B000AF78600B46FB70FB78052BE2
:1021B00001D000232AE07B6804331B7819461548B8
:1021C000FEF7ECF97B6803331B7819461248FEF7DB
:1021D000E5F97B6802331B7819461048FEF7DEF9F3
:1021E0007B6801331B7819460D48FEF7D7F97B68E9
:1021F0001B7819460B48FEF7D1F907210A48FEF76C
:10220000CDF903210848FEF7C9F90123184608371C
:10221000BD4680BD109000500C90005008900050BA
:1022200004900050009000501490005090B583B07E
:1022300000AF1248FEF7B4F903463B701048FEF7B2
:10224000AFF903467B700F48FEF7AAF90346BB704F
:102250000D48FEF7A5F90346FB700C48FEF7A0F900
:1022600003463B713B461846FFF7F8FE03460C4613
:10227000184621460C37BD4690BD00BF0090005067
:1022800004900050089000500C90005010900050A6
:1022900090B583B000AF78601348FEF781F903462C
:1022A0001A467B681A707B685C1C1048FEF778F948
:1022B000034623707B689C1C0D48FEF771F90346AA
:1022C00023707B68DC1C0B48FEF76AF90346237019
:1022D0007B681C1D0848FEF763F90346237000BFA6
:1022E0000C37BD4690BD00BF189000501C900050A8
:1022F00020900050249000502890005080B500AFEE
:1023000000F030F8044B5B69034A43F400735361F7
:10231000FEF790F800BF80BD00ED00E080B483B010
:1023200000AF0E4BD3F84C313B603B684FF60202D6
:10233000934203D00A4A934203D005E001237B6015
:1023400005E002237B6002E000237B6000BF7B6826
:1023500018460C37BD4680BC704700BF0080034064
:1023600002F8010080B582B000AFFFF7D7FF7860B8
:102370007B68012B00D002E000F006F800BF00BF30
:102380000837BD4680BD000080B400AF094BD3F8CC
:102390009830084A43F48073C2F89830054BD3F85C
:1023A0009830044A23F08063C2F8983000BFBD46DD
:1023B00080BC70470080034070B500250C4E0D4C6A
:1023C000A41BA410A54209D100F05EF800250A4E16
:1023D0000A4CA41BA410A54205D170BD56F82530A7
:1023E00098470135EEE756F8253098470135F2E772
:1023F000A0240020A0240020A0240020A424002049
:1024000001000000030080000100000103008001C2
:1024100001000002030080020100000303008003AA
:102420000100000403000004010080040300800494
:1024300003000005010080050100000603000006FE
:1024400001008006030080060100000703008007EA
:1024500003000C003000C0000003000C003000C07E
:1024600048656C6C6F20576F726C6400474F542C3A
:1024700020495400010203040500000000138813E2
:102480008813881388000000F8B500BFF8BC08BCAA
:102490009E467047F8B500BFF8BC08BC9E46704722
:1024A00019050020F10400200000000000000000D9
:040000052000019145
:00000001FF
